:020000040001F9
:10800000C03D0020418201005B8201005D820100D1
:108010000000000000000000000000000000000060
:108020000000000000000000000000005F8201006E
:108030000000000000000000618201006382010076
:108040006582010065820100658201006582010090
:108050006582010000000000E1CE010065820100A0
:108060006582010065820100658201006582010070
:108070006582010065820100658201006582010060
:1080800065820100A3DA01006582010065820100BA
:10809000C5DA0100658201003BDF01006582010055
:1080A0006582010065820100000000000000000000
:1080B00000000000000000000000000000000000C0
:1080C00000F002F800F050F80CA030C8083824186E
:1080D0002D18A246671EAB4654465D46AC4201D100
:1080E00000F042F87E460F3E0FCCB64601263342E2
:1080F00000D0FB1AA246AB4633431847B8690000CC
:10810000D8690000103A02D378C878C1FAD852076B
:1081100001D330C830C101D504680C60704700003D
:108120000023002400250026103A01D378C1FBD893
:10813000520700D330C100D50B60704710B56429D9
:1081400002D105F0B1FF10BD782902D105F0E2FFA0
:1081500010BD732902D106F08FFA10BD002010BDAA
:108160001FB51FBD10B510BD06F0B6FA1146FFF7DA
:10817000F7FF00F0EEFF06F0CEFA03B4FFF7F2FFD0
:1081800003BC06F0D3FA0000401E00BF00BF00BFD2
:1081900000BF00BF00BF00BF00BF00BF00BF00BFE7
:1081A00000BFF1D170470000401E00BF00BF00BFFC
:1081B00000BF00BF00BF00BF00BF00BF00BF00BFC7
:1081C00000BFF1D170470000401E00BF00BF00BFDC
:1081D00000BF00BF00BF00BF00BF00BF00BF00BFA7
:1081E00000BFF1D170470000401E00BF00BF00BFBC
:1081F00000BF00BF00BF00BF00BF00BF00BF00BF87
:1082000000BFF1D17047000070B505460C46164618
:1082100002E00FCC0FC5103E102EFAD2082E02D36A
:1082200003CC03C5083E042E07D301CC01C5361F7D
:1082300003E021782970641C6D1C761EF9D270BD94
:1082400003210C4802680A4302600B4802680A4393
:1082500002600A4880470A480047FEE7FEE7FEE75B
:10826000FEE7FEE7FEE7000006480749074A084B1D
:108270007047000024050040540500403983010088
:10828000C1800100C02D0020C03D0020C03500206D
:10829000C035002032483349086070473248008CAE
:1082A000C0B2012812D13048808C0007000F00288E
:1082B0000CD12D48806AF0210840402806D12A4878
:1082C000C06A0840002801D1012070470020FCE767
:1082D0002548008CC0B201282CD12348808C00078F
:1082E000000F002826D12048806AF021084000288D
:1082F00006D11D48C06A0840002801D101207047FE
:108300001948806AF0210840102806D11648C06A32
:108310000840002801D10120F1E71348806AF021CC
:108320000840302806D11048C06A0840002801D112
:108330000120E4E70020E2E710B5FFF7C9FF0028BD
:1083400005D00A480A494860C8130A498861FFF7FE
:10835000A5FF002802D001200749886010BD000059
:108360000024F40000280020C00F00F0DFFF07C049
:1083700000050040006C00400006004004460D4629
:10838000164623462A463146F7A005F01BFE0F206D
:1083900000F000FF00BFBFF34F8FFD48FD49C860EC
:1083A000BFF34F8F00BF00BFFEE704460D462A46CD
:1083B0002146F948FFF7E2FF70B596B001A803F037
:1083C000A2F8044600BF2646002E05D000BFF3A247
:1083D000F5493046FFF7D2FF00BF0198002804D0CE
:1083E0000120F249087016B070BD082110A8017371
:1083F000002101750AA8129002A8149012A9EC4855
:1084000003F07BFD044600BF2646002E06D000BFC9
:10841000E2A2E54910313046FFF7B0FF00BF10A8D7
:10842000007B002803D110A8007D002803D0E1487C
:108430000078012813D0E048007840084000DE4969
:1084400008700846007802218843DB490870A020A4
:1084500008815020488100204860888117E0D64874
:10846000007840084000D44908700846007802218E
:108470008843801CD0490870A02008815020488182
:1084800012A848601E2088810120CA490870CA4885
:1084900086DF044600BF2646002E06D000BFBFA2DE
:1084A000C1492C313046FFF769FF00BF00231A464F
:1084B0000821C2A001F0B1FF0546002D02D1C2A0E3
:1084C00005F080FD082000F065FE00BF8BE7F7B5E2
:1084D00084B0154605980078152871D008DC11285D
:1084E0000DD0122853D013286BD014286AD19CE0E9
:1084F000212868D0222867D02328F7D1D9E0B9A055
:1085000005F060FD05984068871CB87979793A795B
:10851000009201910290FB78BA787978B94805F019
:1085200051FD092000F036FE00231A460921B6A0AD
:1085300001F073FF0646002E02D1A3A005F042FD14
:108540000422B448049905F0FDFE059840680188AE
:10855000B14801F0CAFD044600BF0394039C002CFF
:1085600005D000BF8DA2D9210398FFF707FF00BFF8
:10857000AA480078401CA9490870084600780128DC
:1085800001DAFFF719FFA6A005F01CFDA5E0ACA0DD
:1085900005F018FD6221A04805F031FF01F048FE0A
:1085A0000646002E02D1AFA005F00CFD00231A46AE
:1085B0000C21B3A001F031FF0646002E08D104E0E3
:1085C0004AE017E088E04EE060E0B1A005F0FAFC78
:1085D000092000F0E4FD91480078012801D1FFF75F
:1085E000EBFE8E480078401E8C490870B0A005F064
:1085F000E9FC72E004984178B6A005F0E3FC8548F8
:1086000003F05FFB044600BF2746002F06D000BFE3
:1086100062A2FF2105313846FFF7B0FE00BF049883
:108620004178B7A005F0CEFC57E0C0A005F0CAFC29
:10863000C94800F062FF044600BF2746002F06D05D
:1086400000BF56A2FF210E313846FFF797FE00BF4C
:10865000C2A005F0B7FC40E0CBA005F0B3FCD3A06E
:1086600005F0B0FC39E0DAA005F0ACFC00BF2F4605
:10867000002F06D000BF49A2FF211A313846FFF76C
:108680007DFE00BFDBA005F09DFC26E0E4A005F028
:1086900099FC00BF2F46002F06D000BF3FA2FF214C
:1086A00020313846FFF76AFE00BFE8A005F08AFCDB
:1086B00013E0F1A005F086FC00BF2F46002F06D086
:1086C00000BF36A2FF2126313846FFF757FE00BF14
:1086D000F4A005F077FC00E000BF00BF002007B069
:1086E000F0BDF0B505460B4600211C680EE0665C47
:1086F000481C275CAF4206D1881C20181060701EF1
:1087000090800020F0BD701C091800BF9888884236
:10871000EDD80520F6E7F1B584B00498051D04985E
:10872000008819281DD01B2802D01D281AD11FE24D
:1087300028460B300290A87AC008694688816A46AC
:1087400002A90220FFF7CDFF0446002C05D06A469F
:1087500002A90320FFF7C5FF0446002C03D1002720
:10876000E5E1EEE115E2EBE15B4150504C5D3A2072
:108770004153534552543A2025732C2025642C2014
:108780006572726F72203078253038780D0A0000DB
:108790000400FA0500ED00E0EFBEADDE2E2E5C6DAC
:1087A00061696E2E63000000F70200000B280020B4
:1087B000042800200A280020302900205363616E1D
:1087C0006E696E67000000005B4150504C5D3A20BE
:1087D0004C4344205772697465206661696C656416
:1087E000210D0A005B4150504C5D3A203E3E204432
:1087F0004D5F4556545F434F4E4E454354494F4E8F
:108800000D0A0000DCE70100436F6E6E656374655E
:108810006400000005280020B4280020092800205A
:108820005B4150504C5D3A203C3C20444D5F4556E6
:10883000545F434F4E4E454354494F4E0D0A00007E
:108840005B4150504C5D3A203E3E20444D5F4556C2
:10885000545F444953434F4E4E454354494F4E0D88
:108860000A0000005B4150504C5D3A204C434420CC
:10887000436C656172206661696C6564210D0A0054
:10888000446973636F6E6E65637465640000000015
:108890005B4150504C5D3A5B345D3A204C43442080
:1088A0005772697465206661696C6564210D0A0000
:1088B0005B4150504C5D3A203C3C20444D5F455656
:1088C000545F444953434F4E4E454354494F4E0D18
:1088D0000A0000005B4150504C5D3A5B3078253017
:1088E00032585D203E3E20444D5F4556545F53450F
:1088F0004355524954595F53455455500D0A000091
:108900005B4150504C5D3A5B3078253032585D20E9
:108910003C3C20444D5F4556545F534543555249B6
:1089200054595F53455455500D0A00005B41505057
:108930004C5D3A203E3E20444D5F4556545F5345C2
:108940004355524954595F53455455505F434F4D19
:10895000504C4554450D0A00182900205B415050E9
:108960004C5D3A203C3C20444D5F4556545F534596
:108970004355524954595F53455455505F434F4DE9
:10898000504C4554450D0A005B4150504C5D3A2017
:108990003E3E20444D5F4C494E4B5F53454355523C
:1089A00045445F494E440D0A000000005B415050B1
:1089B0004C5D3A203C3C20444D5F4C494E4B5F534C
:1089C0004543555245445F494E440D0A000000009E
:1089D0005B4150504C5D3A203E3E20444D5F455631
:1089E000545F4C494E4B5F534543555245440D0A25
:1089F000000000005B4150504C5D3A203C3C20445C
:108A00004D5F4556545F4445564943455F434F4E7D
:108A1000544558545F4C4F414445440D0A000000F2
:108A20005B4150504C5D3A203E3E20444D5F4556E0
:108A3000545F4445564943455F434F4E544558544F
:108A40005F53544F5245440D0A0000005B415050A3
:108A50004C5D3A203C3C20444D5F4556545F4445B4
:108A6000564943455F434F4E544558545F53544F06
:108A70005245440D0A0000005B4150504C5D3A20C5
:108A80003E3E20444D5F4556545F4445564943455C
:108A90005F434F4E544558545F44454C45544544FC
:108AA0000D0A00005B4150504C5D3A203C3C204494
:108AB0004D5F4556545F4445564943455F434F4ECD
:108AC000544558545F44454C455445440D0A0000F4
:108AD00000BF790000984018467836027900009867
:108AE000405C064300BF3146F0A005F06BFAF34846
:108AF00086421BD187DF0446002C03D02146F0A01C
:108B000005F060FA082000F04AFBF74800780221DF
:108B10008843F5490870F54AA81C88DF0446002CF4
:108B200003D02146F2A005F04DFA07E07F1C69460C
:108B30008888C10F09184910B942C9D800BF00BFC1
:108B400028E0A87802280CD1F5A005F03BFAFB48F4
:108B5000007801280BD10220F8490870FFF72CFC9F
:108B600005E0A878032802D1F5A005F02BFA11E062
:108B70002888A91C75DF044600BF2646002E06D0B3
:108B800000BFF94AFF21B2313046FFF7F7FB00BFC3
:108B900000E000BF00BF05B0F0BD10B50446022CD8
:108BA00002D0032C0BD100E000BFF0480078002871
:108BB00004D00020ED490870FFF7FEFB00E000BF85
:108BC00000BF10BD10B50446204603F002FE21464A
:108BD000E74801F0D0FA2146E64800F03CFC214687
:108BE000E54800F0ECFD2046FFF795FD10BD10B5FF
:108BF0000446204602F0E1F82046FFF7CEFF10BD04
:108C000070B500BF00234822DC49082005F04DF96B
:108C1000054600BF2E46002E06D000BFD24AFF21D7
:108C2000F8313046FFF7AAFB00BF00BFD44805F07B
:108C300072F9044600BF2546002D06D000BFCA4A7F
:108C4000FF21FC312846FFF799FB00BFCD4805F016
:108C50006BF9044600BF2546002D05D000BFC24A6F
:108C6000C9492846FFF78AFB00BF70BD7FB502F0F7
:108C700047F9044600BF2546002D06D000BFBA4A7A
:108C8000C14910312846FFF779FB00BF0120BF49D9
:108C90000969C1400140002900D100E00020009096
:108CA000684602F06CFF044600BF2546002D06D042
:108CB00000BFAD4AB44917312846FFF75FFB00BF3C
:108CC000052102A8013005F09AFBB148019002216C
:108CD00068460172407A41084900491C6846417261
:108CE000407A02218843811C68464172407A1C21E7
:108CF000884301460C3168464172407A20218843FE
:108D000069464872072101A881711021C171007A5A
:108D100040084000401C01A9087201A8007A022105
:108D20008843801C01A908729A4802F099FF044602
:108D300000BF2546002D06D000BF8B4A8B2189003D
:108D40002846FFF71BFB00BF7FBD10B5082000F0D1
:108D500018FA092000F015FA0F2000F012FA10BDE1
:108D600030B501200021032213048C002343052485
:108D7000240707252D0264198500635100BF30BD0B
:108D800070B501F00DFB0446002C1ED001F091FAE5
:108D9000044600BF2546002D06D100BF724A7A491D
:108DA00053310020FFF7EAFA00BF082001F070FA03
:108DB000044600BF2546002D06D100BF6A4A72490D
:108DC00056310020FFF7DAFA00BF70BD70B540DF02
:108DD000044600BF2546002D06D000BF624A13217D
:108DE00049012846FFF7CAFA00BF70BDF3B585B048
:108DF0000E463078012802D0022855D133E066486B
:108E000002F05FFF054600BF2F46002F06D000BFCF
:108E1000554A272109013846FFF7B0FA00BF0598E7
:108E200000F06BFB054600BF2F46002F06D000BFA9
:108E30004D4A9D2189003846FFF7A0FA00BF002364
:108E40001A460A2155A001F0E8FA044600BF274659
:108E5000002F06D100BF444A4B4978310020FFF76C
:108E60008DFA00BFBDE071884FA005F0ABF87288A5
:108E700057A101A805F0B4F801A805F041FAC7B25E
:108E800000231A46394601A801F0C7FA044600BF7C
:108E90002746002F06D100BF334A3B4984310020CA
:108EA000FFF76CFA00BF9CE09AE00000095B4150BC
:108EB000504C5D3A2025780D0A0000000D18000086
:108EC0005B4150504C5D3A205363616E2073746F68
:108ED00070206661696C65642C20726561736F6EC9
:108EE0002025640D0A0000003029002064E70100FD
:108EF0005B4150504C5D3A20436F6E6E6563746900
:108F00006F6E2052657175657374204661696C657A
:108F1000642C20726561736F6E2025640D0A000059
:108F20005B4150504C5D3A205363616E2074696D13
:108F30006564206F75742E0D0A0000000A28002059
:108F40005B4150504C5D3A20436F6E6E65637469AF
:108F50006F6E20526571756573742074696D6564F8
:108F6000206F75742E0D0A009C8701000B280020CD
:108F7000B42800201829002024290020402900209E
:108F8000C58B0100EF8B0100FF01000000050050C0
:108F9000CF84010004280020052800204865617264
:108FA00074205261746500005B4150504C5D3A2062
:108FB0004852204D6561737572656D656E742072DF
:108FC00065636569766564202564200D0A000000EC
:108FD0004865617274205261746520256400000048
:108FE00000BF00BF07B0F0BDF3B585B00D462878CF
:108FF000002804D001282BD002286BD149E06AA0B8
:1090000004F0E0FF72A004F0DDFF059800F00BFC17
:10901000064600BF3746002F06D000BF754AA7217D
:1090200089003846FFF7AAF900BF73A004F0CAFF11
:10903000059800F0ECFB064600BF3746002F05D030
:1090400000BF6C4A78493846FFF798F900BF42E004
:10905000697876A004F0B6FF6A787EA101A804F0D2
:10906000BFFF01A805F04CF9C7B2002340223946E2
:1090700001A801F0D2F9044600BF2746002F06D10F
:1090800000BF5C4A68490D310020FFF777F900BF47
:1090900021E0697873A004F095FF6A786DA101A8BA
:1090A00004F09EFF01A805F02BF9C7B2002340226F
:1090B000394601A801F0B1F9044600BF2746002F48
:1090C00006D100BF4B4A58491A310020FFF756F924
:1090D00000BF00E000BF00BF07B0F0BD38B56B486F
:1090E000009069466A4800F094F9044600BF25469E
:1090F000002D06D000BF3F4A4B492D312846FFF7CF
:109100003DF900BF38BD38B56248009069466248F5
:1091100000F030FB044600BF2546002D06D000BFFE
:10912000344AB72189002846FFF728F900BF38BD27
:1091300070B500F0AAFF044600BF2546002D06D0FA
:1091400000BF2C4A384945312846FFF717F900BFC0
:1091500070BD00F0E3FBFFF7F8FDFFF701FEFFF73E
:109160000FFEFFF74DFDFFF781FDFFF7E1FFFFF772
:10917000B5FFFFF7C8FFFFF71FF900BFFFF726FE97
:10918000FCE703210522120707231B02D2188300E4
:10919000D150704701218140404A916070470121C0
:1091A00081403E4AD16070475B4150504C5D3A204F
:1091B00042617474657279205365727669636520C3
:1091C000646973636F76657265642E200D0A000012
:1091D0005B4150504C5D3A2052656164696E672076
:1091E00062617474657279206C6576656C2E200DF1
:1091F0000A0000009C8701005B4150504C5D3A2002
:10920000456E61626C696E67204261747465727943
:10921000204C6576656C204E6F7469666963617475
:10922000696F6E2E200D0A00A10200005B415050B4
:109230004C5D3A2042617474657279204C657665A4
:109240006C20726563656976656420256420252538
:109250000D0A00004261747465727920256420252E
:10926000250000005B4150504C5D3A20426174740F
:10927000657279204C6576656C2052656164206169
:10928000732025642025250D0A000000ED8D0100C6
:1092900018290020E98F0100242900200005005032
:1092A00010B59C4800689C49096888423DD099489F
:1092B000006814214843994940188078002810D14B
:1092C000944A126814235A430B46D2189188914A43
:1092D000126814235A43914B985A002295DF044692
:1092E0000FE08C4A126814235A438C4BD218114653
:1092F0000831884A126814235A43884B985A97DFDA
:109300000446002C0DD186A004F05CFE8148006864
:10931000401C80490860084600784007400F0860FC
:1093200002E08B4804F04EFE00BF10BD70B504464D
:109330000D46FFF7B5FF70BDF8B505460C46A08990
:10934000A988884221D1002602206946087031464A
:10935000761C20461230405C3040002807D1314650
:10936000761C20461230405C6946488008E0214661
:1093700012318819017842781202114368464180FF
:1093800069462846AA68904700BFF8BD38B504462C
:10939000207800283CD1A0886E49884238D1A07935
:1093A000012835D160886C490968088000251EE0D5
:1093B0000C202946414320460A30405A67498842DA
:1093C00014D10C202946414320460A300818408910
:1093D0006149096848800C202946414320460A30EB
:1093E000081800895C490968888003E06D1C207AB0
:1093F000A842DDD800BF5AA004F0E4FD0120694670
:10940000087055480068826853480068904700BF5C
:1094100038BD38B504460D46002C01D0002D01D1D1
:109420000E2038BD0121684681704A4901804A48B2
:10943000046049492868096888600020C04346499B
:1094400009680880002044490968488051496846F5
:1094500000F031FEE5E770B505460C46002D01D061
:10946000002C00D170BD2088102804D037280AD0E5
:1094700038280DD102E0A08828800AE0214628463D
:10948000FFF75AFF05E021462846FFF74FFF00E0AF
:1094900000BF00BF00BFE5E7F7B5064615463246F8
:1094A0003D48019904F08EFD2F461B4800681A497B
:1094B0000968491C184A1160142148431749441887
:1094C000104600784007400F1146086001996181FD
:1094D0000221E181211D21610021A181012121724F
:1094E0002771FF200002384001126171268001209F
:1094F000A070FFF7D5FE0020FEBD10B50446002C7D
:1095000001D10E2010BD618820880122FFF7C4FF21
:10951000F8E70000142800201028002088290020E7
:109520005B4852535F435D3A205344205265616467
:109530002F577269746520415049207265747572A5
:109540006E7320537563636573732E2E0D0A0000CE
:1095500020E801000D1800000C280020372A000028
:109560005B4852535F435D3A2048656172742052F4
:1095700061746520536572766963652064697363FD
:109580006F766572656420617420706565722E0D5A
:109590000A0000008D9301007CE8010010B5B0487E
:1095A0000068B049096888423DD0AD480068142180
:1095B0004843AD4940188078002810D1A84A126865
:1095C00014235A430B46D2189188A54A12681423D3
:1095D0005A43A54B985A002295DF04460FE0A04A53
:1095E000126814235A43A04BD218114608319C4AE2
:1095F000126814235A439C4B985A97DF0446002C58
:109600000DD19AA004F0DEFC95480068401C9449F6
:109610000860084600784007400F086002E09F4855
:1096200004F0D0FC00BF10BD70B504460D46FFF736
:10963000B5FF70BDF8B504460D462E460C36308891
:10964000A188884209D1022168460170B179417030
:1096500069462046A268904700BFFFF79FFFF8BD0C
:1096600038B504460D46A889A188884209D1012150
:1096700068460170A97C417069462046A2689047FF
:1096800000BF38BD38B50446207800283DD1A088F9
:109690008349884239D1A079012836D1608881492F
:1096A0000968088000251FE00C2029464143204618
:1096B0000A30405A7C49884214D10C202946414343
:1096C00020460A30081840897649096848800C20ED
:1096D0002946414320460A30081800897149096823
:1096E000888004E0681CC5B2207AA842DCDC00BF98
:1096F0006EA004F067FC00206946087069480068A5
:10970000826868480068904702E074A004F05AFC40
:1097100038BDF7B50646154632467E48019904F035
:1097200051FC2F464F4800684E490968491C4D4A74
:109730001160142148434C494418104600784007F2
:10974000400F11460860019961810221E181211DCC
:1097500021610021A181012121722771FF200002D6
:1097600038400112617126800120A070FFF716FFBA
:109770000020FEBD38B504460D46002C01D0002D5A
:1097800001D10E2038BD0121684681704449018015
:10979000444804600020C043424909680880002012
:1097A0004049096848803F49096888803D492868E0
:1097B000096888605849684600F07DFCE2E770B5AA
:1097C00005460C46002D01D0002C00D170BD20882C
:1097D000102806D0352811D037280AD0382812D1C1
:1097E00002E0A08828800FE021462846FFF738FFD6
:1097F0000AE021462846FFF717FF05E021462846E4
:10980000FFF718FF00E000BF00BF00BFDEE710B5A4
:109810000446002C01D10E2010BD61882088012251
:10982000FFF777FFF8E770B504460E4800680D496A
:109830000968491C0B4A1160142148430A4945181C
:10984000104600784007400F11460860A088A880A5
:10985000208828800020A870FFF7A0FE002070BD9F
:10986000202800201C280020282A00205B42415389
:109870005F435D3A20534420526561642F577269FB
:109880007465204150492072657475726E7320535F
:109890007563636573732E2E0D0A0000C4E8010022
:1098A0000F18000018280020192A00005B424153BD
:1098B0005F435D3A2042617474657279205365722A
:1098C0007669636520646973636F76657265642089
:1098D000617420706565722E0D0A00005B42415371
:1098E0005F435D3A204261747465727920536572FA
:1098F0007669636520646973636F76657279206643
:1099000061696C75726520617420706565722E20C6
:109910000D0A000020E901008596010008B500202D
:109920001023122211210090132000F069F808BDC5
:1099300070B504460D46E0B200F047F8204670BD11
:1099400070B505460E4608A004F03CFB002404E078
:10995000295D06A004F036FB641CB442F8D302A0D3
:1099600004F030FB70BD00000D0A00003078253097
:109970003258200000BF424880680128FBD10020F7
:109980003F4988603F488069C0B2704770B504465F
:109990000D4601260AE02046641E002804DB7D20D7
:1099A000C000FEF7F1FB01E0002603E034488068C8
:1099B0000128F0D100BF002C05DB00203049886071
:1099C000304880692870304670BD2E49C86100BF9C
:1099D0002B49C9690129FBD10021294AD16170476E
:1099E00030B50346002528466D1C1C5C05E020466A
:1099F000FFF7EBFF28466D1C1C5C002CF7D130BD37
:109A0000F8B507460C4615461E46204600F025F8D8
:109A10000021304600F02AF81A48C46046610698D2
:109A200000280DD0384600F018F80021284600F034
:109A30001DF8144805618760012012494031C86251
:109A40001148104948620420086001200F498860CD
:109A5000086000200A498860F8BD0321052212072A
:109A600007231B02D2188300D150704710B58A001B
:109A700005231B07072424021B1984001A5110BD5B
:109A8000002100400025004000509D0000200040C3
:109A90000246002112E0C800F94BC0188078937884
:109AA00098420AD1C800F64B185A1388984204D13C
:109AB000C800F34BC01840687047491CF148006863
:109AC0008142E8D30020F7E70246EE48006802280A
:109AD00015D2EC480068C000E94BC0181388038019
:109AE00053884380E7480068C000E54BC0184160D8
:109AF000E4480068401CE34B1860002070470420D5
:109B0000FCE710B5002409E038226243DE4BD01890
:109B100038226243D218516B8847641CD9480068C8
:109B20008442F1D30020D949086010BDF8B504463D
:109B30000D466020005D2E21484307193846FFF787
:109B4000A7FF0646002E2ED0D048006802282AD251
:109B50005C20015BCD48006838225043CA4A801817
:109B600041800121C948006838225043C64A115437
:109B7000C648006838214843114640184560C3482C
:109B8000006838214843114640184663BF480068C2
:109B9000401CBE49086008460068BA490968884206
:109BA00001D1FFF7AEFFF8BDF8B504460D466020C1
:109BB000005D2E21484307193846FFF769FF064626
:109BC000002E3CD0B1480068022838D25C20015BEE
:109BD000AE48006838225043AB4A80184180002DBF
:109BE00012D00021A948006838225043A64A1154D7
:109BF000A649096838225143A34A8918081D2E2214
:109C0000394604F09FFB06E00221A0480068382294
:109C100050439D4A11549D480068382148439A4951
:109C20004018466399480068401C984908600846F7
:109C3000006894490968884201D1FFF762FFF8BDC6
:109C400070B5044692480068401C91490860084677
:109C500000688C49096888422ED200215F20015596
:109C60006020005D401CC1B260200155005D2E21C6
:109C7000484305196020005DC000814940180188F3
:109C8000298040886880002028715C20025B298838
:109C9000804804F097F95C21085B2A46012190DF97
:109CA0000646002E07D0002161200155314620468E
:109CB000FFF73CFF70BD02E000216120015500BFAD
:109CC000F8E710B502460B896020805C2E246043C3
:109CD0008018808D834201DA012010BD0020FCE74E
:109CE00070B50446002A16D10D896020005D2E262D
:109CF00070430019808D854201D1002070BD088914
:109D0000401C18806020005D2E2568430019808D5E
:109D100058800120F2E70889401CD588A84201D16B
:109D20000020EBE70889401C1880D088401E58802E
:109D30000120E3E738B504466020005D2E2148434A
:109D400005195F20005D002811D05F22125D521EB0
:109D5000D1B26022125D2E235A4315190C224A43B8
:109D6000AB1DD0180289521C6B461A8002E0688D28
:109D700069460880A88D694648805C21085B694671
:109D800092DF38BDF0B585B004460F460020019043
:109D90006020005D2E21484305195F20005D0C21E5
:109DA0004843A91D401802905F20005D401C29799E
:109DB000884207D103AB002220460299FFF790FFAB
:109DC000019029E05F20065D21E02879401EB04225
:109DD00002D10020009005E0701C0C214843A91D11
:109DE0004018009003AB2046009A0299FFF778FFD5
:109DF000002802D0012001900CE0009802905F2022
:109E0000005D401CC1B25F200155701CC6B22879AC
:109E1000B042DADC00BF00BF0198002804D1012065
:109E20003870002005B0F0BD002038705C21085B60
:109E300003A993DFF6E7F8B504460D4668880028C5
:109E40002AD16020005D2E21484307192E4608368E
:109E500071883980B0887880F2887A853189B985AF
:109E60002046FFF767FF00900098002806D00021E9
:109E70006120015520460099FFF758FE13E00000CD
:109E8000C82A002030280020D82A00202C280020B2
:109E900034280020C4E9010000212046FFF784FE99
:109EA0002046FFF7CDFEF8BDF3B587B0054600208C
:109EB00006906020405D2E21484344190898408850
:109EC000002857D10898083005902079049005980B
:109ED00000780390039904984018032804DC217942
:109EE00003980818207101E003202071049E0020CF
:109EF000029017E00A22029842430598801C11182C
:109F00000C207043A21D83180A22184604F01AFA86
:109F100000210C207043A21D80184181761C0298FC
:109F2000401C02902079B042E4D8701E0C214843B6
:109F3000A11D4018019028460199FFF7C2FE002894
:109F400002D02079032802D10120069011E0217966
:109F50005F2041552846FFF7EDFE0746002F08D049
:109F600000216120415539462846FFF7DFFD09B041
:109F7000F0BD01E0012006900698002823D00021C2
:109F80005F20415505A92846FFF7FCFE0746002F34
:109F900007D000216120415539462846FFF7C6FD0C
:109FA000E5E76846007D00280CD05C20425B2188F4
:109FB0008E4804F007F801212846FFF7F5FD2846F2
:109FC000FFF73EFE00BF00BFD1E7FEB504460D46D9
:109FD0006020005D2E21484307192E4608365F2079
:109FE000005D0C214843B91D401802906888002884
:109FF00016D100BF0FE006214143B21C89184988E1
:10A000007B4A914206D106214143B21C525A029921
:10A010004A8103E0401C31888142ECD800BF00BF78
:10A02000002001905F20005D401C3979884202D1F8
:10A030000120019016E05F20005D401CC1B25F204E
:10A04000015501A92046FFF79DFE009000980028C9
:10A0500007D000216120015520460099FFF766FDD9
:10A06000FEBD00BF6846007900280CD05C20025B72
:10A070003988604803F0A6FF01212046FFF794FDD0
:10A080002046FFF7DDFD00BFEAE700205A490860DF
:10A0900001205A4908700020594908605949086050
:10A0A00070470020544908605449087054490860BA
:10A0B00054490860704770B504460D46002C01D025
:10A0C000002D01D10E2070BD4C480078002801D130
:10A0D0000820F8E748480068022801D10620F2E786
:10A0E00029462046FFF7F0FCEDE7F8B504460F4699
:10A0F000002C01D10E20F8BD40480078002801D185
:10A100000820F8E73C480068002801D10820F2E761
:10A110006120005D002801D01120ECE700203849C3
:10A120000860384908600021602001555C20075311
:10A130006020005D2E21484305196020005DC000AD
:10A140003149401801882980408868805C20025B82
:10A1500029882E4803F036FF5C21085B2A4601213E
:10A1600090DF0646002E01D03046C4E70121612071
:10A1700001550020BFE770B505460C46002D01D003
:10A18000002C00D170BD1D480078002800D1F9E7EF
:10A190002088302817D004DC102807D0112821D1BE
:10A1A00008E0322814D033281CD116E0A1885C20A6
:10A1B000415318E06221284604F021F90021C943E7
:10A1C0005C2041530FE0211D2846FFF734FE0AE0D2
:10A1D000211D2846FFF768FE05E0211D2846FFF7F0
:10A1E000F4FE00E000BF00BF00BFCBE768E901005C
:10A1F0000229000014EA010030280020382800203D
:10A20000342800202C280020C82A0020C4E901009E
:10A2100010B50446C948FDF7C7FF0020C8490870BB
:10A2200008464470012302227C2000F0F9FA10BD98
:10A2300010B5C248FDF7B8FF0020C1490870802062
:10A240004870012302227C2000F0EAFA002800D1A5
:10A2500010BD01231222BB497C2000F0E1FA002846
:10A2600000D1F5E7C020B6494870012302227C20C6
:10A2700000F0D6FA002800D1EAE701231222B14902
:10A280007C2000F0CDFA002800D1E1E70120DFE7D3
:10A2900010B50446A948FDF787FF0020A8490870BB
:10A2A000702020434870012302227C2000F0B8FA7D
:10A2B00010BD10B5A148FDF777FF0020A049087038
:10A2C0000C204870012302227C2000F0A9FA10BD66
:10A2D00010B59A48FDF768FF0020994908700820DA
:10A2E0004870012302227C2000F09AFA10BD30B59C
:10A2F0000346954C002901D1002030BD1878934DBC
:10A30000E8615B1C0120924DA86022E000BF9148EB
:10A31000C069002802D1601E0400F8D1002C0CD1C5
:10A3200000208C4D68600120894D686100BF89481C
:10A3300040680028FBD00020DFE70020854DE86161
:10A34000481EC0B2010000D104E018787F4DE861DA
:10A350005B1CDBE700BF002A0AD000207D4D68604F
:10A3600001207B4D686100BF7A4840680028FBD01F
:10A370000120C2E7F8B57C240020009004250026C7
:10A38000002760107149803188603246294668464E
:10A39000FFF7ADFF074600206E4948623846F8BD1A
:10A3A00010B500F047F9002800D110BDFFF7E2FF1B
:10A3B0003820FFF72DFF002800D1F6E73920FFF7FE
:10A3C00027FF002800D1F0E71420FFF721FF002825
:10A3D00000D1EAE70820FFF75BFF002800D1E4E79F
:10A3E0005F20FFF715FF002800D1DEE76A20FFF7A6
:10A3F0000FFF002800D1D8E75748FDF7D5FEFFF73B
:10A4000058FF002800D1D0E7FFF712FF002800D145
:10A41000CBE70620FFF7FCFEC7E7FFB581B0064695
:10A4200017461D46002046490870E81980304870DC
:10A43000012302227C2000F0F3F9002801D105B0AD
:10A44000F0BD1220401BC2B201233E497C2000F027
:10A45000E7F9002800D1F2E7002039490870E8192F
:10A4600080304870012302227C2000F0D9F90028B6
:10A4700000D1E4E7402032490870002408E0102CA5
:10A4800000D108E031782E4A601C1154761CC4B209
:10A4900002988442F3DB00BF601CC2B2012328494A
:10A4A0007C2000F0BDF9CAE770B5044601231A46C6
:10A4B00023497F2000F0B4F9002800D170BD204866
:10A4C00001781D258D43E807C00F002803D0002028
:10A4D000C043207008E010202840002802D001204E
:10A4E000207001E00020207004202840002802D0C5
:10A4F0000120607009E008202840002803D00020D7
:10A50000C043607001E0002060700120D6E738B5DC
:10A51000044601231A4669467F2000F081F900288D
:10A5200000D138BD68460078C043C1B2009168468A
:10A530000078C006C00E20700120F2E7102700004E
:10A54000482B002039280020204E00000045004004
:10A550000040004000410040400D0300F8B5C248F3
:10A5600005680020C0490860080507210902401855
:10A57000066EBE48052109070722120289180866DF
:10A580000520000711464018406E0090B74805218D
:10A5900009078918486600BF01204006B449886051
:10A5A00000BF00BF4010886000BF0420FDF70CFE14
:10A5B000AF4800698001C00F002807D0AC4800698F
:10A5C000C001C00F002801D0012422E0002412277E
:10A5D00019E000BF01200006A549C86000BF0420A3
:10A5E000FDF7F2FD00BF01200006A149886000BF11
:10A5F0000420FDF7E9FD9E4800698001C00F002896
:10A6000001D0012403E038467F1E0028E1D100BFBD
:10A6100000BF052000070721090240180666052132
:10A620000907072212028918009848668E480560BB
:10A630002046F8BD10B58D48401E052109070722A8
:10A640001202891808660521090789184866002042
:10A6500088498860C8611820834988601920C860CB
:10A660003320C004486283483830834908618148F8
:10A67000E4388249512212018918486001207E493C
:10A680008860052078490860FFF768FF10BDF8B5BD
:10A6900004460D4616467A4F002D01D10020F8BD24
:10A6A00020787149C861641C01207649886031E0D6
:10A6B00000BF7048C069002806D16E48406A002873
:10A6C00002D1781E0700F4D1002F03D06948406AF8
:10A6D000002813D0002067494862634908606A492E
:10A6E000C8630520FDF770FD01206749C863052098
:10A6F0005D490860FFF79EFF0020D0E700205D491C
:10A70000C861681EC0B2050000D104E02078564937
:10A71000C861641CCCE700BF002E0AD00020554958
:10A72000486001205749486100BF524840680028EE
:10A73000FBD00120B3E7F8B505460C461746504E4E
:10A74000002C01D10020F8BD012C07D14D48143058
:10A750004A49512212018918486006E049481C30D4
:10A760004649512212018918486001204249486037
:10A7700000204049886001204249086041E000BF54
:10A780003C488068002806D13A48406A002802D137
:10A79000701E0600F4D1002036498860002E03D0D8
:10A7A0000846406A002813D00020324948622E49EA
:10A7B00008603549C8630520FDF706FD01203249D0
:10A7C000C863052028490860FFF734FF0020BAE776
:10A7D0002548806928706D1C601EC0B2044601289F
:10A7E00006D12848143025495122120189184860A1
:10A7F000002C00D106E01420FDF7E6FC01202149E1
:10A800000862BCE700BF00BF1A4840680028FBD0C0
:10A8100000201849486001201749886000BF92E76E
:10A82000F8B504460E4615461F4600200090002D40
:10A8300018DDFFF793FE002814D060100A4980311C
:10A840008860E007C00F002806D03A462946304607
:10A85000FFF771FF009005E03A4629463046FFF7C2
:10A8600016FF00900098F8BD004500400D0600005E
:10A87000000500500041004000F5014000F001409B
:10A88000204E000000400040C04F00400023142133
:10A890004143FC4A53541421414389184B800123FE
:10A8A0001421414389188B600023142141438918E6
:10A8B000CB601421414389180B611421414389184D
:10A8C0008B80704710B50020EF490880EF49087071
:10A8D000EC49091F087048708870002403E0204686
:10A8E000FFF7D4FF641C0A2CF9D310BDFFB583B069
:10A8F00004460F4615460326E448007800280BD18D
:10A90000002D06D10698002803D10220DF490870E7
:10A9100002E00120DD490870DC480078030003F004
:10A920000CFF07FD05314E84BAD7FD00D8484069B9
:10A93000401C002808D001221207126991B2D44AA3
:10A94000506903F060FD02E0012000074069401EED
:10A9500001210907096989B24843029001200007D3
:10A9600000690004820C01200007006980B278436E
:10A970000146029821DF0646002E02D10220C3497B
:10A980000870D0E0384620DF0646002E16D1002D94
:10A9900011D1069800280AD12078042803D1072075
:10A9A000BA4908700AE00520B849087006E004209A
:10A9B000B649087002E00320B4490870B3E0B44817
:10A9C0004069401C002808D001221207126991B288
:10A9D000AF4A506903F017FD02E00120000740690B
:10A9E000401E01210907096989B24843012109076D
:10A9F0000290096989B2794308462A46029921DF03
:10AA00000646002E10D1069800280AD12078042886
:10AA100003D106209D49087006E005209B49087077
:10AA200002E00420994908707DE099484069401C83
:10AA3000002808D001221207126991B2944A506985
:10AA400003F0E1FC02E0012000074069401E012103
:10AA50000907096989B24843A9004018618840186C
:10AA6000012109070290096989B27943AA0089186E
:10AA700062888818069A029921DF0646002E09D1BD
:10AA80002078042803D106208049087002E00520C0
:10AA90007E49087047E001200007006980B27843D2
:10AAA000AB00C0180290608882082169029821DFFB
:10AAB0000646002E0BD1002D06D10698002803D1A2
:10AAC00007207249087002E00620704908702AE0E9
:10AAD0006F484069401C002808D001221207126903
:10AAE00091B26B4A506903F08EFC02E0012000072E
:10AAF0004069401E01210907096989B24843019054
:10AB000001200007006981B2019803F07CFC0290EB
:10AB100020DF0646002E04D1072000E002E05B495A
:10AB2000087000E000BF00BF304607B0F0BDF0B5D0
:10AB300085B00F275348001F00781421484351491E
:10AB40004418E5682078022804D0042823D005287A
:10AB50006FD16FE0206903904B48008886026088BF
:10AB6000801B0490039880190390A08880194519D0
:10AB7000012189020498884206D204988208284656
:10AB8000039921DF074605E0FF2201322846039999
:10AB900021DF074681E0A06800013E494018008996
:10ABA0000490A0680001401840890390A06800014B
:10ABB0004018406802900298A84205D10399049871
:10ABC00048436188884202D0A06802280DD1012044
:10ABD0000007006981B2284603F015FC2A4909885C
:10ABE0004618304620DF074622E0012000070069B2
:10ABF00081B2284603F007FC0646012000070069E1
:10AC000080B27043281A8008019001200007006973
:10AC100080B2711C484361884919401A800800902D
:10AC200031462046009B019AFFF760FE074600BFB1
:10AC300033E031E001200007006981B2284603F0CB
:10AC4000E2FB0646A088411901200007006980B296
:10AC50007043081A80080490A0884019618842183F
:10AC600001200007006980B2711C4843801A8008E7
:10AC7000039031462046039B049AFFF737FE0746B0
:10AC80000BE000006C2B00205428002057280020E7
:10AC900000100010342C002000BF00BF002F02D194
:10ACA0000120F9498870384605B0F0BDFFB581B084
:10ACB000064617460024F44840780A2837D0F24860
:10ACC0000078F14949784018C4B20A2C02DB2046CA
:10ACD0000A38C4B214206043EB49091D0E541420F5
:10ACE000604340180761142060434118029805C86A
:10ACF000CA60886014206043E34A121D80180499DA
:10AD000041801420604380180A9981800025101F1B
:10AD10008078002805D1FFF70AFF0546112D00D1E4
:10AD20000025D9484078401CD749487000E00425E8
:10AD3000284605B0F0BD10B50024D348407800285F
:10AD400007DDFFF7F4FE0446002C02D0112C00D1E1
:10AD50000024204610BDF8B50446CB4800781421E5
:10AD60004843C949091D0E5C081F00781421484357
:10AD7000C549091D401880680001C4490D58C248E2
:10AD8000007814214843C049091D40184088091F14
:10AD90000090097814225143BB4A121D89180B698F
:10ADA000111F097814225143B74A121D8918084609
:10ADB000083022463146A847F8BDFEB505460026B4
:10ADC000B148807801287DD10020AF498870B04813
:10ADD0000078082811D1022D03D10020AC49087059
:10ADE00002E00020AB490870FFF7A5FF0646002EE1
:10ADF00002D03046FFF7AFFFFEBD022D02D0032D7B
:10AE000079D174E0A0480078142148439E49091D77
:10AE10004418A1480088401C9F49088020780228D7
:10AE200007D10846008880026188884201DB012042
:10AE300000E0002007462078052805D194480078D6
:10AE4000072801D1012000E000200290207804288A
:10AE500005D18F480078072801D1012000E00020AB
:10AE60000190207804280BD18B48008880026188EB
:10AE7000884205DB86480078002801D1012000E0E7
:10AE8000002000900298002807D10198002804D1E2
:10AE90000098002801D1002F1FD000207C490870A5
:10AEA0003046FFF758FF78490878FFF7EFFC00209D
:10AEB0007949088074484078401E734948700846B4
:10AEC000007800E01AE0401C0870084600780A2864
:10AED00003DB084600780A380870FFF72CFF0646A7
:10AEE000002E02D03046FFF736FF05E003E00D20CC
:10AEF000FFF731FF00E000BF00BF00BF00BF7BE7EE
:10AF000070B5FFF7DFFC00206449088064484069A1
:10AF1000401C002808D001221207126991B2604A31
:10AF2000506903F070FA02E0012000074069801EBA
:10AF300001210907096989B248435A49086000207C
:10AF40005549088000BF0DE0002102014F4B995088
:10AF50000201D21811810201D21891810201D21886
:10AF60005181401C0028EFD00820494908704C4806
:10AF70004069401C002808D001221207126991B2D2
:10AF8000474A506903F03FFA02E001200007406998
:10AF9000401E01210907096989B24843064601207C
:10AFA0000007006981B2304603F02DFA054620DF24
:10AFB0000446002C04D101203349887035490870BB
:10AFC000204670BDF8B504460D4600BF31480078F4
:10AFD000002801D10820F8BD00BF002C01D10E20AF
:10AFE000F9E7002D01D10E20F5E72068002801D1F6
:10AFF0000E20F0E7A08801210907096989B288427B
:10B0000002DCA088102801DA0720E4E7E0880028A5
:10B0100030D023484069401C002808D00122120784
:10B02000126991B21E4A506903F0EDF902E0012065
:10B0300000074069401E01210907096989B2484398
:10B04000E188A2885143174A12688918884211D3AF
:10B05000E088A188484301210907096989B288422B
:10B060000ADDA18801221207126990B203F0D5F916
:10B07000002901D00720AEE720798007800F002843
:10B0800012D00720A7E70000682B0020342C0020F6
:10B090005728002056280020542800204C28002043
:10B0A0000010001050280020FE480088012801D11F
:10B0B000042090E7FB4800882860FB48006868602F
:10B0C000F84909880901F94A891868684860F5490A
:10B0D0000988090120685050A088F24909880901AF
:10B0E00089180881E088EF49098809018918488191
:10B0F0000027A688E1884E4300BF781C87B2012054
:10B100000007006980B2B04205D201200007006943
:10B1100080B2361A00E0002601200007006980B2E4
:10B12000E14909684018E04908600120000700690A
:10B1300080B2B042E1D9DB4800880001DB49401809
:10B140008781D8480088401CD6490880002042E703
:10B150003CB5034600BFD6480078002801D108203E
:10B160003CBD00BF002B01D10E20F9E7002A01D120
:10B170000E20F5E71868002805D118680001CB4CAF
:10B180002058002801D10720EAE75C68186801947C
:10B190000090019C18680001C44D40190089484383
:10B1A00020180190009800012C4600194089009C4D
:10B1B0002401641924896043009C24016419646893
:10B1C0000019019CA04201D80720C9E7019C009802
:10B1D000546010600020C3E7F8B504460E461546DB
:10B1E0001F4600BFB2480078002801D10820F8BDF2
:10B1F00000BF002E01D10E20F9E7002C01D10E2056
:10B20000F5E72068002805D120680001A749085803
:10B21000002801D10720EAE720680001A34940186F
:10B22000408921680901A14A891809894843216890
:10B2300009018918496840186168884201D80720C7
:10B24000D5E7002D06D020680001984940180089F4
:10B25000A84201DA0720CAE7E81921680901934AE0
:10B2600089180989884201DD0720C0E7304600F0CF
:10B270005CF9002804D0384600F057F9002801D1C5
:10B280001020B4E7606800F050F9002801D11020C8
:10B29000ADE72B463246214602200097FFF706FD18
:10B2A000A5E7F8B504460E4615461F4600BF804880
:10B2B0000078002801D10820F8BD00BF002E01D180
:10B2C0000E20F9E7002C01D10E20F5E720680028B8
:10B2D00005D12068000175490858002801D10720D0
:10B2E000EAE7206800017149401840892168090196
:10B2F0006E4A8918098948432168090189184968F3
:10B3000040186168884201D80720D5E7002D06D093
:10B3100020680001654940180089A84201DA072029
:10B32000CAE7E81921680901604A89180989884231
:10B3300001DD0720C0E7304600F0F7F8002804D010
:10B34000384600F0F2F8002801D11020B4E7606818
:10B3500000F0EBF8002801D11020ADE72B46324673
:10B36000214605200097FFF7A1FCA5E7FFB581B0B6
:10B370000C4615461E4600BF4D480078002802D1F5
:10B38000082005B0F0BD00BF002C01D10E20F8E769
:10B390000198002801D10E20F3E72068002805D18C
:10B3A0002068000141490858002801D10720E8E73A
:10B3B000206800013D4940184089216809013B4A45
:10B3C0008918098948432168090189184968401882
:10B3D0006168884201D80720D3E7002D06D0206895
:10B3E0000001324940180089A84201DA0720C8E765
:10B3F000A819216809012D4A89180989884201DDA7
:10B400000720BEE7019800F090F8002804D03046ED
:10B4100000F08BF8002801D11020B2E7606800F03E
:10B4200084F8002801D11020ABE7606881192A4612
:10B43000019802F087FF0095206800011B490F5812
:10B44000002203212046019BB847002099E7F8B568
:10B4500004460D4600BF16480078002801D1082098
:10B46000F8BD00BF002C01D10E20F9E720680028AC
:10B4700005D1206800010D490858002801D1072096
:10B48000EEE7206800010949401840892168090158
:10B49000064A8918098948432168090189184968B9
:10B4A000401807E04C28002050280020342C0020B1
:10B4B000562800206168884201D80720D0E76068DC
:10B4C00000F033F8002801D11020C9E723681B01E0
:10B4D0001A4FDB1962685B68D01A226812013B467A
:10B4E000D218118902F08FFF002901D00720B7E799
:10B4F00000202B460246214600900420FFF7D6FB91
:10B5000006463046ACE7014600BF0D4800780028EB
:10B5100001D10820704700BF002901D10E20F9E7B2
:10B520000848407808600020F4E701468807800F4B
:10B53000002801D1012070470020FCE7342C0020B6
:10B5400056280020682B002010B5044601210C204D
:10B550006043FB4A80188172891E0C20604380186A
:10B560000181FF210C2060438018C1720C216143CE
:10B570008818072102F043FF10BD10B504461821BA
:10B580006143F04A891808461130062102F037FF5E
:10B5900018206043EB494018002101604160816040
:10B5A000C160FF2118206043E64A8018017418200A
:10B5B00060438018C175204601F0BBFB0020A1004C
:10B5C000E14A505010BD70B503460C4608200021DA
:10B5D00015E00C254D43DA4EAD19AD7A2540002D0E
:10B5E0000CD0DA4DAB4205D00C254D43AD192D8959
:10B5F0009D4202D11160002003E00520491C002972
:10B60000E7D000BF70BD7CB50546A9B26A46D048F8
:10B61000FFF79EFD0446002C09D15C216846FFF728
:10B6200016FF0446002C02D12846FFF7A6FF20464D
:10B630007CBDF8B505460E46052700240FE018210D
:10B640006143C04A8918084610300722294602F093
:10B6500029FE002802D13460002702E0641C072C78
:10B66000EDD300BF3846F8BD10B50446002010BD2C
:10B67000FEB504460E46A1786A46B548FFF768FD58
:10B680000546002D49D160780C214843AC4940184B
:10B69000807A40210840402801D0022E01D1AD4FD0
:10B6A00004E0012E01D1AC4F00E0AC4FA07818228D
:10B6B0005043A44A8118002318226846B84705461B
:10B6C000002D1AD1022E18D060780C2148439C49D5
:10B6D0004018807A4021884361780C225143984A6F
:10B6E0008918887260781C2250439D4A811818235B
:10B6F0001C226846B847054600BF022E0DD02078B0
:10B700000C21484397494018807A800096490A588E
:10B71000214668469047054600BFFEBDFEB5074678
:10B720000C460620029061780C225143844A891805
:10B73000088902AA6946AADF0646002E45D161782B
:10B740000C225143894A8918081D69460A8902F06A
:10B75000A9FD002813D160780C214843784940188E
:10B76000807A0221084002282FD060780C214843BB
:10B770007E494018002101604160816025E06078C9
:10B780000C21484379490858002801D0714D00E048
:10B79000714D6946098960780C225043734A1150F3
:10B7A00061780C225143714A8918081D69460A893B
:10B7B000FCF72AFD60780C2250436C4A8118342330
:10B7C0000C223846A847064600BF0020FEBD0246B0
:10B7D0000020704770B505460C4661780C22514335
:10B7E000624A881834230C222946FFF7BFFD06461B
:10B7F000002E0DD160780C2148435C490858401C4C
:10B80000002805D1002160780C225043574A11507E
:10B81000304670BD024600207047F8B50446002649
:10B82000002760780C2148435049085800281FD051
:10B8300060780C21484342494018807A80210840B2
:10B84000802815D160780C2148433D494018807A02
:10B850004021084040280BD060780C2148434349E0
:10B860004018061D60780C2148434049085A87B2A9
:10B8700061780C225143324A891808893A46314688
:10B88000A9DF0546002D00D0394D2846F8BD0146F8
:10B890000020704770B5044622780C235A43314B80
:10B8A000D218111D62780C235A43254BD2181089E7
:10B8B0007EDF0546002D29D120780C2148432949F7
:10B8C0004018407A0121084321780C225143254A2F
:10B8D0008918487260780C21484319494018807AC9
:10B8E0000421084361780C225143154A8918887253
:10B8F00060780C21484311464018807A2021884303
:10B9000061780C2251430E4A89188872284670BD0E
:10B910000146002902D1164833387047FF200870CD
:10B9200048708870C8700020F7E7FFB58FB01D46DB
:10B9300000BF0C48006800281CD113B0F0BD000007
:10B94000302D0020602C0020442C0020FFFF000040
:10B9500058280020A3B20100D9B1010069B6010046
:10B96000082D00203C2D00206CE70100242D002034
:10B970004180000000BF18985C2801D913B0F0BDC9
:10B98000012006900BA8FFF7C3FF064600BF37460D
:10B99000002F06D000BFFB4AFB493846FCF7EEFCFF
:10B9A00000BF00BF002108A8017301740A95189810
:10B9B0000990002712E0B9B207AAF448FFF7C8FBC4
:10B9C0000646002E09D1082207A90F9802F06AFC4A
:10B9D000002802D108A98F7302E07F1C072FEAD349
:10B9E00000BF08A8807BFF2878D0109804280AD1CF
:10B9F00018985C2803D1202008A9087499E04020F9
:10BA000008A9087495E0E249681A182102F0FBFCC5
:10BA10000446072C1DD209A80D901198002810D1BA
:10BA200008A9887B01218140DA4A12681140002967
:10BA300001D0012100E00021002902D10020069060
:10BA400077E008A9887B01F074F9202008A9087420
:10BA50006FE0D149681A1C2102F0D5FC0446002C85
:10BA60001AD109A80D90202108A801744473002060
:10BA70000390CA4904911C206043C74940180090B4
:10BA800008A8807B18214843C149401801906846A6
:10BA90000A90182009904CE0C149681A0C2102F064
:10BAA000B2FC0446002C1AD1302108A8017444735A
:10BAB0000121C1730C206043BA494018807A0221E9
:10BAC0000840022835D008A8407B0C214843B449DF
:10BAD000401800210160416081602AE04DE00020B3
:10BAE0000690402008A90874AF48854204D104207C
:10BAF0001090012006901CE008A8807B8000AB49D4
:10BB00000858A84215D10120069009A80D900020E0
:10BB10000CE008A98A7B0C214143A24BC918C97AC1
:10BB20008A4202D108AA507302E0401C0028F0D0DB
:10BB300000BF0698012820D11098042806D108A932
:10BB4000087C0321084308A908740FE01098032813
:10BB500006D108A9087C0121084308A9087405E05A
:10BB600008A9087C0221084308A9087409A80D90B7
:10BB70000CA90BA8119A01F01FF900BFFEE67FB5D2
:10BB80000646002E02D18A4804B070BD00240FE0A2
:10BB900000BF00210C206043864A11500C206043F6
:10BBA000801841720C2060438018817200BF641CB1
:10BBB000002CEDD0002403E02046FFF7C5FC641CF8
:10BBC000002CF9D07648002101604160816000249A
:10BBD00003E02046FFF7D1FC641C072CF9D35C215D
:10BBE000684681810721C18173480290674902A894
:10BBF000FFF7E8F90546002D30D101206F490870A4
:10BC00003078002821D100241CE0A1B26A465F48A8
:10BC1000FFF79EFA0546002D0FD1182161435C4ABB
:10BC20008818002318226946FFF7A0FB0546002D5F
:10BC300007D000206149087006E000205F490870C5
:10BC400002E0641C072CE0D308E06A469089D289A0
:10BC5000504381B24D48FFF7FAFB0546284693E76B
:10BC600070B505460C4600BF54480078002802D144
:10BC70004F48801F70BD00BF002D01D14C48F9E72F
:10BC8000002C01D14A48F5E72068002801D1484836
:10BC9000F0E74848006800280FD14649206808604E
:10BCA0000522611D4348001D02F04CFB20794149EB
:10BCB000887200202870002601E03D4E0A3E304682
:10BCC000D8E7F8B5044600BF3C480078002802D108
:10BCD0003748801FF8BD00BF002C01D13448F9E778
:10BCE00000BF2078012806DA20780C21484331492A
:10BCF0000858002802D12E48801FEBE700BF00BF84
:10BD00006078012807DA60780C21484325494018FB
:10BD1000807A012802D12648801CDBE700BF244D31
:10BD2000AD1F60780C2148431E494018807A0221DB
:10BD30000840022825D1A078FF2807D160780C217F
:10BD4000484318494018C07AFF2839D060780C2140
:10BD5000484314494018C07AA07063781C26734386
:10BD60000D4E9A1963781C2673430B4E9B19194686
:10BD7000123163780C2673430A4E9B19188981DFB0
:10BD800005465FE070EA01005B05000058280020CE
:10BD9000602C002060280020082D0020482D002065
:10BDA000242D0020302D00209CE70100442C002091
:10BDB0000E8000003C2D00202BB9010064280020DB
:10BDC00060780C225043FA4A8118684600F0B9FFA7
:10BDD0000546002D35D16846017860780C22504325
:10BDE000F34A8018C17268460078A07020780C2150
:10BDF0004843F0494018407AC007C00F00281CD0C3
:10BE000060780C21484311464018807A202108436D
:10BE100061780C225143E64A8918887220780C21F7
:10BE20004843E4494018407A0221084321780C2213
:10BE30005143E04A8918487203E02046FFF72AFD83
:10BE4000054600BF284645E7024600BFDA480078AD
:10BE5000002801D1D948704700BF002A02D1D74835
:10BE6000801DF8E7002902D1D448801DF3E700BF08
:10BE70001078012806DA10780C235843CD4B185857
:10BE8000002801D1CD48E6E700BF00BF5078012867
:10BE900007DA50780C235843C54BC018807A012824
:10BEA00002D1C6480830D6E700BF50780C2358436B
:10BEB000BF4BC018807A04231840002809D150785D
:10BEC0000C235843BA4BC018807A2023184000280E
:10BED00002D0012008700EE050780C235843B44B78
:10BEE000C018807A80231840002802D002200870F1
:10BEF00001E0002008700020ADE7F8B5044600BF5F
:10BF0000AD480078002801D1AC48F8BD00BF002C36
:10BF100002D1AA48801DF8E7002902D1A748801D58
:10BF2000F3E70868002802D1A448801DEDE788687F
:10BF3000002802D1A148801DE7E700BF2078012832
:10BF400006DA20780C2568439A4D2858002801D13C
:10BF50009A48DAE700BF002200230020009000BFCB
:10BF600045E00025009500BF12E00C266E43904F7F
:10BF7000F619F67A86420AD10C266E43F619B67A7D
:10BF800002273E40022E02D10126009602E06D1CDF
:10BF9000002DEAD000BF009D002D27D10D7B9D42D2
:10BFA0000FD918254543864EAD19ED7DED07ED0FF0
:10BFB000002D06D118254543AD199F008E68F55117
:10BFC0005B1C0D79954211D9182545437C4EAD195E
:10BFD000ED7D02263540002D08D118254543784EC9
:10BFE000AD19103597000E68F551521C401C0728FA
:10BFF000B7D30A710B73002087E702466F48883079
:10C00000704770B5044600BF6B480078002801D126
:10C010006A4870BD00BF002C02D16848801DF8E757
:10C0200000BF2078012806DA20780C2148436149B6
:10C030000858002801D16148EBE700BF00BFA07895
:10C04000072807DAA078182148435D494018C07DC9
:10C05000FF2802D159480830DBE700BFA078FFF77E
:10C06000D2FA05462846D4E770B5044600BF5248C8
:10C070000078002801D1514870BD00BF002C02D1CA
:10C080004E48801DF8E700BF2078012806DA2078A6
:10C090000C21484347490858002801D14748EBE79D
:10C0A00000BF002600250BE01820684344494018D3
:10C0B000C07DFF2803D02846FFF7A5FA06466D1C71
:10C0C000072DF1D33046D7E7FEB504460D4600BF35
:10C0D00039480078002801D13848FEBD00BF002C47
:10C0E00002D13648801DF8E7002D02D13348801D6B
:10C0F000F3E700BF2078012806DA20780C214843B6
:10C100002C490858002801D12C48E6E700BF00BFA1
:10C110006078012807DA60780C21484324494018E8
:10C12000807A012802D125480830D6E700BF00BF39
:10C13000A078072807DAA07818214843204940183A
:10C14000C07DFF2802D11D480830C6E700BFA8689F
:10C15000002812D0686800280FD0686806280CD222
:10C160002878012809D163780C277B43154FDB1908
:10C17000181D6A68A96802F0E5F8A1786A461248B5
:10C18000FEF7E6FF06462878800010490A58214647
:10C1900068469047064630469FE77CB504460D4604
:10C1A00000BF05480078002812D104487CBD00007B
:10C1B000302D00203C2D0020642800200880000045
:10C1C000602C0020242D0020582800206CE701005E
:10C1D00000BF002C01D1F848E8E7002D01D1F64856
:10C1E000E4E700BF2078012806DA20780C214843D4
:10C1F000F2490858002802D1EF48801FD6E700BF57
:10C2000000BFA078072807DAA07818214843EC4936
:10C210004018C07DFF2802D1E748801CC6E700BF58
:10C2200060780C214843E7494018807A0221084091
:10C23000022802D0E0488330B8E7A868002812D16D
:10C24000686806280FD2287801280CD160780C2164
:10C250004843DD494018001DA86060780C21484320
:10C26000D94908586860A1786A46D848FEF770FF37
:10C27000064628788000D6490A58214668469047E5
:10C280000646304692E7014600BFD24800780028B3
:10C2900002D1C948801F704700BF002901D1C6489C
:10C2A000F9E700BF0878012806DA08780C22504325
:10C2B000C24A1058002802D1BF48801FEBE700BFD8
:10C2C00000BF8878072807DA887818225043BC4ACC
:10C2D0008018C07DFF2802D1B748801CDBE700BF73
:10C2E000B5488230D7E7FEB504460D4600BFB948D1
:10C2F0000078002802D1B048801FFEBD00BF002C8E
:10C3000001D1AD48F9E7002D01D1AB48F5E76868E8
:10C31000002801D1A848F0E700BF2078012806DAFC
:10C3200020780C214843A5490858002802D1A2488A
:10C33000801FE2E700BF00BFA078072807DAA078D7
:10C34000182148439E494018C07DFF2802D19A48D1
:10C35000801CD2E700BF2868042801D20720CCE760
:10C360009D4FA1786A469948FEF7F2FE0646002ED8
:10C3700023D144230422694602A8FEF7F7FF0646AC
:10C38000002E04D10298401C002800D0934F442373
:10C39000042229466846B8470646002E0DD1482398
:10C3A000142268466968FEF77CFF0646002E04D119
:10C3B000A17889008A4A6868505030469DE7FEB5EA
:10C3C00004460D4600BF83480078002802D17A4811
:10C3D000801FFEBD00BF002C01D17748F9E7002D7A
:10C3E00001D17548F5E700BF2078012806DA2078EA
:10C3F0000C21484371490858002802D16E48801F1B
:10C40000E7E700BF00BFA078072807DAA078182167
:10C4100048436B494018C07DFF2802D16648801C04
:10C42000D7E700BF6868002805D1A07880006C4974
:10C430000858686004E0A1788900694A686850502B
:10C44000A1786A466148FEF783FE0646002E1AD19F
:10C4500044230422694602A8FEF788FF0646002E00
:10C460000FD10298401C00280BD0482314226946A3
:10C470006868FEF77BFF0646002E04D1029828600C
:10C4800001E04D4E32363046A3E73EB5044600BFCC
:10C4900050480078002802D14748801F3EBD00BFA9
:10C4A000002C01D14448F9E700BF2078012806DAC2
:10C4B00020780C21484341490858002802D13E48C1
:10C4C000801FEBE700BF00BFA078072807DAA0783D
:10C4D000182148433A494018C07DFF2802D1364808
:10C4E000801CDBE700BFA1786A463848FEF730FEC3
:10C4F0000546002D17D144230422694602A8FEF701
:10C5000035FF05460298401C00280CD04423042225
:10C5100034496846FEF7C5FE0546002D03D1A178D3
:10C5200089002F4A50502846B8E7024600BF2948E4
:10C530000078002802D12048801F704700BF0029E2
:10C5400001D11D48F9E7002A01D11B48F5E700BFDA
:10C550001078012806DA10780C235843174B185826
:10C56000002802D11448801FE7E700BF1078087048
:10C570000020E2E770B504460D4600BF154800787C
:10C58000002802D10C48801F70BD00BF002C01D1D3
:10C590000948F9E7002D01D10748F5E700BF2078E9
:10C5A000012806DA20780C2148430449085800285D
:10C5B0001AD10148801FE7E70E8000003C2D0020C3
:10C5C000602C0020302D0020242D00205828002031
:10C5D0007CE7010064280020D9B10100A3B201006A
:10C5E000442C00209CE7010000BF00BFA078072872
:10C5F00007DAA07818214843FE494018C07DFF287B
:10C6000001D1FD48C0E700BF6078FF281CD1287821
:10C61000022819D0A17818225143F64A89180846F1
:10C6200010300722294601F08DFEA07801218140BB
:10C63000F24A12681143F14A116000BF02212046FC
:10C64000FFF716F8002601E0EB4E093E30469BE767
:10C6500070B504460E4600BFE9480078002802D1B4
:10C66000E548083870BD00BF002C02D1E248801EAA
:10C67000F8E7002E02D1E048801EF3E700BF2078E3
:10C68000012806DA20780C214843DE4908580028A2
:10C6900002D1D9480838E5E700BFD74D0B3DA07857
:10C6A000FF2817D16078FF282AD060780C214843F2
:10C6B000D5494018807A02210840022820D16078AC
:10C6C0000C225043D04A81180722304601F03AFE2E
:10C6D000002515E0A07818214843C6494018C07DC0
:10C6E0000221084000280BD1A07818225043C14AEB
:10C6F0008018014610310722304601F023FE002544
:10C700002846AFE770B58AB005460C4600BFBC4866
:10C710000078002803D1B84808380AB070BD00BFBF
:10C72000002D02D1B448801EF7E7002C02D1B24898
:10C73000801EF2E700BF2878012806DA28780C214D
:10C740004843B0490858002802D1AB480838E4E70C
:10C7500000BF00BFA878072807DAA8781821484347
:10C76000A4494018C07DFF2801D1A348D5E700BFE8
:10C7700000BF0020E060A549216100216161A87827
:10C78000182148439B49401860600020A060A978A8
:10C7900001AA9F48FEF7DCFC0646002E17D118239D
:10C7A0001C2201A903A8FEF7E1FD0646002E0ED1CA
:10C7B000E0609649216100216161A8781821484311
:10C7C0008C49401860600020A06003A820603046BB
:10C7D000A3E7F0B591B00546002600200E9000BFFB
:10C7E00087480078002801D111B0F0BD00BF00BF1C
:10C7F00084480068002800D1F6E700BF0DA8FFF7C5
:10C8000087F8044600BF2746002F06D000BF814AA4
:10C8100081493846FBF7B2FD00BF00BF00200990F8
:10C820000024281D0B902A2168460186FF2108A8B4
:10C83000817500210175002010902888102813D0E0
:10C84000A88810AA0221FEF7BEFE0446002C0BD1D8
:10C850000C21109848436C494018C17A08A881758A
:10C860001098C1B208A84175288817287ED006DC28
:10C8700010280BD011287AD0132879D1EDE0182890
:10C8800077D01C2876D05228F7D1FCE110AF3A4679
:10C8900001216248FEF797FE02900298002807D116
:10C8A00002210C2238685043574A8018817201E0F7
:10C8B0000420029002980446002C62D10126112126
:10C8C00008A801721098C1B208A84175A9880C2265
:10C8D000109850434C4A8018018102210C22109874
:10C8E0005043494A801881720C2210995143464A9C
:10C8F00088180722A91D01F025FD0FA9A81DFEF724
:10C9000098FE0446002C3CD10F98C1B20C2210981E
:10C9100050433D4A8018C1720C211098484311467B
:10C920004018807A082108430C2210995143364A56
:10C930008918887208A90F9888750F9881B201AA82
:10C940003348FEF705FC0446002C19D11C2210992F
:10C950005143334A881818231C2201A9FEF706FD0B
:10C960002848807A80002F490A5804E0A8E009E0AE
:10C9700097E123E190E10DA901A89047044600BF8B
:10C9800000BF8FE10C21109848431F494018807A5E
:10C99000022188430C22109951431B4A891888723E
:10C9A0000C211098484311464018807A082108400D
:10C9B00008280ED10C211098484311464018807A5F
:10C9C0008021084080280FD100210DA8FEF750FEDD
:10C9D0000AE008A8807DFF2806D008A9887DFEF718
:10C9E000CCFDFF2008A988750C2110984843064902
:10C9F000401819E0602C0020108000006028002002
:10CA0000642800203C2D0020302D0020482D0020DF
:10CA10005828002070EA010088090000FFFF00008C
:10CA2000082D00207CE70100807A042108400428BA
:10CA300007D101200E90F848407A40084000F6499E
:10CA4000487210210C2210985043F44A80188172C9
:10CA50000126122008A9087224E100260020069071
:10CA6000EF490791002108911C2110984843ED4996
:10CA7000401803900C2110984843E8494018C07AA8
:10CA800018214843E8494018049000200590A888E0
:10CA900003AB002211467FDF0446002C01D009942D
:10CAA0000DE00C2110984843DC494018807A04219D
:10CAB00008430C2210995143D84A89188872F1E032
:10CAC000D548407A40084000D34948720C2110985C
:10CAD0004843D2494018807A042188430C22109997
:10CAE0005143CE4A89188872142008A90872012679
:10CAF00001200E90A879002802D0A87909905CE066
:10CB0000E8794007C00F002857D008A8807DFF288B
:10CB100053D00C2110984843C0494018807A08210E
:10CB200008430C2210995143BC4A89188872A87A8C
:10CB30008007C00F00280DD0182110984843BA492B
:10CB40004018C07D41084900182210985043B64A49
:10CB50008018C1750C2110984843B0494018C07A1C
:10CB6000FF282AD00C2110984843AC49085C0228C1
:10CB70001FD00C23109A5A430B46D11808AA927D55
:10CB800018235A43A84BD21810461030072201F040
:10CB9000D9FB08A8807D18214843A3494018C07DCF
:10CBA0000221884308A9897D182251439E4A891889
:10CBB000C87501210DA8FEF75BFD73E0A879000997
:10CBC00001283FD1A8790007000F01283AD10C2194
:10CBD0001098484391494018807A08210840082855
:10CBE00030D10C2210995143904A8918081D062112
:10CBF00001F007FC162008A9087201200E900C21F4
:10CC00001098484385494018807A202108430C2217
:10CC100010995143814A891888720C211098484311
:10CC200011464018807A402108430C221099514344
:10CC30007A4A891888727848407A022108437649EE
:10CC400048721CE00C211098484374494018807ABF
:10CC5000802108430C2210995143704A8918887228
:10CC6000152008A908726C48807A8000704A115813
:10CC70000DA888470446002C01D06E48099000207A
:10CC8000099001260EE06448807A8000684A1158B5
:10CC90000DA88847099005E0132008A9087201260D
:10CCA00000E000BF00BF002E16D00AA90DA8099A07
:10CCB00000F082F808A8007A12280DD100BF0C21DC
:10CCC0001098484355494018807A012802D010989E
:10CCD000FEF73AFC00BF00BF0E98002827D04E4850
:10CCE000407A02210840022821D107AA2021524877
:10CCF000FEF769FC0446002C12D1002108A801703F
:10CD00000798C1B208A841700C21079848434349CD
:10CD10004018C17A08A88170FEF7BCFD044605E002
:10CD20003D48407A022188433B49487200BF00BF1A
:10CD30005AE501218140414A12688A433F490A600D
:10CD40007047F8B505460E463A4FBF1C00242EE04A
:10CD50001820604334494018C07DFF2826D1307820
:10CD6000022814D0182060434018C07D0221884357
:10CD7000182161432C4A8918C87518216143891804
:10CD8000084610300722314601F0DCFA0BE018208B
:10CD9000604325494018C07D410849001820604380
:10CDA000214A8018C1752C70002702E0641C072CF2
:10CDB000CED300BF3846F8BDF8B504460D4616463A
:10CDC00015480768324629462046B847F8BD02464E
:10CDD0000020704770B505460E4631462846FEF7DE
:10CDE0009DFC0446002C02D100BF00BF0446204633
:10CDF00070BD02460020704770B505460E463146AC
:10CE00002846FEF7E7FC0446002C02D100BF00BF15
:10CE10000446204670BD00003C2D0020302D00202F
:10CE2000482D0020082D0020602C0020242D0020FB
:10CE30008CE7010041800000FFFF00006028002017
:10CE400001460020704770B505462846FEF7E5FC10
:10CE50000446002C02D100BF00BF0446204670BD2E
:10CE6000F0B502460C46002037E001238340194606
:10CE700023460B40002B2FD0D5680D40002D05D147
:10CE800001235B04D5680D43D56004E003231B0434
:10CE9000D5688D43D56005252D0707263602AD19C7
:10CEA0008600AD5903263604B54305263607072705
:10CEB0003F02F6198700F55105252D070726360292
:10CEC000AD198600AD591D430526360707273F02D9
:10CED000F6198700F55100BF401C2028C5D3F0BDCE
:10CEE000F0B585B0EF4805690020EF49C86300261A
:10CEF0003FE014207043ED49096844180120B04018
:10CF0000EB4909680840002831D0E068C043684018
:10CF100021680840074639462046FFF7A1FFE1484F
:10CF2000006968400390039800280ED003980543D9
:10CF3000E068C0436840216808400090204600999E
:10CF4000FFF78EFF0098074300BFA068A843384052
:10CF50000190606828403840029001990298084387
:10CF6000002803D0226901990298904700BF701CE5
:10CF7000C6B2D04800788642BBDB05B0F0BD10B524
:10CF80000146002029E014224A43C84B1B689A58E6
:10CF9000012383401A40002A1ED0052212070723CE
:10CFA0001B02D2188300D25803231B049A43052383
:10CFB0001B07072424021B1984001A51052212079B
:10CFC00007231B02D2188300D25805231B0707240E
:10CFD00024021B1984001A51401C2028D3D310BDF1
:10CFE00070B505460C46002C01D1072070BD2046C7
:10CFF0008107890F002901D1012100E000210029CA
:10D0000001D10720F2E7A9480460AB480570002071
:10D01000A8490870A6490860A74800781422504320
:10D020000146A248006801F0ECF90020C043A34982
:10D030008860062001218140A14A116000BF0121C2
:10D0400000F0F9F80620012181409E4A116000BFDE
:10D050000020CBE7F8B504460D4616461F46934818
:10D060000068002801D10820F8BD002F01D1072059
:10D07000FAE79048007890490978884201DB04205B
:10D08000F2E7284630438B49097814225143874AF6
:10D090001268505087480078142148438349096832
:10D0A0004018456083480078142148437F49096847
:10D0B000401886607F480078142148437B490968FE
:10D0C000401807617B48007820707A480078401C3F
:10D0D000784908702078FFF752FF0020C4E7F0B5C8
:10D0E000024672480068002801D10820F0BD71484E
:10D0F0000078824201DB0720F8E700206A4BD86302
:10D10000684804696A480068002802D158066B4BD9
:10D11000586001209040664B1B681843644B1860B0
:10D12000002314205043614D2D684019C360002135
:10D1300042E001238B401846142353435B4D2D6876
:10D14000EB580340002B36D025460540002D02D079
:10D1500003231B040EE001235B0414255543534EA7
:10D160003668AD19ED680543142656434F4F3F68A6
:10D17000F619F56005252D0707263602AD198E0034
:10D18000AD5903263604B5430526360707273F0267
:10D19000F6198F00F55105252D0707263602AD1922
:10D1A0008E00AD591D430526360707273F02F619A5
:10D1B0008F00F55100BF491C2029BAD3002095E704
:10D1C00010B5044639480068002801D1082010BD78
:10D1D00038480078844201DB0720F8E72046FFF753
:10D1E000CEFE0120A04032490968814330480160E9
:10D1F0000068002803D10120C00730498860002062
:10D20000E5E710B5024629480068002801D108204A
:10D2100010BD28480078824201DB0720F8E714207F
:10D220005043224C246803191E4800691C682040A2
:10D2300008600020ECE710B5002819DA224A03073D
:10D240001B0F083B9B089B00D2588307DC0EFF2373
:10D25000A3409A438B071B0E8407E40EA3401A4396
:10D26000194B0407240F083CA408A4001A5118E025
:10D27000144A03231B02D21883089B00D258830749
:10D28000DC0EFF23A3409A438B071B0E8407E40E9A
:10D29000A3401A430B4B032424021B198408A40047
:10D2A0001A5110BD00050050406100407028002058
:10D2B000682800206D2800206C28002000630040B2
:10D2C00080E200E000E100E01CED00E010B5002885
:10D2D00019DAFB4A03071B0F083B9B089B00D25837
:10D2E0008307DC0EFF23A3409A438B071B0E8407A2
:10D2F000E40EA3401A43F24B0407240F083CA40891
:10D30000A4001A5118E0EF4A03231B02D218830825
:10D310009B00D2588307DC0EFF23A3409A438B0760
:10D320001B0E8407E40EA3401A43E64B0324240299
:10D330001B198408A4001A5110BD10B50446E24818
:10D34000846003211120FFF7C1FF10BD10B501203B
:10D350000004DE494860DD4940394860112000F092
:10D36000F5FC112000F0E4FC0120D94908602F20D1
:10D37000FAF73AFF0120D749087010BD10B5112007
:10D3800001218140CF4A8032116000BF012000049A
:10D39000CE498860CD49403988600120CC49486039
:10D3A0002F20FAF721FF0120C94988600020CA49CF
:10D3B00008602F20FAF718FF0020C649087010BD3A
:10D3C000F0B5024624205043C44B1B68C118C44822
:10D3D0000068401C002802D1C148026059E0C048E2
:10D3E0004B68006824246043BC4C246800194068E2
:10D3F000834217D8BA48006824235843B74B1B68A8
:10D40000C01840684B68C31AB548006824246043BC
:10D41000B24C246800194360B14800680862B04803
:10D42000026036E04B68AE4D2C6828680DE024257C
:10D430004543AA4E3668AD196D685B1B044624252A
:10D440004543A64E3668AD19286A451C002D07D005
:10D4500024254543A14E3668AD196D689D42E6D33B
:10D46000451C002D0CD0242545439C4E3668AD1933
:10D470006D68EE1A24254543984F3F68ED196E609C
:10D480004B60086224256543944E3668AD192A62C4
:10D4900000BFF0BDF8B50646914805682C4609E086
:10D4A000B44200D109E02546242060438B49096835
:10D4B0004018046A601C0028F2D100BF601C0028DC
:10D4C00000D1F8BDA54210D1854800682421484309
:10D4D000824909684018006A814908600846006866
:10D4E000401C002801D1FFF749FF242060437B49FD
:10D4F0000968401847682420604378490968401843
:10D50000016A24206843754A126880180162242049
:10D510006843724909684018046A601C00280CD0EE
:10D52000242060436D49096840184068C1192420CF
:10D5300060436A4A12688018416000BFC1E710B5B5
:10D54000112000F0FCFB10BD10B5142000F0F7FB1B
:10D5500010BD70B5044663480068002813D0614AC6
:10D56000E169A06912689047054600BF2E46002E6B
:10D5700007D000BF5CA2FF2164313046FAF7FEFEFF
:10D5800000BF00BF02E0A169E069884770BDF8B53F
:10D5900053480068401C00283AD0002700F008FCDF
:10D5A00004464D480168204600F005FC06464C48FC
:10D5B000056811E0242068434849096844186068F8
:10D5C000B04200D90BE06068361A6068C719256A56
:10D5D0002046FFF7BEFF00BF681C0028EAD100BF4D
:10D5E0004D4800784D490978884209D14B48007868
:10D5F000401CC0B249490870022801D100200870BF
:10D6000046480078800046490F50FFF79DFF00BF55
:10D61000F8BD014640480078404A127890421DD03B
:10D620003D480078401C3C4A1070104600780228A3
:10D6300001D100201070384800788000384A105816
:10D640000860254A086812688018234A106010464E
:10D6500000680002000A1060012070470020086086
:10D6600000BFFAE7FEB51E48006801902D4800781B
:10D67000009076E00098C0002B490968441825788E
:10D680006BE01820684361680F18681CC5B2A07869
:10D69000A84200D100253878022802D0032859D1A9
:10D6A00044E02421786848430C4909684618307DD5
:10D6B000002804D07868FFF7EDFE002030754AE0BE
:10D6C0001CED00E000E100E00015014040130140C6
:10D6D000001001409C280020882800207828002085
:10D6E00084280020982800202E2E5C2E2E5C2E2EC2
:10D6F0005C2E2E5C2E2E5C536F757263655C6170C0
:10D70000705F636F6D6D6F6E5C6170705F74696D7B
:10D7100065722E63000000009428002095280020E8
:10D720008C2800207C280020802800200CE0F8496C
:10D73000096824225143F74A1268881800210175AC
:10D74000F34A016A116000BFF1480068401C0028DC
:10D75000EDD100E000BF00BF00BF6078A84290D1CB
:10D7600000BF0098411EC9B20091002882D1E8484C
:10D7700001680198814201D00120FEBD0020FCE734
:10D78000F0B50346002426E0E14E366824277E43A8
:10D79000E04F3F68F01946689E4203D94668F61A82
:10D7A00046601DE046689B1B4668341900264660AB
:10D7B0000675D74E3568D64F066A3E600669002E5C
:10D7C00008D00E193602360A86600669C6601668E9
:10D7D0000662156000BFCE480068401C0028D3D107
:10D7E00000BFF0BDFEB50746C94800680290CA48B0
:10D7F000007801906BE00198C000C849096845189D
:10D800005DE0781C002807D03E4624207043C149C3
:10D8100009684418276A23E02978182359436A685D
:10D8200050182978491C29702978AA78914201D189
:10D8300000212970466824217143B64A12688C1869
:10D840000178012902D1217D002900D037E08168CB
:10D85000A160C168E160016921614169E16100BFC6
:10D86000AF49A0680968401A0002000AAD49884221
:10D8700008D2AB49A068096800F09DFAE168401839
:10D88000606011E0A648A168006800F094FA00907A
:10D89000E1680098814204D9E1680098081A606044
:10D8A00001E00020606000BF0020A060E060012077
:10D8B0002075801E20623046FFF782FD00BF781C75
:10D8C00000289ED12878697888429AD100BF0198B3
:10D8D000411EC9B2019100288DD18D48016802987E
:10D8E000814201D00120FEBD0020FCE7FEB5884842
:10D8F0000068401C002834D0854800682421484333
:10D90000844909684018456800F052FA019084483B
:10D9100004682146019800F04EFAC61C824800783F
:10D92000002801D1FFF712FDAE4201D2284600E0E7
:10D93000304604192402240A20467C49086000BFAE
:10D9400000F036FA00900199009800F034FAC71CF4
:10D950002046019900F02FFA874201D9FFF7EFFD29
:10D9600001E0FFF70BFDFEBDFEB50020C0430190B6
:10D970006B480468664807686846FFF74AFE054634
:10D98000FFF770FE0646002D05D001AA214600983B
:10D99000FFF7F6FE01260198FFF724FF002800D0CC
:10D9A0000126002E02D03846FFF7A0FFFEBD4170D1
:10D9B000704770B502460B465078411C90788842FB
:10D9C00000D100211078884201D1002070BD19607B
:10D9D00050781826704355682C182046F6E7FFB596
:10D9E00081B005460E461746E9004C4A1268881871
:10D9F0006946FFF7DEFF0446002C02D1042005B083
:10DA0000F0BD01202070666000F0D2F9A060E760F0
:10DA1000049820610A986061E900404A12688818F9
:10DA20000099FFF7C4FFFFF78FFD0020E7E7F8B587
:10DA300004460E46E100394A126888186946FFF725
:10DA4000B8FF0546002D01D10420F8BD0220287042
:10DA50006E60E100314A126888180099FFF7A7FF4D
:10DA6000FFF772FD0020F0E738B50446E1002B4ACD
:10DA7000126888186946FFF79CFF0546002D01D102
:10DA8000042038BD03202870001F6860E100234A8D
:10DA9000126888180099FFF78AFFFFF755FD0020EC
:10DAA000EFE710B5002022490860002120484160BE
:10DAB0008160C16000201E49403908604860FFF75E
:10DAC00066FD10BD10B5FFF74FFF10BDFFB581B06B
:10DAD0000E4617461C4620468107890F002901D1B2
