:020000040000FA
:1000000070100020650100007F01000081010000E8
:1000100000000000000000000000000000000000E0
:10002000000000000000000000000000830100004C
:1000300000000000000000008501000087010000B2
:100040008901000089010000890100008901000088
:100050008901000000000000890100008901000002
:10006000890100006D0200009D020000890100006E
:100070008901000089010000890100008901000058
:100080008901000089010000890100008901000048
:100090008901000089010000890100008901000038
:1000A000890100008901000000000000000000003C
:1000B0000000000000000000000000000000000040
:1000C00000F002F800F03EF80CA030C80838241800
:1000D0002D18A246671EAB4654465D46AC4201D180
:1000E00000F030F87E460F3E0FCCB6460126334274
:1000F00000D0FB1AA246AB4633431847D005000098
:10010000F0050000103A02D378C878C1FAD8520737
:1001100001D330C830C101D504680C6070470000BD
:100120000023002400250026103A01D378C1FBD813
:10013000520700D330C100D50B6070471FB51FBDFB
:1001400010B510BD00F03BF81146FFF7F7FF00F0C7
:100150008BF900F053F803B4FFF7F2FF03BC00F093
:1001600057F8000003210C4802680A4302600B485C
:1001700002680A4302600A4880470A480047FEE7CF
:10018000FEE7FEE7FEE7FEE7FEE700000648074958
:10019000074A084B70470000240500405405004002
:1001A00035020000C1000000700000207010002027
:1001B000700800207008002070477047704775462F
:1001C00000F022F8AE46050069465346C008C0005C
:1001D000854618B020B5FFF7D9FF60BC0027490855
:1001E000B6460026C0C5C0C5C0C5C0C5C0C5C0C5CF
:1001F000C0C5C0C5403D49008D4670470446C04655
:10020000C0462046FFF7A7FF004870470C000020BB
:1002100001491820ABBEFEE726000200704700002F
:10022000C206D20E01219140014A116070470000C0
:1002300000E100E010B500F0E1F8002805D0074823
:1002400007494860C8130749886100F0BBF80028D7
:1002500002D001200449886010BD0000DFFF07C004
:1002600000050040006C004000060040084800689F
:1002700000280CD0074840680121090408400028E4
:1002800005D000200249086001200349C86070477A
:1002900040910040009300400090004024480068D6
:1002A00000281ED023484068012109040840002886
:1002B00017D000201E4908601F4800681F490988A0
:1002C00040181D4908601E481521890140184068E2
:1002D0001A49098840181A4915229201891848605C
:1002E00024E013488068002820D01248406801218B
:1002F00089040840002819D000210D488160104869
:1003000015218901401880680E49098840180C4958
:100310001522920189188860094811464018C06862
:1003200008490988401806498918C86070470000C4
:1003300040A1004000A3004040A500400000002074
:1003400000A000400400002010B5082000F095F83F
:10035000092000F092F80C2000F08FF80021FF2017
:100360000B4A505400BF00BF012303220821002084
:1003700000F08CF8012303220921184600F086F8CA
:10038000012303220C21022000F080F810BD0000A0
:100390000C05005010B5FFF7D7FF00F0B3F800F0E0
:1003A000F9F80A20FFF73CFF0920FFF739FF62B692
:1003B0000120024908600249086010BD00A0004009
:1003C000009000400C48008CC0B2012812D10A48AD
:1003D000808C0007000F00280CD10748806AF021AC
:1003E0000840402806D10448C06A0840002801D1CE
:1003F000012070470020FCE7C00F00F01948008C76
:10040000C0B201282CD11748808C0007000F0028AB
:1004100026D11448806AF0210840002806D11148EE
:10042000C06A0840002801D1012070470D48806A49
:10043000F0210840102806D10A48C06A0840002868
:1004400001D10120F1E70748806AF02108403028F7
:1004500006D10448C06A0840002801D10120E4E721
:100460000020E2E7C00F00F0FFF794FF7D210901B3
:10047000082000F0FFF800BFFEE703210522120765
:1004800007231B02D2188300D150704770B5002B90
:100490000BD101248C40174DEC60174C174D5126A1
:1004A0003601AD198600AC510AE001248C40114D93
:1004B000AC60134C114D51263601AD198600AC517C
:1004C00000BF00BF00BF012485000C4EAD192C6099
:1004D0000C0203252C4315042C431D052C433546E3
:1004E00051263601AD198600AC5100BF00BF00BFD8
:1004F00070BD000000050050031F020000600040B6
:10050000031F01001E481F4908611F481F4951224F
:100510001201891848601A4808301C4989188860F7
:100520001949091D19488018C160194817498918C7
:100530000861154908311548801841611048001DAF
:10054000124989188861104910488018C1610C4807
:100550000C300E49891808620B49091D0B48801898
:1005600041620B48001D0949891888620649083113
:1005700006488018C1623F200249086070470000A9
:1005800040A1004000F501400060004000F0014043
:100590004091004000202A4908600120810708603E
:1005A00000BF274800680028FBD00020254948608C
:1005B00088600420086101202349C8602348244939
:1005C0000880084600881F49403108601F482149BB
:1005D0000880084600881C49152292018918886005
:1005E0001D481E4908800846008817498918486038
:1005F00019481B4908800846008813498918C860B3
:1006000001200004174948604000486040004860ED
:100610004000486000201449486088600420086158
:1006200001201249C86009480F49403108600A4852
:100630000E4989184860012000040D494860704740
:100640000001004000A5004000A00040FC53000055
:100650000000002004000020DC0500000200002053
:100660000600002000A300400095004000900040DC
:1006700000930040082806D10D4A8A180D4B1A80B5
:100680000D4A118013E0092806D1094A8A180B4B3C
:100690001A800B4A11800AE00C2808D1044A8A18F3
:1006A000084B1A60084A15239B01D2185160704705
:1006B000204E000000000020020000200400002066
:1006C000060000204095004000900040EC0600002D
:1006D000000000200C00000004010000F8060000EB
:1006E0000C00002064100000200100000000000049
:0806F000000000000024F400EA
:04000005000000C136
:00000001FF
