:020000040000FA
:10000000B8100020650100007F01000081010000A0
:1000100000000000000000000000000000000000E0
:10002000000000000000000000000000830100004C
:1000300000000000000000008501000087010000B2
:100040008901000089010000890100008901000088
:100050008901000000000000890100008901000002
:100060008901000089010000590200008901000097
:100070008901000089010000890100008901000058
:100080008901000089010000890100008901000048
:100090008901000089010000890100008901000038
:1000A000890100008901000000000000000000003C
:1000B0000000000000000000000000000000000040
:1000C00000F002F800F03EF80CA030C80838241800
:1000D0002D18A246671EAB4654465D46AC4201D180
:1000E00000F030F87E460F3E0FCCB6460126334274
:1000F00000D0FB1AA246AB463343184798060000CF
:10010000B8060000103A02D378C878C1FAD852076E
:1001100001D330C830C101D504680C6070470000BD
:100120000023002400250026103A01D378C1FBD813
:10013000520700D330C100D50B6070471FB51FBDFB
:1001400010B510BD00F03BF81146FFF7F7FF00F0C7
:10015000A1FA00F053F803B4FFF7F2FF03BC00F07C
:1001600057F8000003210C4802680A4302600B485C
:1001700002680A4302600A4880470A480047FEE7CF
:10018000FEE7FEE7FEE7FEE7FEE700000648074958
:10019000074A084B70470000240500405405004002
:1001A00021020000C1000000B8000020B8100020AB
:1001B000B8080020B808002070477047704775469F
:1001C00000F022F8AE46050069465346C008C0005C
:1001D000854618B020B5FFF7D9FF60BC0027490855
:1001E000B6460026C0C5C0C5C0C5C0C5C0C5C0C5CF
:1001F000C0C5C0C5403D49008D4670470446C04655
:10020000C0462046FFF7A7FF00487047580000206F
:1002100001491820ABBEFEE726000200704700002F
:1002200010B500F001FA002805D0074807494860DA
:10023000C8130749886100F0DBF9002802D00120CB
:100240000449886010BD0000DFFF07C000050040C2
:10025000006C00400006004010B5D7480068D74940
:100260000860D7491522920189188860D54800682E
:10027000022804D9D1480068D34989188860002031
:10028000D24908608FE1D248D0490968405C002813
:100290001FD00020CE49CD4A12688854CB48006850
:1002A0008000CC490858002814D1CB49C74A1268AD
:1002B000885C00F041FAC54909688900C74A50586E
:1002C000002100F0E9F90020C04909688900C44A0A
:1002D000505063E1BD4800688000BE490858B749E6
:1002E0000968884214D3BC49B84A1268885C00F097
:1002F00023FAB64909688900B84A5058012100F02C
:10030000CBF90020B14909688900B54A505045E150
:10031000AE48006802287DD2AC4800688000AD4934
:100320000858B0490860A648152189014018A74916
:10033000096889004058AC490860A44800688000FA
:10034000A7490858002831D1A04A12689200A34B4F
:100350009958A14A9D4B1B68D05C0123032200F0F1
:10036000AFF901209949096889009D4A505001213F
:100370009348C164152189014018C06899490968EA
:10038000884208D901219448904A1268805C800014
:10039000964A8018016093480068894915229201A5
:1003A00089188A4A126892008850F7E019E0012102
:1003B0008348C1640146152292018918C8688A4998
:1003C000096800F0C5F900280BD07D49152292017B
:1003D0008918C8688349096800F0BAF9002800D074
:1003E00000E0E4E700BF7648152189014018C068A5
:1003F0007D490968884208D3714815218901401850
:10040000C06878490968884213D36D48152189016D
:10041000401800E021E0C06873490968884211D2A1
:100420006748152189014018C0686E4909688842EB
:1004300008D301216848654A1268805C80006B4AD5
:1004400080180160674800685D491522920189188B
:100450005E4A126892008850A0E05C480068800004
:100460005C4908585F4908605748152189014118BF
:1004700056480068801E800008585B490860534851
:100480000068800056490858002832D14F4A126847
:100490009200524B9958504A4C4B1B68D05C012338
:1004A000032200F00DF901204849096889004C4AEF
:1004B000505001214448C164152189014018C06889
:1004C00048490968884208D9012043493F4A1268CF
:1004D000895C8900454A89180860424801683A48A1
:1004E00015229201821839480068801E8000115040
:1004F00054E019E001213448C164014615229201FB
:100500008918C8683849096800F022F900280BD01A
:100510002D49152292018918C8683249096800F0EE
:1005200017F9002800D000E0E4E700BF26481521B5
:1005300089014018C0682C490968884208D32248BC
:10054000152189014018C06826490968884211D3DD
:100550001D48152189014018C0682349096888424F
:1005600011D21948152189014018C0681D49096830
:10057000884208D301201849144A1268895C89000E
:100580001A4A89180860174801680F481522920115
:1005900082180E480068801E800011500B480068C9
:1005A000401C0A49086009480068064909688842F1
:1005B00000D268E610BD000004000020000000200A
:1005C00000A0004010000020009000401800002013
:1005D00008000020280000200C0000203800002027
:1005E000480000201C000020200000200060004087
:1005F0000C48008CC0B2012812D10A48808C000738
:10060000000F00280CD10748806AF02108404028DC
:1006100006D10448C06A0840002801D10120704773
:100620000020FCE7C00F00F01948008CC0B2012880
:100630002CD11748808C0007000F002826D11448C1
:10064000806AF0210840002806D11148C06A08409D
:10065000002801D1012070470D48806AF021084030
:10066000102806D10A48C06A0840002801D101209C
:10067000F1E70748806AF0210840302806D1044895
:10068000C06A0840002801D10120E4E70020E2E729
:10069000C00F00F000207047002906D100BF0122E2
:1006A0008240064BDA6000BF06E000BF01228240B4
:1006B000024B9A6000BF00BF704700000005005069
:1006C00070B5002B0BD101248C40174DEC60174CFA
:1006D000174D51263601AD198600AC510AE00124B0
:1006E0008C40114DAC60134C114D51263601AD19A3
:1006F0008600AC5100BF00BF00BF012485000C4E36
:10070000AD192C600C0203252C4315042C431D0548
:100710002C43354651263601AD198600AC5100BF39
:1007200000BF00BF70BD000000050050031F0200A5
:1007300000600040031F01000349044A51231B01CC
:10074000D2188300D1507047001F030000600040A2
:1007500002460E48006881420DD88A4209D30C48EF
:1007600000684018094B1B68C01A904201D901204B
:1007700070470020FCE705480068081A904201D83D
:100780008A4201D30120F3E70020F1E714000020A2
:1007900000000020B4070000000000202800000036
:1007A00004010000DC070000280000209010000079
:1007B0002001000000000000000000000000000018
:1007C00000000000000000000A000000000000001F
:0C07D00000000000000000000024F40005
:04000005000000C136
:00000001FF
