:020000040001F9
:1060000040360020FD6101001762010019620100A5
:106010000000000000000000000000000000000080
:106020000000000000000000000000001B620100F2
:1060300000000000000000001D6201001F6201005E
:106040002162010021620100216201002162010040
:1060500021620100000000003165010021620100A1
:106060002162010021620100216201002162010020
:106070002162010021620100216201002162010010
:106080002162010099660100216201002162010084
:10609000C166010021620100C966010021620100A0
:1060A00021620100216201000000000000000000E8
:1060B00000000000000000000000000000000000E0
:1060C00000F002F800F03EF80CA030C808382418A0
:1060D0002D18A246671EAB4654465D46AC4201D120
:1060E00000F030F87E460F3E0FCCB6460126334214
:1060F00000D0FB1AA246AB4633431847A443000026
:10610000C4430000103A02D378C878C1FAD85207C5
:1061100001D330C830C101D504680C60704700005D
:106120000023002400250026103A01D378C1FBD8B3
:10613000520700D330C100D50B6070471FB51FBD9B
:1061400010B510BD00F0C2F91146FFF7F7FF02F0DD
:1061500055FB00F0DAF903B4FFF7F2FF03BC00F0DF
:10616000DFF90000401E00BF00BF00BF00BF00BF3E
:1061700000BF00BF00BF00BF00BF00BF00BFF1D124
:1061800070470000401E00BF00BF00BF00BF00BF3F
:1061900000BF00BF00BF00BF00BF00BF00BFF1D104
:1061A00070470000401E00BF00BF00BF00BF00BF1F
:1061B00000BF00BF00BF00BF00BF00BF00BFF1D1E4
:1061C0007047000070B505460C46164602E00FCC3D
:1061D0000FC5103E102EFAD2082E02D303CC03C5F1
:1061E000083E042E07D301CC01C5361F03E02178F9
:1061F0002970641C6D1C761EF9D270BD03210C48F9
:1062000002680A4302600B4802680A4302600A48B7
:1062100080470A480047FEE7FEE7FEE7FEE7FEE7A5
:10622000FEE7000006480749074A084B7047000090
:10623000240500405405004005670100C1600100CD
:106240004026002040360020402E0020402E002016
:10625000034610B50B439B070FD1042A0DD308C882
:1062600010C9121FA342F8D018BA21BA884201D926
:10627000012010BD0020C04310BD002A03D0D30769
:1062800003D0521C07E0002010BD03780C78401C9E
:10629000491C1B1B07D103780C78401C491C1B1B95
:1062A00001D1921EF1D1184610BDF8B5042A2CD3A5
:1062B000830712D00B78491C0370401C521E8307C1
:1062C0000BD00B78491C0370401C521E830704D06E
:1062D0000B78491C0370401C521E8B079B0F05D086
:1062E000C91ADF002023DE1B08C90AE0FFF76AFF96
:1062F000F8BD1D4608C9FD401C46B4402C4310C0E3
:10630000121F042AF5D2F308C91A521EF0D40B78D2
:10631000491C0370401C521EEAD40B78491C0370C0
:10632000401C012AE4D409780170F8BD01E004C0E2
:10633000091F0429FBD28B0701D50280801CC907E5
:1063400000D00270704700290BD0C30702D0027042
:10635000401C491E022904D3830702D50280801CF9
:10636000891EE3E70022EEE70022DFE700220309AF
:106370008B422CD3030A8B4211D300239C464EE060
:1063800003460B433CD4002243088B4231D303091C
:106390008B421CD3030A8B4201D394463FE0C309CE
:1063A0008B4201D3CB01C01A524183098B4201D3E6
:1063B0008B01C01A524143098B4201D34B01C01AD1
:1063C000524103098B4201D30B01C01A5241C30849
:1063D0008B4201D3CB00C01A524183088B4201D3B8
:1063E0008B00C01A524143088B4201D34B00C01AA4
:1063F0005241411A00D201465241104670475DE0B9
:10640000CA0F00D04942031000D34042534000223B
:106410009C4603098B422DD3030A8B4212D3FC22E4
:10642000890112BA030A8B420CD3890192118B4263
:1064300008D3890192118B4204D389013AD0921179
:1064400000E08909C3098B4201D3CB01C01A524134
:1064500083098B4201D38B01C01A524143098B42FD
:1064600001D34B01C01A524103098B4201D30B01E6
:10647000C01A5241C3088B4201D3CB00C01A52410B
:1064800083088B4201D38B00C01A5241D9D24308F2
:106490008B4201D34B00C01A5241411A00D201462F
:1064A000634652415B10104601D34042002B00D599
:1064B0004942704763465B1000D3404201B500205B
:1064C000C046C04602BD704770477047754600F031
:1064D00023F8AE46050069465346C008C00085460D
:1064E00018B020B5FFF79EFE60BC00274908B646ED
:1064F0000026C0C5C0C5C0C5C0C5C0C5C0C5C0C5D3
:10650000C0C5403D49008D4670470446C046C04660
:106510002046FFF720FE000000487047E0250020DD
:1065200001491820ABBEFEE72600020070470000BC
:10653000F0B585B02648056900202649C8630026C5
:106540003FE0142070432449096844180120B040FA
:10655000224909680840002831D0E068C0436840FB
:106560002168084007463946204602F0F1FF1848E6
:10657000006968400390039800280ED003980543F3
:10658000E068C043684021680840009020460099B8
:1065900002F0DEFF0098074300BFA068A843384020
:1065A00001906068284038400290019902980843A1
:1065B000002803D0226901990298904700BF701CFF
:1065C000C6B2074800788642BBDB05B0F0BD0000CC
:1065D00000050050406100408820002080200020FD
:1065E00085200020C206D20E01219140014A11608F
:1065F0007047000080E200E0C206D20E0121914007
:10660000014A11607047000000E100E0C206D20EAE
:1066100001219140014A11607047000000E200E052
:1066200010B5002819DA1A4A03071B0F083B9B080C
:106630009B00D2588307DC0EFF23A3409A438B07AD
:106640001B0E8407E40EA3401A43114B0407240FCA
:10665000083CA408A4001A5118E00E4A03231B02A8
:10666000D21883089B00D2588307DC0EFF23A34077
:106670009A438B071B0E8407E40EA3401A43054B75
:10668000032424021B198408A4001A5110BD000021
:106690001CED00E000E100E010B5002007490860B3
:1066A0000021064841608160C160002003494039F3
:1066B0000860486003F0E4FA10BD0000401101409A
:1066C00010B503F09DF910BD70B50C4800680028A6
:1066D00011D00A4800688047044600BF2546002DB7
:1066E00007D000BF064AFF213331284600F038F9B1
:1066F00000BF00BF01E001F0C3FE70BD40200020DC
:1067000010A4010010B501F049FF002805D007488A
:1067100007494860C8130749886101F023FF002832
:1067200002D001200449886010BD0000DFFF07C0CF
:1067300000050040006C00400006004030B4744684
:10674000641E2578641CAB4204D3635D5B00E318D0
:1067500030BC18471D46F8E7F8B504460F46164604
:106760000025002030702078002809D032463946B4
:10677000204602F096F80546002D01D02846F8BDC7
:10678000A078002808D03146384600F047FA054680
:10679000002D01D02846F2E7A08800280ADD334604
:1067A0003A460121201D03F0B4FC0546002D01D01E
:1067B0002846E4E7E06800280BD00020E16808568E
:1067C0003246394603F084FC0546002D01D02846A8
:1067D000D5E7208A00280CDD3B4606220221204610
:1067E0001030009603F03FFD0546002D01D02846ED
:1067F000C5E7208B00280CDD3B46072203212046FD
:106800001830009603F02FFD0546002D01D02846D4
:10681000B5E7208C00280CDD3B46152214212046CC
:106820002030009603F01FFD0546002D01D02846BC
:10683000A5E7A06A002809D032463946A06A00F0D0
:1068400079FD0546002D01D0284698E7E06A00282A
:1068500009D032463946E06A01F0EEFF0546002DC8
:1068600001D028468BE73420005D002809DD324640
:106870003946204602F0ACFE0546002D01D02846E0
:106880007DE728467BE701468888002808D088688D
:10689000002805D08868007804221040002801D123
:1068A000072070470020FCE710B590B00621019149
:1068B000194800680090382102A8FFF755FD002113
:1068C0006846017201218172818101A9049101212F
:1068D000018469460991002102A800F0CFF904461D
:1068E00000BF2346002B06D000BF0CA2FF211E31A3
:1068F000184600F035F800BF14210B48FFF734FDAF
:106900000020094908704860087228200882B420D5
:10691000488210B010BD00006CA301007372635C6C
:106920006D61696E2E630000A020002010B508483C
:1069300073DF044600BF2346002B06D000BF05A22C
:10694000FF215531184600F00BF800BF10BD0000C4
:10695000A02000207372635C6D61696E2E6300007D
:1069600000BFBFF34F8F04480449C860BFF34F8F87
:1069700000BF00BFFEE700000400FA0500ED00E0E4
:10698000F8B504460D4616460348076832462946C0
:106990002046B847F8BD0000D4250020F8B50446CD
:1069A00017480078142148431549091D0E5C081F3B
:1069B0000078142148431249091D401880680001DD
:1069C00010490D580E480078142148430C49091D00
:1069D00040184088091F0090097814225143084A42
:1069E000121D89180B69111F097814225143044A9A
:1069F000121D89180846083022463146A847F8BDBE
:106A0000DC230020A824002070B503460C4619485A
:106A10000068002801D1082070BD002A01D107209C
:106A2000FAE7002B01D10720F6E700211CE0242023
:106A30004843104D2D68285C002814D101252420DE
:106A400048430C4E3668355424204843094D2D6880
:106A50004019447024204843064D2D684019826136
:106A600019600020D8E7491C034800788142DEDB2A
:106A70000420D1E75820002054200020FFB581B029
:106A80000E4617461C4620468107890F002901D172
:106A9000012100E00021002902D1072005B0F0BD4E
:106AA000002C01D10720F9E702F026FD26490A98BB
:106AB0000860264806702648046000250CE0002186
:106AC00024206843224A1268115424206843204A33
:106AD0001268801801756D1CB542F0DB24207043EC
:106AE000041903201B4908701B4804601834002552
:106AF0000CE0E900184A1268881800210170417002
:106B000087704460182179430C196D1C032DF0DB4C
:106B10000020C04311490860002011490870114944
:106B200008701420FFF75EFD03211420FFF778FDA5
:106B30001420FFF761FD019802F0B4FC02F0ACFCF8
:106B4000094908600020A9E778200020542000208F
:106B5000582000205C2000206020002064200020BD
:106B6000742000207520002068200020FEB5044617
:106B70000D46164616480068002801D10820FEBDC3
:106B800014480078844201D2052D01D20720F6E78F
:106B9000242060430E490968085C012801D00820C0
:106BA000EDE7242060430A4909684018407801282D
:106BB00001D1284600E00020074603F02BFB3B46AE
:106BC0002A4621460096019003F010F8D7E700000E
:106BD000582000205420002070B504460D4800685D
:106BE000002801D1082070BD0B480078844201D3F1
:106BF0000720F8E72420604306490968085C01285B
:106C000001D00820EFE703F005FB0546214603F01D
:106C100017F8E8E75820002054200020F8B5054672
:106C20000C462078001D1F2801DD0C20F8BD6846A9
:106C300079DF0646002E01D03046F7E7032122789F
:106C4000501C2070A95419212278501C2070A9547E
:106C5000207841196846008803F052FA21784018DC
:106C600020700020E2E7000003460C462246194649
:106C70000148FFF775FE0000EFBEADDEF3B593B03F
:106C80000D460021129111911398002814D01398E9
:106C9000FFF7F9FD0446002C02D0204615B0F0BDE8
:106CA00012AA09A91398FFF757FD0446002C01D03A
:106CB0002046F3E709AE00E00026002D13D0284659
:106CC00002F03CFD0446002C01D02046E6E711AA64
:106CD00001A92846FFF740FD0446002C01D02046BC
:106CE000DCE701AF00E0002710A803793A46017AFB
:106CF000304672DFD2E7000070B505461C222946F7
:106D00001448FFF75FFA002013490870286800282C
:106D10000BD0082211482968FFF7C7FA0F487ADF1D
:106D20000446002C08D0204670BD0C487BDF04468A
:106D3000002C01D02046F7E70020C0430849088016
:106D4000002008490870084A00210848FFF75CFE47
:106D5000EAE70000B82400202820002010200020AE
:106D60001A2000201820002079A1010024200020F2
:106D700010B504462088102806D0112808D0122803
:106D80000ED0502810D107E0204601F0B5FE0CE0EF
:106D9000204601F0CFFE08E0204601F001FF04E0AC
:106DA000204601F09DFE00E000BF00BF10BD10B501
:106DB0000446204600F02CFD2046FFF7D9FF204670
:106DC00001F04CFE10BD000030B585B00446002037
:106DD000C043A081124B0FCB6D460FC521460A312F
:106DE000684663DF0546002D02D0284605B030BD59
:106DF000A17A684681740B490182224604A90120C8
:106E0000A0DF0546002D01D02846EFE7204601F01F
:106E1000A9FD0546002D01D02846E7E70020E5E75B
:106E200070A301000A200000F0B589B005460C46A9
:106E30000026A8891D49884234D00A27089721785E
:106E40006846017561784175217A0177617A4177E9
:106E50006188C182A1880183E1884183002001907B
:106E600002900390049069886846818001218171B5
:106E70000021018108A8039005A80490A88901A910
:106E8000A6DF06460A48864204D1A8890022114698
:106E9000A9DF0646002E04D16846008CB84200D017
:106EA0000C2600E00826304609B0F0BDFFFF0000C8
:106EB0000134000038B500BF0023502222490820C9
:106EC00002F0FCFB054600BF2B46002B06D000BF9E
:106ED0001EA2FF218F311846FFF742FD00BF00BF01
:106EE000002000900090684660DF044600BF234603
:106EF000002B06D000BF15A2FF2196311846FFF7E0
:106F00002FFD00BF144802F0CDFB044600BF23460E
:106F1000002B06D000BF0DA2FF219A311846FFF7C3
:106F20001FFD00BF0D4802F0FDFB044600BF2346D5
:106F3000002B06D000BF05A2FF219E311846FFF7A7
:106F40000FFD00BF38BD00008C2300207372635C0E
:106F50006D61696E2E630000AF6D0100A1990100A3
:106F60007CB50446A1786A460D4801F06FFE0546DF
:106F7000002D13D16178182251430A4A88181C2326
:106F80001822694601F074FF0748807A800007499B
:106F90000A58214668469047054600BF7CBD000060
:106FA0002C20002098250020D425002090A301004B
:106FB000F0B585B00F27584800781421484356494A
:106FC000091D4418E5682078022804D0042823D03D
:106FD00005286FD16FE02069039050480088860231
:106FE0006088801B0490039880190390A088801902
:106FF0004519012189020498884206D20498820822
:107000002846039921DF074605E0FF220132284682
:10701000039921DF074676E0A06800014049401847
:1070200000890490A0680001401840890390A0687E
:1070300000014018406802900298A84205D10399C7
:10704000049848436188884202D0A06802280DD184
:1070500001200007006981B22846FFF787F92F4910
:1070600009884618304620DF074622E00120000745
:10707000006981B22846FFF779F90646012000072A
:10708000006980B27043281A80080190012000072F
:10709000006980B2711C484361884919401A800810
:1070A000009031462046009B019A02F053FB0746B0
:1070B00000BF28E026E001200007006981B22846D1
:1070C000FFF754F90646A08841190120000700691E
:1070D00080B27043081A80080490A0884019618823
:1070E000421801200007006980B2711C4843801AD1
:1070F0008008039031462046039B049A02F02AFB45
:10710000074600E000BF00BF002F02D10120024966
:107110008870384605B0F0BDDC2300200C2000202C
:10712000A824002010B5002406484078002807DD78
:10713000FFF73EFF0446002C02D0112C00D10024A2
:10714000204610BDDC2300200023142141430C4ABB
:1071500053541421414389184B8001231421414386
:1071600089188B600023142141438918CB601421B6
:10717000414389180B611421414389188B80704762
:10718000E0230020FFB581B00646174600242048C2
:1071900040780A2837D01E4800781D4949784018A1
:1071A000C4B20A2C02DB20460A38C4B21420604361
:1071B0001749091D0E54142060434018076114201C
:1071C00060434118029805C8CA6088601420604373
:1071D0000F4A121D801804994180142060438018C2
:1071E0000A9981800025101F8078002805D1FFF7BB
:1071F000DFFE0546112D00D1002505484078401CD2
:107200000349487000E00425284605B0F0BD0000A1
:10721000DC23002010B500200849088008490870C8
:107220000849087048708870002403E02046FFF782
:107230008BFF641C0A2CF9D310BD00000C20002029
:107240000F200020DC230020FEB51E480068401CF3
:10725000002834D01B480068242148431A49096893
:107260004018456802F018F9019018480468214652
:10727000019802F09EFBC61C15480078002801D139
:1072800002F01CF9AE4201D2284600E03046041953
:107290002402240A20460F49086000BF02F0FCF8CF
:1072A00000900199009802F084FBC71C20460199C8
:1072B00002F07FFB874201D902F030FD01E002F0CD
:1072C0001BF9FEBD6420002058200020682000200B
:1072D0007C2000204015014001460888062808DB74
:1072E00008881922D201904205DD0888104A904290
:1072F00001D0072070474888062808DB48881922F3
:10730000D201904205DD4888094A904201D0072009
:10731000F0E70888064A904208D04888904205D095
:1073200008884A88904201DD0720E3E70020E1E772
:10733000FFFF0000F8B506460D4614462078801D74
:107340001F2801D90C20F8BD3046FFF7C5FF0746BE
:10735000002F01D03846F6E705212278501C207016
:10736000A95412212278501C2070A9542278511956
:10737000308802F0C5FE217840182070227851191B
:10738000708802F0BDFE2178401820700020DAE7F6
:1073900010B588B01C2101A8FEF7E6FF002001907F
:1073A0000520C00302900F200004039003216846CB
:1073B00001740D48C1886846418201210175002091
:1073C0000690079001A8FFF797FC044600BF2346EC
:1073D000002B06D000BF05A2FF214B311846FFF756
:1073E000BFFA00BF08B010BD902000207372635C2C
:1073F0006D61696E2E63000038B51F4801F0A0F87A
:10740000002829D11D48007800280AD01C4840696E
:10741000002820D00020009019484169684688471C
:1074200019E018480078002802D11548456801E0A5
:10743000134885680022294613480068FFF796FB29
:107440000446002C07D00E488069002803D00C4861
:107450008169204688470AE009484069002806D02B
:1074600001200090064841696846884700BF002017
:107470000249087038BD00001C2000202820002090
:10748000B8240020182000202420002070B50346D6
:107490000C460820002115E00C254D430B4EAD197C
:1074A000AD7A2540002D0CD0094DAB4205D00C25FE
:1074B0004D43AD192D899D4202D11160002003E09A
:1074C0000520491C0029E7D000BF70BDC825002059
:1074D000FFFF000010B5044601210C2060430A4A5A
:1074E00080188172891E0C20604380180181FF2161
:1074F0000C2060438018C1720C2161438818072159
:10750000FEF730FF10BD0000C825002010B514485C
:107510004068C105C90D002920D00A46103A50B272
:1075200000280DDA0E4B1C330407240F083CA40876
:10753000A4001B598407E40EE3401B069B0F0BE0DD
:10754000084B032424021B198408A4001B59840738
:10755000E40EE3401B069B0FD8B210BD0420FCE7ED
:1075600000ED00E000E100E0FEB504460E46A17823
:107570006A46284801F06AFB0546002D49D160782B
:107580000C21484324494018807A202108402028B3
:1075900001D0022E01D1214F04E0012E01D1204F54
:1075A00000E0204FA0781C2250431F4A811800237E
:1075B0001C226846B8470546002D1AD1022E18D065
:1075C00060780C21484314494018807A2021884370
:1075D00061780C225143104A891888726078182209
:1075E0005043124A81181C2318226846B8470546A2
:1075F00000BF022E0DD020780C2148430C494018C2
:10760000807A80000B490A58214668469047054613
:1076100000BFFEBD2C200020C825002009930100DA
:10762000DD9001004D970100D42400209825002012
:10763000D425002080A30100F8B505460E461B4F57
:1076400000242EE01C20604319494018807EFF284A
:1076500026D13078022814D01C2060434018807E48
:10766000022188431C216143114A891888761C2114
:10767000614389180846103007223146FEF715FE8F
:107680000BE01C2060430A494018807E41084900F5
:107690001C206043064A801881762C70002702E087
:1076A000641C072CCED300BF3846F8BD43800000D1
:1076B000D4240020F8B505460E4617460520009054
:1076C00000241BE0002D06D11C2060430E49401809
:1076D000008BB8420DD0002D0FD01C2161430A4A07
:1076E00089180846103007222946FEF7B1FD002808
:1076F00003D134600020009002E0641C072CE1D329
:1077000000BF0098F8BD0000D424002070B50546E5
:107710000E46134600BF1C46002C06D000BF04A234
:10772000FF2160312046FFF71BF900BF002070BD2C
:107730007372635C6D61696E2E6300001FB501F0AA
:1077400025FB044600BF2346002B06D000BF2BA21A
:10775000FF216F311846FFF703F900BF01200390A6
:1077600003A800F0FBFA044600BF2346002B06D016
:1077700000BF22A2FF2174311846FFF7F1F800BFC5
:10778000062101A80230FEF7EDFD1E216846C180EA
:10779000007A40084000401C694608726846007A3A
:1077A00002218843694608726846007A1C21884392
:1077B0000C30694608726846007A20218843694681
:1077C0000872072168464172102181720E480090AC
:1077D00001216846017169460C4800F035FC0446F9
:1077E00000BF2346002B06D000BF04A2FF21833137
:1077F0001846FFF7B5F800BF1FBD00007372635C49
:107800006D61696E2E6300000D770100012000207C
:10781000F0B589B004460026FF20029000BFFE4864
:107820000078002801D109B0F0BD00BF00BFFB48BF
:107830000068002800D1F6E700BF06A800F080FA33
:10784000054600BF2F46002F06D000BFF44AF54979
:107850003846FFF785F800BF00BF00200190079071
:107860000025201D0490342168468182FF21817605
:1078700000210176002008902088102813D0A088CD
:1078800008AA0221FFF702FE0546002D0BD10C21AC
:1078900008984843E4494018C17A684681760898B8
:1078A000C1B2684641762088142879D006DC1028B9
:1078B0000BD0112879D0132874D1F5E0172872D095
:1078C000182871D05228F7D10AE208AF3A460121B0
:1078D000D648FFF7DBFD00900098002807D1022171
:1078E0000C2238685043D04A8018817201E004208D
:1078F000009000980546002D51D1012611216846BF
:1079000001730898C1B268464176A1880C22089894
:107910005043C54A8018018102210C220898504327
:10792000C14A801881720C2208995143BE4A8818B6
:107930000722A11DFEF7B9FC607B304000280AD069
:10794000607B4008BA49085CFF280AD0607B400889
:10795000085C029005E0B54A02A9A01DFFF7AAFE47
:107960000546002D1BD10298C1B20C220898504345
:10797000AD4A8018C1720C2108984843114640183E
:10798000807A082108430C2208995143A64A891895
:10799000887269460298887606A8FFF7E1FAA9E19D
:1079A00041E002E0A5E1C0E079E10C2108984843FC
:1079B0009D494018807A022188430C22089951433E
:1079C000994A891888720C21089848431146401832
:1079D000807A0821084008280ED10C2108984843D5
:1079E00011464018807A4021084040280FD10021DC
:1079F00006A8FFF7B9FD0AE06846807EFF2806D09A
:107A00006946887E01F0FAF8FF20694688761021E1
:107A10000C2208985043844A801881720126122053
:107A20006946087366E10C21089848437E4940186E
:107A3000C07AFF2823D1E28902A90020FFF73AFE8D
:107A40000546002D1BD10298C1B20C220898504364
:107A5000754A8018C1720C21089848431146401895
:107A6000807A082108430C22089951436E4A8918EC
:107A7000887269460298887606A8FFF771FA0C2189
:107A80000898484368494018C07AFF2806D0182152
:107A90000898484367494018001D0190A0880022BB
:107AA000019981DF054625E1132069460873A08806
:107AB0005A4A121D00217FDF0546002D02D007958E
:107AC000002631E00C210898484357494018807A35
:107AD000042108430C2208995143534A891888729B
:107AE00001260C210898484311464018C07AFF2807
:107AF0001AD000BF1620694608731822089951430E
:107B00004D4A8918081D1421FEF72EFC0C210898F7
:107B1000484345494018807A202108430C2208999F
:107B20005143414A89188872E4E00C21089848437F
:107B30003D494018807A042188430C22089951431A
:107B4000394A891888721420694608730126A07979
:107B5000002802D0A0790790A0E018210898484397
:107B600034494118E07A887018210898484331490F
:107B70004118A07A48701822089951432D4A891853
:107B8000081D142221460C31FEF78FFB0C210898AA
:107B9000484325494018807A4021084040287DD13B
:107BA0000C210898484320494018807A082108434E
:107BB0000C22089951431C4A891888720C21089894
:107BC000484311464018C07AFF2855D10C22089826
:107BD00050430A46811802A8FFF72EFD0546002DE6
:107BE00048D16946029888760298C1B20C2208985A
:107BF00050430D4A8018C172A1891C22029850433B
:107C00000E4A80180183E07A4007C00F00282CD06C
:107C10001C220899514313E038200020D42500206D
:107C2000B4A3010037090000C8250020FFFF0000B1
:107C30003920002098250020B0250020D4240020E1
:107C40003A4A8818102221462031FEF72EFB1C21CB
:107C50000898484335494018807E410849001C2255
:107C600008985043314A80188176012106A8FFF711
:107C70007BFC13E0079511E00C21089848432C4940
:107C80004018807A202108430C2208995143284A41
:107C900089188872002106A8FFF766FC2AE00C21EB
:107CA0000898484322494018807A402108430C2212
:107CB000089951431E4A891888721520694608732D
:107CC0000020079001261B48807A80001A4A11582C
:107CD00006A888470546002D01D01848079009E0FE
:107CE0001448807A8000144A115806A888470790E3
:107CF00000E000BF00BF002E16D003A906A8079A17
:107D0000FEF73EFE6846007B12280DD100BF0C2115
:107D10000898484306494018807A012802D00898FC
:107D2000FFF7D8FB00BF00BF00BF7CE5D4240020D4
:107D3000C8250020D4250020A0A301004180000018
:107D40000146002901D104487047FF20087048709F
:107D50008870C8700020F7E70E8000007FB50646E7
:107D6000002E02D1354804B070BD00240BE000BFE6
:107D700000210C206043324A11500C2060438018CF
:107D8000817200BF641C002CF1D0002403E0204667
:107D9000FFF7A0FB641C002CF9D018212948FEF73E
:107DA000E3FA002406E0204600F028FFFF202649E1
:107DB0000855641C072CF6D35021684681810721A1
:107DC000C18122480290224902A801F0C7F8054665
:107DD000002D30D101201F4908703078002821D1B2
:107DE00000241CE0A1B26A46194800F02FFF0546A6
:107DF000002D0FD11C216143174A881800231C2233
:107E0000694601F035F80546002D07D000201149DC
:107E1000087006E000200F49087002E0641C072C7F
:107E2000E0D308E06A469089D289504381B208487D
:107E300000F054FF0546284695E700000E8000003C
:107E4000D4250020B0250020392000205D7E0100CF
:107E50002C20002038200020D4240020FFB58BB037
:107E60000F461D4600BF6F480068002801D10FB0C3
:107E7000F0BD00BF1498502800D9F8E70120029007
:107E800007A8FFF75DFF064600BF0196019E002E82
:107E900006D000BF644A65490198FEF761FD00BF46
:107EA00000BF00216846017708A801700695149864
:107EB00005900020019017E0019881B203AA5C4868
:107EC00000F0C4FE0646002E0BD1082203A90B9831
:107ED000FEF7BEF9002804D10198C1B26846817747
:107EE00005E00198401C019001980728E4D300BFE9
:107EF0006846807FFF287BD0042F0AD11498502831
:107F000003D1202008A9087066E0402008A9087065
:107F100062E04849681A1C21FEF728FA0446072C3B
:107F20001DD205A809900D98002810D16946887FB8
:107F300001218140404A12681140002901D00121ED
:107F400000E00021002902D10020029044E06946AF
:107F5000887F02F007F9202008A908703CE0374923
:107F6000681A1821FEF702FA0446002C0DD105A864
:107F70000990202108A8017068464477807F1C2161
:107F800048432C494018069026E02D49681A1821CC
:107F9000FEF7ECF90446002C19D1302108A8017035
:107FA000684644770121C1770C2060432549401879
:107FB000807A0221084002280ED06946497F1822A3
:107FC00051431F4A88181821FEF7CEF904E000201B
:107FD0000290402008A90870029801281FD1042FA0
:107FE00007D108A908780321084308A908700FE001
:107FF00015E0032F06D108A908780121084308A934
:10800000087005E008A908780221084308A908704B
:1080100005A8099008A907A80D9AFEF7B1FC00BFB2
:1080200025E70000D4250020B4A30100C30400000C
:108030002C200020D424002034200020982500206B
:10804000B0250020C825002070B505460C4600BFAD
:1080500017480078002801D1164870BD00BF002DD8
:1080600002D11448801DF8E7002C02D11148801D70
:10807000F3E72068002802D10E48801DEDE70E4886
:10808000006800280FD10C49206808600622A11D55
:108090000948001DFEF709F9207907498872002078
:1080A0002870002601E0034E361F3046D5E7000059
:1080B0003820002008800000D42500200146144804
:1080C0000078144A127890421DD011480078401C64
:1080D0000F4A107010460078022801D1002010705D
:1080E0000B48007880000C4A105808600B4A08685A
:1080F00012688018094A1060104600680002000AE1
:108100001060012070470020086000BFFAE70000FF
:1081100074200020752000206C20002068200020A2
:10812000F0B50346002426E0164E366824277E4329
:10813000154F3F68F01946689E4203D94668F61A03
:1081400046601DE046689B1B466834190026466061
:1081500006750C4E35680B4F066A3E600669002EA8
:1081600008D00E193602360A86600669C66016689F
:108170000662156000BF03480068401C0028D3D188
:1081800000BFF0BD64200020582000203EB500BF95
:108190006846007801090901491C00916846007889
:1081A000F02188431030009000BF0D221CA16846CA
:1081B0007CDF044600BF2346002B05D000BF1CA275
:1081C000F1211846FEF7CCFB00BF002078DF044603
:1081D00000BF2346002B05D000BF15A2F42118468E
:1081E000FEF7BEFB00BF0020019002900821684608
:1081F00081805021C18000210181FF219131418185
:1082000001A87ADF044600BF2346002B05D000BF3B
:1082100007A2FE211846FEF7A3FB00BF3EBD0000EB
:108220004E756E636875636B5F4E6F64650000002A
:108230007372635C6D61696E2E63000001460020FD
:108240007047024600207047024600207047000039
:10825000F8B50446002600276078182148431949DC
:10826000085800281FD060780C2148431649401850
:10827000807A40210840402815D160780C2148437D
:1082800011494018807A2021084020280BD06078BE
:10829000182148430B494018061D607818214843AF
:1082A0000849085A87B261780C225143064A891856
:1082B00008893A463146A9DF0546002D00D0034D16
:1082C0002846F8BDB0250020C825002041800000C8
:1082D00070B505460C466178182251430C4A88183F
:1082E00034231822294600F0C3FD0646002E0DD186
:1082F00060781821484306490858401C002805D1D9
:108300000021607818225043014A1150304670BD58
:10831000B0250020F0B587B007460C461420019028
:1083200061780C225143294A8918088901AA02A9B7
:10833000AADF0646002E46D1617818225143244A0E
:108340008918081D69468A8802A9FDF781FF00285F
:1083500012D160780C2148431C494018807A0221D0
:10836000084002282FD0617818225143184A8818F3
:108370001821FDF7F9FF26E06078182148431449D9
:108380000858002801D0134D00E0134D6946898834
:108390006078182250430E4A1150617818225143D8
:1083A0000B4A8918081D69468A8802A9FDF70AFF49
:1083B000607818225043064A811834231822384620
:1083C000A847064600BF002007B0F0BDC825002022
:1083D000B025002009930100DD90010070B505462D
:1083E0002846FFF735FF0446002C02D100BF00BF2E
:1083F0000446204670BD70B505460E4631462846F7
:10840000FFF766FF0446002C02D100BF00BF044600
:10841000204670BD70B505460E4631462846FFF72A
:1084200079FF0446002C02D100BF00BF044620465D
:1084300070BD08B501F08CFD002800D108BDF02109
:108440006846017055214170012302226946A4202B
:1084500001F0E8FD002800D1F0E7012000F075FAF6
:10846000FB21684601700021417001230222694608
:10847000A42001F0D7FD002800D1DFE70120DDE7CF
:10848000F8B529480078002800D1F8BD27480068D1
:10849000002801D1012000E00020054624480068A2
:1084A000002801D1012000E00020064600BF002D79
:1084B00014D1684651DF0446052C01D101250CE09A
:1084C000002C06D000BF1B4A69212046FEF748FA5F
:1084D00003E0164900980968884700BF002E1AD1AA
:1084E00015480088009069461448006861DF04461A
:1084F000052C01D101260DE0002C06D000BF0D4A4D
:1085000080212046FEF72CFA04E00C480068084958
:108510000968884700BF002D02D0002E00D000E07F
:10852000C5E700BF00BFB0E74A2000205020002070
:108530004C20002010A401004820002044200020EE
:1085400001464888064A1288904206DB4888044A59
:108550005288904201DC012070470020FCE70000B7
:10856000102000200C48008CC0B2012812D10A480B
:10857000808C0007000F00280CD10748806AF0218A
:108580000840402806D10448C06A0840002801D1AC
:10859000012070470020FCE7C00F00F01948008C54
:1085A000C0B201282CD11748808C0007000F00288A
:1085B00026D11448806AF0210840002806D11148CD
:1085C000C06A0840002801D1012070470D48806A28
:1085D000F0210840102806D10A48C06A0840002847
:1085E00001D10120F1E70748806AF02108403028D6
:1085F00006D10448C06A0840002801D10120E4E700
:108600000020E2E7C00F00F001468807800F002835
:1086100001D1012070470020FCE70000FEB52B4887
:10862000006801902A480078009040E00098C0005F
:10863000284909684418257835E01820684361689E
:108640000F18681CC5B2A078A84200D10025387860
:10865000022802D0032823D10EE024217868484361
:108660001D4909684618307D002804D0786801F05B
:1086700063FA0020307514E00CE0144909682422E4
:108680005143154A12688818002101750F4A016A82
:10869000116000BF0D480068401C0028EDD100E0CB
:1086A00000BF00BF00BF6078A842C6D100BF0098DD
:1086B000411EC9B200910028B8D104480168019850
:1086C000814201D00120FEBD0020FCE76420002093
:1086D0005C2000206020002058200020FEB50746C6
:1086E0004048006802904048007801906BE0019893
:1086F000C0003E49096845185DE0781C002807D095
:108700003E46242070433A4909684418276A23E00A
:108710002978182359436A6850182978491C297008
:108720002978AA78914201D1002129704668242134
:1087300071432F4A12688C180178012902D1217DDA
:10874000002900D037E08168A160C168E16001695B
:1087500021614169E16100BF2649A0680968401AAA
:108760000002000A2449884208D22249A068096808
:1087700001F01FF9E1684018606011E01D48A16830
:10878000006801F016F90090E1680098814204D970
:10879000E1680098081A606001E00020606000BF96
:1087A0000020A060E06001202075801E206230461D
:1087B00001F054F900BF781C00289ED12878697810
:1087C00088429AD100BF0198411EC9B20191002888
:1087D0008DD1044801680298814201D00120FEBD7C
:1087E0000020FCE7642000205C20002060200020A6
:1087F0005820002068200020FFFF7F000EB5FFF703
:1088000018FE01F091FAFEF755FBFEF797FFFFF710
:10881000BDFC00F023FFFEF747F8FEF7B9FDFEF7B9
:1088200085F800BF684600F0D9FD69460148FEF7AB
:10883000FBFAF7E790200020F8B505460E461446EF
:108840002879801CC7B22078801CC0191F2801DD40
:108850000C20F8BD781CC1B22278501C2070B15495
:10886000FF212278501C2070B15422789119288859
:1088700001F046FC217840182070A88800280EDD01
:10888000A868002801D10720E3E7AA88237898196F
:10889000A968FDF70AFD207829794018207000208A
:1088A000D7E7F7B584B004460F4606980678B01CA3
:1088B0001F2803DC6078801C1F2802DD0C2007B015
:1088C000F0BD1F20801B801E85B20295B11C781858
:1088D00002A97DDF03900398002801D00398EEE7FA
:1088E0002078022808D168460089A84204DC0920C3
:1088F0000190684605890BE0082001906078002807
:1089000004D06078A84201DC657801E068460589FA
:10891000681CC2B23046711CCEB23A543046721C4A
:10892000D6B20199395406980178A81C0818C1B22A
:10893000069801700020C2E70146002070470246F9
:108940000020704702460020704770B5044600259D
:1089500004E07D20C000FDF705FC6D1CA542F8D3A6
:1089600070BD000010B58EB004461C2107A8FDF7AD
:10897000FBFC6846007F02218843811C6846017722
:10898000007F08218843411868460177007F102145
:108990008843411868460177007F202188434118A9
:1089A00068460177002008900A900B900C900D907B
:1089B000A17A68468171284981800020009000BF1B
:1089C0006846007801090901491C68460170007871
:1089D000F021884310306946087000BF00BF684628
:1089E000407801090901491C684641704078F0212E
:1089F000884310306946487000BF68468078062179
:108A00008843811C6846817080780821884301462C
:108A100068468170807810218843014668468170DD
:108A200080784108490068468170142102A8FDF74A
:108A30009BFC01A80290684603900A210182002154
:108A400041820A218182002006902088A31C02AA6C
:108A500007A9A2DF0EB010BD0B20000070B50546BF
:108A60002888382816D006DC102809D011280BD009
:108A7000192828D126E050280BD0522823D10AE00B
:108A8000A888124988811FE00020C0430F498881CF
:108A90001AE019E018E00D4880890D49884210D08D
:108AA0000A49888900221146A9DF044600BF2346EF
:108AB000002B05D000BF07A293211846FDF750FFF9
:108AC00000BF01E000E000BF00BF70BD90200020AB
:108AD000FFFF00007372635C6D61696E2E630000BE
:108AE00010B504460822A11D0248FDF7DEFBFEF783
:108AF00083FC10BD1C20002010B50446A088094945
:108B00000880082221460E310748FDF7CEFB0020E1
:108B1000064908700648C089002801D1FEF76CFCA0
:108B200010BD00001A2000201C200020182000206A
:108B3000B824002070B505460020C0430A490880CB
:108B400000200A4908700A480068FEF745F8044604
:108B5000002C07D007488069002803D005488169A8
:108B60002046884770BD00001A20002018200020F1
:108B700024200020B8240020022802D0032809D194
:108B800000E000BF05490978002902D00021034A0E
:108B9000117000E000BF00BF7047000000200020FF
:108BA00070B50546AC1D20881249C989884220D17C
:108BB000208B02281DD100BF00BFA17EE27E1202E1
:108BC00011430846C107C90F002902D0FEF714FC63
:108BD0000FE009480068FDF7FFFF0646002E07D0AA
:108BE00004488069002803D00248816930468847DC
:108BF00000BF70BDB82400202420002010B504461A
:108C00001C216143104A8918084611300621FDF7DE
:108C1000A9FB1C2161430C4A88181021FDF7A2FB17
:108C2000FF211C206043084A801801741C20604307
:108C3000801881760021C9431C206043801801837D
:108C4000204601F08FFA10BDD42400203CB5034625
:108C500000BF20480078002801D108203CBD00BF9B
:108C6000002B01D10E20F9E7002A01D10E20F5E7F3
:108C70001868002805D118680001174C20580028F2
:108C800001D10720EAE75C68186801940090019C14
:108C900018680001104D40190089484320180190C0
:108CA000009800012C4600194089009C2401641999
:108CB00024896043009C2401641964680019019CA4
:108CC000A04201D80720C9E7019C009854601060B9
:108CD0000020C3E70E200020A8240020F8B5044699
:108CE0000D4600BF27480078002801D10820F8BDB4
:108CF00000BF002C01D10E20F9E72068002805D123
:108D00002068000120490858002801D10720EEE71B
:108D1000206800011C4940184089216809011A4A4D
:108D20008918098948432168090189184968401848
:108D30006168884201D80720D9E76068FFF764FCC2
:108D4000002801D11020D2E723681B010E4FDB1948
:108D500062685B68D01A226812013B46D2181189FA
:108D6000FDF704FB002901D00720C0E700202B46B7
:108D70000246214600900420FEF704FA06463046DB
:108D8000B5E700000E200020A824002070B5FEF7F3
:108D900041FA00202E4908802E484069401C0028D6
:108DA00008D001221207126991B22A4A5069FDF7D0
:108DB000DDFA02E0012000074069801E0121090759
:108DC000096989B248432449086000202349088082
:108DD00000BF0DE000210201214B99500201D21881
:108DE00011810201D21891810201D2185181401CD7
:108DF0000028EFD008201B49087016484069401C25
:108E0000002808D001221207126991B2114A506954
:108E1000FDF7ACFA02E0012000074069401E012185
:108E20000907096989B2484306460120000700691D
:108E300081B23046FDF79AFA054620DF0446002C41
:108E400004D101200849887008490870204670BD87
:108E50000420002000100010082000200C2000201A
:108E6000A82400200F200020DC2300200E2000205A
:108E7000FFB581B00C4615461E4600BF3548007848
:108E8000002802D1082005B0F0BD00BF002C01D1A0
:108E90000E20F8E70198002801D10E20F3E72068A2
:108EA000002805D1206800012B490858002801D16D
:108EB0000720E8E720680001274940184089216819
:108EC0000901254A89180989484321680901891837
:108ED000496840186168884201D80720D3E7002D0F
:108EE00006D0206800011C4940180089A84201DA18
:108EF0000720C8E7A81921680901174A89180989B4
:108F0000884201DD0720BEE70198FFF77DFB0028BE
:108F100004D03046FFF778FB002801D11020B2E7DB
:108F20006068FFF771FB002801D11020ABE7606893
:108F300081192A460198FDF7B8F9009520680001CB
:108F400005490F58002203212046019BB847002005
:108F500099E700000E200020A8240020F8B5044660
:108F60000D4600BF58480078002801D10820F8BD00
:108F700000BF002C01D10E20F9E7002D01D10E20F9
:108F8000F5E72068002801D10E20F0E7A088012134
:108F90000907096989B2884202DCA088102801DA31
:108FA0000720E4E7E088002830D048484069401CAA
:108FB000002808D001221207126991B2434A506971
:108FC000FDF7D4F902E0012000074069401E0121AD
:108FD0000907096989B24843E188A28851433C4A9C
:108FE00012688918884211D3E088A188484301217A
:108FF0000907096989B288420ADDA188012212079E
:10900000126990B2FDF7BCF9002901D00720AEE744
:1090100020798007800F002801D00720A7E72D487E
:109020000088012801D10420A1E72A48008828608F
:10903000274800686860274909880901264A891875
:109040006868486023490988090120685050A08851
:1090500020490988090189180881E0881D49098883
:109060000901891848810027A688E1884E4300BF7E
:10907000781C87B201200007006980B2B04205D297
:1090800001200007006980B2361A00E000260120A6
:109090000007006980B20E49096840180C49086051
:1090A00001200007006980B2B042E1D90948008878
:1090B000000109494018878106480088401C05497D
:1090C0000880002053E700000E2000200010001050
:1090D0000820002004200020A8240020F8B5044621
:1090E0000E4615461F4600BF2F480078002801D1C4
:1090F0000820F8BD00BF002E01D10E20F9E7002C9A
:1091000001D10E20F5E72068002805D12068000174
:1091100026490858002801D10720EAE72068000105
:1091200022494018408921680901204A8918098983
:1091300048432168090189184968401861688842D4
:1091400001D80720D5E7002D06D020680001174977
:1091500040180089A84201DA0720CAE7E819216807
:109160000901124A89180989884201DD0720C0E7F0
:109170003046FFF749FA002804D03846FFF744FA92
:10918000002801D11020B4E76068FFF73DFA0028FD
:1091900001D11020ADE72B46324621460220009730
:1091A000FDF7F0FFA5E700000E200020A824002016
:1091B000FEB5054600265048807801287ED1002063
:1091C0004D4988704D480078082811D1022D03D1EF
:1091D00000204A49087002E0002049490870FDF764
:1091E000A1FF0646002E02D03046FDF7D7FBFEBD9C
:1091F000022D02D0032D79D174E03F48007814216C
:1092000048433D49091D44183E480088401C3D49DB
:1092100008802078022807D10846008880026188EB
:10922000884201DB012000E0002007462078052865
:1092300005D132480078072801D1012000E0002044
:1092400002902078042805D12C480078072801D105
:10925000012000E000200190207804280BD129484B
:10926000008880026188884205DB24480078002855
:1092700001D1012000E0002000900298002807D1D1
:109280000198002804D10098002801D1002F1FD098
:1092900000201A4908703046FDF780FB164908780F
:1092A000FDF752FF00201749088013484078401E00
:1092B0001149487008460078401C00E019E0087029
:1092C000084600780A2803DB084600780A38087048
:1092D000FDF728FF0646002E02D03046FDF75EFB64
:1092E00005E003E00D20FDF759FB00E000BF00BFE3
:1092F00000BF00BF7BE70000DC2300200F20002020
:109300000E2000200C200020F8B504460E4615461D
:109310001F4600BF2F480078002801D10820F8BD63
:1093200000BF002E01D10E20F9E7002C01D10E2044
:10933000F5E72068002805D1206800012649085873
:10934000002801D10720EAE72068000122494018DF
:10935000408921680901204A891809894843216800
:1093600009018918496840186168884201D80720B6
:10937000D5E7002D06D02068000117494018008964
:10938000A84201DA0720CAE7E81921680901124A50
:1093900089180989884201DD0720C0E73046FFF7B8
:1093A00033F9002804D03846FFF72EF9002801D100
:1093B0001020B4E76068FFF727F9002801D11020DA
:1093C000ADE72B463246214605200097FDF7DAFE31
:1093D000A5E700000E200020A82400201CB50446AC
:1093E0000120FFF7B2FA00206946087001231A46EF
:1093F000A42000F017FE002800D11CBD0120FFF7BB
:10940000A4FA012306226946A52000F00BFE0028DD
:1094100000D1F2E7684600782070684640786070B6
:109420006846807860806846C078A0806846007989
:10943000E080684640790221084040100121484000
:109440002072684640790840484060726088800415
:10945000000C6080A0888004000CA080E08880045C
:10946000000CE0806188684640790C221040801032
:1094700001436180A1886846407930221040001184
:109480000143A180E08869464979C02211408911D1
:109490000843E0800120B0E70148406870470000C1
:1094A0000015014010B504460348846003211120D3
:1094B000FDF7B6F810BD00000015014010B5012001
:1094C00000040A4948600949403948601120FDF705
:1094D00089F81120FDF790F80120054908602F2038
:1094E000FCF760FE01200349087010BD40130140E5
:1094F000001001407C20002010B511200121814086
:109500000E4A116000BF012000040D4988600C491B
:109510004039886001200B4948602F20FCF742FE4B
:109520000120084988600020074908602F20FCF7C7
:1095300039FE00200549087010BD000080E100E000
:109540004013014000100140682000207C200020D2
:10955000F0B502460C46002037E00123834019464F
:1095600023460B40002B2FD0D5680D40002D05D190
:1095700001235B04D5680D43D56004E003231B047D
:10958000D5688D43D56005252D0707263602AD1910
:109590008600AD5903263604B5430526360707274E
:1095A0003F02F6198700F55105252D0707263602DB
:1095B000AD198600AD591D430526360707273F0222
:1095C000F6198700F55100BF401C2028C5D3F0BD17
:1095D000FEB507460E461446386B002801D1072019
:1095E000FEBD0020019032E0396B0C2201985043FF
:1095F0000D182879801CC0B200900098401CC1B2A0
:109600002278501C2070B15416212278501C2070F2
:10961000B15422789119288800F072FD2178401801
:109620002070A88800280EDDA868002801D1072036
:10963000D6E7AA8823789819A968FCF736FE20781F
:109640002979401820700198401CC0B20190342044
:10965000C15D01988142C7DC0020C1E710B5084810
:10966000FDF7B2FB044600BF2346002B06D000BF27
:1096700004A2FF2135311846FDF772F900BF10BD75
:10968000902000207372635C6D61696E2E63000030
:1096900070B506460C46154629462046FDF7E4FA05
:1096A00070BD00000146002901D10E20704702481C
:1096B00001600020FAE700004C200020FFB581B0D7
:1096C0000C4616461F46002C02D1072005B0F0BDFF
:1096D00020468107890F002901D1012100E00021E6
:1096E000002901D10720F1E70948046009480680F4
:1096F000094807600949019810DF0546002D01D08F
:109700002846E3E7012006490870162026DFDDE73A
:109710004420002048200020402000209196010095
:109720004A2000200146002901D10E20704702483E
:1097300001600020FAE700005020002001468888E0
:10974000002801DD072070470020FCE710B5044623
:10975000002010BDFFB583B004460F461546032612
:109760008D48007800280BD1002D06D106980028DE
:1097700003D102208849087002E001208649087060
:10978000854800780300FCF7D9FF07FD05314E84BA
:10979000BAD7FD0081484069401C002808D001224A
:1097A0001207126991B27D4A5069FCF7DFFD02E0B1
:1097B000012000074069401E01210907096989B29B
:1097C000484302900120000700690004820C012038
:1097D0000007006980B278430146029821DF0646FF
:1097E000002E02D102206C490870D0E0384620DFFC
:1097F0000646002E16D1002D11D1069800280AD158
:109800002078042803D10720634908700AE0052066
:109810006149087006E004205F49087002E00320F7
:109820005D490870B3E05D484069401C002808D0DD
:1098300001221207126991B2584A5069FCF796FD4D
:1098400002E0012000074069401E01210907096963
:1098500089B24843012109070290096989B2794315
:1098600008462A46029921DF0646002E10D10698A6
:1098700000280AD12078042803D106204649087020
:1098800006E005204449087002E0042042490870BF
:109890007DE042484069401C002808D001221207A0
:1098A000126991B23D4A5069FCF760FD02E0012067
:1098B00000074069401E01210907096989B2484330
:1098C000A900401861884018012109070290096920
:1098D00089B27943AA00891862888818069A029981
:1098E00021DF0646002E09D12078042803D1062066
:1098F0002949087002E005202749087047E0012047
:109900000007006980B27843AB00C01802906088FD
:1099100082082169029821DF0646002E0BD1002D16
:1099200006D10698002803D107201B49087002E0E1
:109930000620194908702AE018484069401C002890
:1099400008D001221207126991B2144A5069FCF73B
:109950000DFD02E0012000074069401E01210907BA
:10996000096989B24843019001200007006981B26A
:109970000198FCF7FBFC029020DF0646002E04D184
:10998000072000E002E00449087000E000BF00BFCB
:10999000304607B0F0BD00000F200020001000107E
:1099A00010B504462046FFF703FC2046FFF7E4F815
:1099B00010BD0246501A0002000A704770B50446F6
:1099C0000D480068002813D00B4AE169A0691268AD
:1099D0009047054600BF2E46002E07D000BF074A1D
:1099E000FF2164313046FCF7BBFF00BF00BF02E03F
:1099F000A169E069884770BD782000205CA401005F
:109A0000FEB50020C04301900F4804680F48076866
:109A10006846FEF753FB0546FEF700FE0646002D9E
:109A200005D001AA21460098FEF77AFB012601988D
:109A3000FEF754FE002800D00126002E02D0384642
:109A4000FDF702FCFEBD000068200020642000201D
:109A500010B51420FCF7DAFD10BD0000F0B5024689
:109A600024205043324B1B68C11832480068401C08
:109A7000002802D12F48026059E02E484B68006848
:109A8000242460432A4C246800194068834217D874
:109A90002848006824235843254B1B68C018406899
:109AA0004B68C31A2348006824246043204C246870
:109AB000001943601F48006808621E48026036E0D3
:109AC0004B681C4D2C6828680DE024254543184E32
:109AD0003668AD196D685B1B044624254543144E5A
:109AE0003668AD19286A451C002D07D0242545434A
:109AF0000F4E3668AD196D689D42E6D3451C002DAA
:109B00000CD0242545430A4E3668AD196D68EE1A0F
:109B100024254543064F3F68ED196E604B6008628F
:109B200024256543024E3668AD192A6200BFF0BD98
:109B30005820002064200020F8B506462948056812
:109B40002C4609E0B44200D109E0254624206043B8
:109B5000254909684018046A601C0028F2D100BF3A
:109B6000601C002800D1F8BDA54210D11D48006836
:109B7000242148431C4909684018006A19490860B3
:109B800008460068401C002801D1FFF7B5FC2420DE
:109B9000604315490968401847682420604312490A
:109BA00009684018016A242068430F4A1268801827
:109BB0000162242068430C4909684018046A601C4B
:109BC00000280CD0242060430749096840184068E9
:109BD000C11924206043044A12688018416000BF04
:109BE000C1E700006420002058200020FFB581B0AC
:109BF00005460E461746E900104A1268881869465D
:109C000000F019FB0446002C02D1042005B0F0BD81
:109C1000012020706660FFF73FFCA060E7600498B9
:109C200020610A986061E900044A12688818009966
:109C300000F017FBFFF70CFF0020E7E76020002093
:109C4000F8B504460E46E1000C4A126888186946C9
:109C500000F0F1FA0546002D01D10420F8BD0220E4
:109C600028706E60E100054A12688818009900F0BB
:109C7000F8FAFFF7EDFE0020F0E70000602000207A
:109C8000F8B520480068401C00283AD00027FFF7AC
:109C900003FC04461C4801682046FFF78AFE06467E
:109CA0001848056811E024206843184909684418D9
:109CB0006068B04200D90BE06068361A6068C71966
:109CC000256A2046FFF77AFE00BF681C0028EAD10B
:109CD00000BF0F4800780F490978884209D10D4824
:109CE0000078401CC0B20B490870022801D1002046
:109CF000087008480078800007490F50FFF7A8FE59
:109D000000BFF8BD642000206820002058200020FB
:109D100074200020752000206C20002010B5112038
:109D2000FCF774FC10BD000038B500BF00200A4BE2
:109D3000062205210090FCF7A1FE044600BF234641
:109D4000002B05D000BF05A2DD211846FCF708FE58
:109D500000BF00BF38BD0000B42000207372635CF8
:109D60006D61696E2E63000070B500BF0120400375
:109D70002149886000BF00BF4010886000BF0420F8
:109D8000FCF700FA1C4800698004C00F002807D0C7
:109D900019480069C004C00F002801D0012428E040
:109DA00015480069C004C00F002821D000241225E6
:109DB00019E000BF012000030F49C86000BF042064
:109DC000FCF7E0F900BF012000030B49886000BFE9
:109DD0000420FCF7D7F9084800698004C00F002868
:109DE00001D0012403E028466D1E0028E1D100E0E7
:109DF0000024204670BD00000005005070B50646E6
:109E0000012400BF60032949886100BF80251FE04D
:109E100000BF012000032549C86000BF0420FCF7F3
:109E2000B1F930462840002805D000BF012040038A
:109E30001E49886005E000BF012040031B49C8603F
:109E400000BF00F02FF9002801D1002402E06D08C6
:109E5000002DDDD100BF00BF012000031349C86001
:109E600000BF0420FCF78EF900BF012040030F491A
:109E7000C86100BF0420FCF785F900F013F9044025
:109E80000A480069400B01214840044000BF080314
:109E90000649C86000BF0420FCF774F900BF012028
:109EA00040030249886100BF204670BD0005005094
:109EB000F8B505460E4600270120009000BF40037C
:109EC0002249C86100BF802418E000F0EBF80028A8
:109ED00001D1009014E01D4800698004C00F0028E3
:109EE00002D038462043074600BF0120000317492F
:109EF000C86000BF0420FCF745F96408002CE4D1D9
:109F000000BF00BF012040031049886100BF2F70CF
:109F1000002E02D000BFC86005E000BF0120400352
:109F20000A49886000BF0420FCF72CF900F0BAF859
:109F3000002800D1009000BF012000030349C86041
:109F400000BF0420FCF71EF90098F8BD0005005082
:109F500010B500BF10480521090707221202891811
:109F6000486300BF00BF052109078918086300BFC7
:109F700000BF012000030949886000BF00BF88615D
:109F800000BF00BF4000886000BF00BF886100BF05
:109F9000FFF7EAFE10BD00000C06000000050050AF
:109FA00010B500BF012040030F49886000BF0420A6
:109FB000FCF7E8F800F076F8002800D110BD00BFEB
:109FC000012040030849C86000BF0420FCF7DAF80C
:109FD00000BF012000030449C86000BF0420FCF753
:109FE000D1F80120EAE700000005005010B500BFDD
:109FF000012040030A49C86000BF0420FCF7C2F8F2
:10A0000000F050F8002800D110BD00BF012040032F
:10A010000349886000BF0420FCF7B4F80120F3E78F
:10A0200000050050FFB581B007460D4616460124D5
:10A03000FFF7B6FF04403846FFF7E0FE0440F8079C
:10A04000C00F002816D00DE0002E05D100212846B3
:10A05000FFF72EFF044004E001212846FFF728FF08
:10A0600004406D1C3046711ECEB200280FD0002C6B
:10A07000EAD10CE004E02878FFF7C0FE04406D1C34
:10A080003046711ECEB2002801D0002CF3D10498C6
:10A09000002801D1002C02D1FFF7A8FF0440204680
:10A0A00005B0F0BD10B500BF01200003074988606E
:10A0B00000BF0420FCF766F800BF04480069C00434
:10A0C000C00F0028F9D0012010BD0000000500508D
:10A0D00030B503461078C01C1F2801DD0C2030BDB0
:10A0E00002241578681C10704C550A241578681CD9
:10A0F00010704C551578681C10704B550020EEE719
:10A1000002460A70FF200002104000124870022030
:10A110007047F8B505460F4616461C466868002885
:10A1200001D10720F8BD2078801C298840181F28FD
:10A1300001DD0C20F6E72878401CC1B22278501CC3
:10A140002070B1542178481C207077542A882378D5
:10A1500098196968FCF7A9F82078297840182070C8
:10A160000020DFE701218140024A12688A43014949
:10A170000A6070473420002038B505462048008822
:10A18000204988423BD020480078401C1E49087076
:10A190001E48007B097888420FDB1D49184800885B
:10A1A00075DF0446002C07D018488069002803D0CA
:10A1B000164881692046884721E00020124908702E
:10A1C0001248007C00280FD03B210D48008876DF24
:10A1D0000446002C07D00D488069002803D00B48A6
:10A1E00081692046884700BF08484069002806D09A
:10A1F00000200090054841696846884700BF38BD87
:10A200001A200020FFFF000018200020B8240020A2
:10A210001020002010B5FDF779F9012802D003289D
:10A2200004D101E0002403E0012401E0022400BF86
:10A2300000BF204610BD70B502460B465078411C49
:10A240009078884200D100211078884201D1002006
:10A2500070BD196050781826704355682C18204638
:10A26000F6E741707047FFB581B0074615460A9E74
:10A27000009602223846049B029900F014F8044626
:10A28000002C02D0204605B0F0BD009610222946D1
:10A290003846049B00F007F80446002C01D0204605
:10A2A000F1E70020EFE7FFB587B006461D46109C9A
:10A2B0000020069020780590002747E0B9007068DC
:10A2C00041180A886846028149884181002203A911
:10A2D00002A865DF04900498002802D004980BB00F
:10A2E000F0BD6846017B099881422ED1069800286E
:10A2F00001D0002000E00220019020786946097B0F
:10A300004118019808181F2801DD0C20E7E706987E
:10A31000002809D12078401C20702278511C089810
:10A320002170A854012006902078421903A902A8A0
:10A3300065DF04900498002801D00498CFE72078C6
:10A340006946097B4018207000BF7F1C3088B842E6
:10A35000B4DC0698002806D021780598401C081A1D
:10A36000C1B2059829540020B9E700000A20020074
:10A370002CCC009C192D4CA0BC5A223FCF0423B3F7
:10A3800045890100158301004982010015840100FF
:10A390003F890100D182010043820100F78301005F
:10A3A00039890100518201003D820100DD830100F5
:10A3B000FFFFFFFF433A5C4B65696C5F76355C419C
:10A3C000524D5C4465766963655C4E6F7264696387
:10A3D0005C6E726635313832325C536F757263650C
:10A3E0005C626C655C6465766963655F6D616E6116
:10A3F0006765725C6465766963655F6D616E6167F0
:10A4000065725F7065726970686572616C2E630059
:10A41000433A5C4B65696C5F76355C41524D5C44F8
:10A4200065766963655C4E6F726469635C6E7266C3
:10A4300035313832325C536F757263655C73645FBB
:10A44000636F6D6D6F6E5C736F6674646576696360
:10A45000655F68616E646C65722E6300433A5C4BA5
:10A4600065696C5F76355C41524D5C446576696325
:10A47000655C4E6F726469635C6E7266353138324A
:10A48000325C536F757263655C6170705F636F6D92
:10A490006D6F6E5C6170705F74696D65722E6300C4
:10A4A000C0A4010000200020900000000461010011
:10A4B00050A5010090200020B0150000206101008F
:10A4C000000000000000000000000000000000008C
:10A4D000000000000000000000000000000000007C
:10A4E000000000000000000000000000000000006C
:10A4F000000000000000000000000000000000005C
:10A50000000000000000000000000000000000004B
:10A51000000000000000000000000000000000003B
:10A52000000000000000000000000000000000002B
:10A53000000000000000000000000000000000001B
:10A540000000000000000000000000000024F400F3
:04000005000160C1D5
:00000001FF
