:020000040001F9
:10D00000F83C0020BDD10100D7D10100D9D10100E9
:10D010000000000000000000000000000000000010
:10D02000000000000000000000000000DBD1010053
:10D030000000000000000000DDD10100DFD1010090
:10D04000E1D10100E1D10100E1D10100E1D1010014
:10D0500081D6010000000000F1D40100E1D10100FF
:10D06000E1D10100E1D10100E1D10100E1D10100F4
:10D07000E1D10100E1D10100E1D10100E1D10100E4
:10D08000E1D1010059D60100E1D10100E1D1010057
:10D0900011D70100E1D1010019D70100E1D1010050
:10D0A000E1D10100E1D1010000000000000000001A
:10D0B0000000000000000000000000000000000070
:10D0C00000F002F800F03EF80CA030C80838241830
:10D0D0002D18A246671EAB4654465D46AC4201D1B0
:10D0E00000F030F87E460F3E0FCCB64601263342A4
:10D0F00000D0FB1AA246AB4633431847184700003E
:10D1000038470000103A02D378C878C1FAD85207DD
:10D1100001D330C830C101D504680C6070470000ED
:10D120000023002400250026103A01D378C1FBD843
:10D13000520700D330C100D50B6070471FB51FBD2B
:10D1400010B510BD00F0A2F91146FFF7F7FF02F08D
:10D15000B5FC00F0BAF903B4FFF7F2FF03BC00F02E
:10D16000BFF90000401E00BF00BF00BF00BF00BFEE
:10D1700000BF00BF00BF00BF00BF00BF00BFF1D1B4
:10D180007047000070B505460C46164602E00FCC0D
:10D190000FC5103E102EFAD2082E02D303CC03C5C1
:10D1A000083E042E07D301CC01C5361F03E02178C9
:10D1B0002970641C6D1C761EF9D270BD03210C48C9
:10D1C00002680A4302600B4802680A4302600A4888
:10D1D00080470A480047FEE7FEE7FEE7FEE7FEE776
:10D1E000FEE7000006480749074A084B7047000061
:10D1F000240500405405004055D70100C1D001006E
:10D20000F82C0020F83C0020F8340020F8340020EE
:10D21000034610B50B439B070FD1042A0DD308C852
:10D2200010C9121FA342F8D018BA21BA884201D9F6
:10D23000012010BD0020C04310BD002A03D0D30739
:10D2400003D0521C07E0002010BD03780C78401C6E
:10D25000491C1B1B07D103780C78401C491C1B1B65
:10D2600001D1921EF1D1184610BDF8B5042A2CD375
:10D27000830712D00B78491C0370401C521E830791
:10D280000BD00B78491C0370401C521E830704D03E
:10D290000B78491C0370401C521E8B079B0F05D056
:10D2A000C91ADF002023DE1B08C90AE0FFF76AFF66
:10D2B000F8BD1D4608C9FD401C46B4402C4310C0B3
:10D2C000121F042AF5D2F308C91A521EF0D40B78A3
:10D2D000491C0370401C521EEAD40B78491C037091
:10D2E000401C012AE4D409780170F8BD01E004C0B3
:10D2F000091F0429FBD28B0701D50280801CC907B6
:10D3000000D00270704700290BD0C30702D0027012
:10D31000401C491E022904D3830702D50280801CC9
:10D32000891EE3E70022EEE70022DFE7002203097F
:10D330008B422CD3030A8B4211D300239C464EE030
:10D3400003460B433CD4002243088B4231D30309EC
:10D350008B421CD3030A8B4201D394463FE0C3099E
:10D360008B4201D3CB01C01A524183098B4201D3B6
:10D370008B01C01A524143098B4201D34B01C01AA1
:10D38000524103098B4201D30B01C01A5241C30819
:10D390008B4201D3CB00C01A524183088B4201D388
:10D3A0008B00C01A524143088B4201D34B00C01A74
:10D3B0005241411A00D201465241104670475DE089
:10D3C000CA0F00D04942031000D34042534000220C
:10D3D0009C4603098B422DD3030A8B4212D3FC22B5
:10D3E000890112BA030A8B420CD3890192118B4234
:10D3F00008D3890192118B4204D389013AD092114A
:10D4000000E08909C3098B4201D3CB01C01A524104
:10D4100083098B4201D38B01C01A524143098B42CD
:10D4200001D34B01C01A524103098B4201D30B01B6
:10D43000C01A5241C3088B4201D3CB00C01A5241DB
:10D4400083088B4201D38B00C01A5241D9D24308C2
:10D450008B4201D34B00C01A5241411A00D20146FF
:10D46000634652415B10104601D34042002B00D569
:10D470004942704763465B1000D3404201B500202B
:10D48000C046C04602BD704770477047754600F001
:10D4900023F8AE46050069465346C008C0008546DD
:10D4A00018B020B5FFF79EFE60BC00274908B646BD
:10D4B0000026C0C5C0C5C0C5C0C5C0C5C0C5C0C5A3
:10D4C000C0C5403D49008D4670470446C046C04631
:10D4D0002046FFF740FE000000487047942C0020D3
:10D4E00001491820ABBEFEE726000200704700008D
:10D4F000F0B585B02648056900202649C863002696
:10D500003FE0142070432449096844180120B040CA
:10D51000224909680840002831D0E068C0436840CB
:10D520002168084007463946204603F095FB184815
:10D53000006968400390039800280ED003980543C3
:10D54000E068C04368402168084000902046009988
:10D5500003F082FB0098074300BFA068A84338404F
:10D560000190606828403840029001990298084371
:10D57000002803D0226901990298904700BF701CCF
:10D58000C6B2074800788642BBDB05B0F0BD00009C
:10D59000000500504061004050280020482800202D
:10D5A0004D280020C206D20E01219140014A11608F
:10D5B0007047000080E200E0C206D20E01219140D7
:10D5C000014A11607047000000E100E0C206D20E7F
:10D5D00001219140014A11607047000000E200E023
:10D5E00010B5002819DA1A4A03071B0F083B9B08DD
:10D5F0009B00D2588307DC0EFF23A3409A438B077E
:10D600001B0E8407E40EA3401A43114B0407240F9A
:10D61000083CA408A4001A5118E00E4A03231B0278
:10D62000D21883089B00D2588307DC0EFF23A34047
:10D630009A438B071B0E8407E40EA3401A43054B45
:10D64000032424021B198408A4001A5110BD0000F1
:10D650001CED00E000E100E010B500200749086083
:10D660000021064841608160C160002003494039C3
:10D670000860486003F070FF10BD000040110140D9
:10D6800010B51B48806A00281FD000201849886206
:10D6900018480078012816D11748006817494860D3
:10D6A0001748006815494039486316480068886380
:10D6B00015480068114988600120144988620220D9
:10D6C00003F040FB00E000BF00BF094840680028AD
:10D6D0000CD000200649486006480078022803D193
:10D6E000032003F02FFB00E000BF00BF10BD0000CF
:10D6F00000410040AC2800209C280020404500400C
:10D70000A0280020A8280020A428002000400040D5
:10D7100010B503F02BFE10BD70B50C480068002852
:10D7200011D00A4800688047044600BF2546002DF6
:10D7300007D000BF064AFF213331284600F034F8F5
:10D7400000BF00BF01E001F0D3FF70BD80280020C2
:10D750005C17020010B502F081F8002805D00748D8
:10D7600007494860C8130749886102F05BF8002840
:10D7700002D001200449886010BD0000DFFF07C00F
:10D7800000050040006C00400006004030B47446C4
:10D79000641E2578641CAB4204D3635D5B00E31810
:10D7A00030BC18471D46F8E70121122003F0B8FAF3
:10D7B00000BFBFF34F8F04480449C860BFF34F8FC9
:10D7C00000BF00BFFEE700000400FA0500ED00E026
:10D7D000F8B504460D461646034807683246294602
:10D7E0002046B847F8BD0000702C0020F8B504466C
:10D7F00017480078142148431549091D0E5C081F7D
:10D800000078142148431249091D4018806800011E
:10D8100010490D580E480078142148430C49091D41
:10D8200040184088091F0090097814225143084A83
:10D83000121D89180B69111F097814225143044ADB
:10D84000121D89180846083022463146A847F8BDFF
:10D85000F42A0020482B002004460D462A46214683
:10D860000148FFF7A1FF0000EFBEADDE70B5044632
:10D870000D46002C01D0002D01D10E2070BD0848AE
:10D880000078002801D10820F8E70648006802283F
:10D8900001D10620F2E72946204603F0A7F8EDE77C
:10D8A00028280020202800200020054908600120A9
:10D8B0000449087000200449086004490860704762
:10D8C0002028002028280020242800201C280020B0
:10D8D00070B505460C46002D01D0002C00D170BD5E
:10D8E00019480078002800D1F9E72088302817D09F
:10D8F00004DC102807D0112821D108E0322814D0E8
:10D9000033281CD116E0A1885C20415318E0622125
:10D910002846FFF707FD0021C9435C2041530FE073
:10D92000211D284602F09EFB0AE0211D284602F038
:10D930004DFA05E0211D284602F0D4FA00E000BFB0
:10D9400000BF00BFCBE7000028280020F8B5044640
:10D950000F46002C01D10E20F8BD1C48007800288D
:10D9600001D10820F8E71A480068002801D10820F2
:10D97000F2E76120005D002801D01120ECE70020D3
:10D9800014490860144908600021602001555C209A
:10D9900007536020005D2E21484305196020005D7B
:10D9A000C0000E49401801882980408868805C21A9
:10D9B000085B2A46012190DF0646002E01D0304642
:10D9C000CAE70121612001550020C5E72828002071
:10D9D00020280020242800201C280020742A002051
:10D9E00010B50446204600F011FF204600F0AAF8CA
:10D9F000204602F097F910BDF8B500BF0023482279
:10DA00002249082003F0BEF9054600BF2E46002E2D
:10DA100006D000BF1EA2FF2159313046FFF7C4FED9
:10DA200000BF00BF0221684601700121417060DF24
:10DA3000044600BF2546002D06D000BF14A2FF21DA
:10DA40005F312846FFF7B0FE00BF144803F08EF99F
:10DA5000044600BF2546002D06D000BF0CA2FF21C2
:10DA600063312846FFF7A0FE00BF0D4803F0BEF962
:10DA7000044600BF2546002D06D000BF04A2FF21AA
:10DA800067312846FFF790FE00BFF8BD58290020F7
:10DA90007372635C6D61696E2E630000E1D90100F1
:10DAA0000D13020038B504466020005D2E21484366
:10DAB00005195F20005D002811D05F22125D521E03
:10DAC000D1B26022125D2E235A4315190C224A430B
:10DAD000AB1DD0180289521C6B461A8002E0688D7B
:10DAE00069460880A88D694648805C21085B6946C4
:10DAF00092DF38BD024600210AE06A204843064B07
:10DB0000C0184030808B904201D108467047491CB4
:10DB10000229F2D30220F9E7A029002002460021C1
:10DB20000AE06A204843064BC0186030007A9042F1
:10DB300001D108467047491C0229F2D30220F9E7B7
:10DB4000A0290020F8B504460025A088FFF7D2FFE1
:10DB50000646022E03D06A207043204945182088CB
:10DB6000372804D0382824D039282DD127E0E08860
:10DB7000FF210631884204D0E088FF21103188421D
:10DB800012D12846623001F0BFFA009000BF009F1A
:10DB9000002F07D000BF12A2FF218A313846FFF7BD
:10DBA00003FE00BF00BF00BF2946204602F040FA36
:10DBB0000BE032462946204602F0F0F905E02946FE
:10DBC000204602F00DFA00E000BF00BF002D03D098
:10DBD00021462846FFF77CFEF8BD0000A029002062
:10DBE0007372635C636C69656E745F68616E646CAC
:10DBF000696E672E6300000070B504460D46164638
:10DC0000012160786A225043154A80186030C17142
:10DC100060786A2148431146401840308583114896
:10DC20000078401C0F49087061786A2251430C4A01
:10DC300089180846623004222146FFF716FB6078F7
:10DC40006A214843064940186030067261786A22AA
:10DC50005143034A881803F03FF8002070BD0000CC
:10DC6000A02900201628002010B5014600204B787E
:10DC70006A246343084C1A1967239B5C002B08D065
:10DC8000064B1B785B1E054C2370002467239C54B5
:10DC900000E0082010BD0000A02900201628002068
:10DCA000F8B504460D46164660786A214843074990
:10DCB00047182878152805D1002E02D1384601F0E2
:10DCC00017FF00E000BF00BF0020F8BDA029002022
:10DCD00070B58AB0304B0FCB06AC0FC42F4906A8E5
:10DCE00063DF044600BF2646002E07D000BF2CA2EB
:10DCF000FF21B8313046FFF757FD00BF00BF264B6C
:10DD000010330FCB02AD0FC52B4902A863DF0446C9
:10DD100000BF2646002E07D000BF21A2FF21BE3142
:10DD20003046FFF741FD00BF00BF002507E000219E
:10DD30006A206843214A80186030C1716D1C022D31
:10DD4000F5D300201E49087000F058FA13480178F6
:10DD5000684681711B4981801B4901A8FFF786FD38
:10DD6000044615480178684681711649891E8180EC
:10DD7000154901A8FFF77AFD044600BF2646002E8C
:10DD800007D000BF06A2FF21DA313046FFF70CFDB5
:10DD900000BF00BF0AB070BD68160200172800203F
:10DDA0007372635C636C69656E745F68616E646CEA
:10DDB000696E672E6300000018280020A02900204B
:10DDC000162800200C20000071E10100F0B585B09C
:10DDD0000F2758480078142148435649091D441814
:10DDE000E5682078022804D0042823D005286FD1C4
:10DDF0006FE0206903905048008886026088801B8D
:10DE00000490039880190390A08880194519012176
:10DE100089020498884206D2049882082846039909
:10DE200029DF074605E0FF2201322846039929DF52
:10DE3000074676E0A0680001404940180089049038
:10DE4000A0680001401840890390A06800014018B4
:10DE5000406802900298A84205D10399049848436B
:10DE60006188884202D0A06802280DD101200007F5
:10DE7000006981B22846FFF759FA2F4909884618E8
:10DE8000304628DF074622E001200007006981B202
:10DE90002846FFF74BFA064601200007006980B2CA
:10DEA0007043281A8008019001200007006980B2A1
:10DEB000711C484361884919401A80080090314616
:10DEC0002046009B019A03F0FBF8074600BF28E0BC
:10DED00026E001200007006981B22846FFF726FAF4
:10DEE0000646A088411901200007006980B27043EE
:10DEF000081A80080490A0884019618842180120FF
:10DF00000007006980B2711C4843801A80080390A2
:10DF100031462046039B049A03F0D2F8074600E0FE
:10DF200000BF00BF002F02D101200249887038468F
:10DF300005B0F0BDF42A002034280020482B002032
:10DF400010B5002406484078002807DDFFF73EFFA3
:10DF50000446002C02D0112C00D10024204610BD14
:10DF6000F42A00200023142141430C4A5354142165
:10DF7000414389184B8001231421414389188B6048
:10DF80000023142141438918CB601421414389188F
:10DF90000B611421414389188B807047F82A0020B7
:10DFA000FFB581B00646174600241F484078042874
:10DFB00036D01D4800781C4949784018C4B2042C5A
:10DFC00001DB201FC4B2142060431749091D0E5401
:10DFD00014206043401807611420604341180298E0
:10DFE00005C8CA608860142060430F4A121D80185B
:10DFF000049941801420604380180A99818000258B
:10E00000101F8078002805D1FFF7E0FE0546112D8E
:10E0100000D1002504484078401C0349487000E0C6
:10E020000425284605B0F0BDF42A002010B50020D4
:10E0300008490880084908700849087048708870C5
:10E04000002403E02046FFF78DFF641C042CF9D365
:10E0500010BD00003428002037280020F42A0020BA
:10E06000FEB51E480068401C002834D01B480068DC
:10E07000242148431A4909684018456802F0D8FC31
:10E080000190184804682146019803F048F9C61C1D
:10E0900015480078002801D102F0D0FCAE4201D230
:10E0A000284600E0304604192402240A20460F497D
:10E0B000086000BF02F0BCFC00900199009803F0DA
:10E0C0002EF9C71C2046019903F029F9874201D98E
:10E0D00003F090FA01E002F0CFFCFEBD64280020BE
:10E0E00058280020682800207C2800204015014086
:10E0F00070B503460C460820002115E00C254D4361
:10E100000B4EAD19AD7A2540002D0CD0094DAB4218
:10E1100005D00C254D43AD192D899D4202D11160CA
:10E12000002003E00520491C0229E7D300BF70BD91
:10E13000582C0020FFFF000010B5044601210C20E0
:10E1400060430A4A80188172891E0C20604380183F
:10E150000181FF210C2060438018C1720C216143B2
:10E1600088180721FFF7DEF810BD0000582C0020AA
:10E17000F8B5044600276088FFF7BCFC06466A2015
:10E1800070431A4945182078002828D100BF21E0A3
:10E190000C220346534322460A3299180A88144B2C
:10E1A0009A4207D18A78134B1B789A4202D1662291
:10E1B000505512E00A880E4B9B1E9A4208D18A786D
:10E1C0000D4B1B789A4203D166225055012704E07B
:10E1D000411CC8B2217A8142DADC00BF00BF002FA7
:10E1E00002D0284601F084FCF8BD0000A0290020E0
:10E1F0000D200000172800201828002070B5FFF718
:10E2000053FB044600BF2546002D07D000BF04A2E3
:10E21000FF21A9312846FFF7C7FA00BF00BF70BD34
:10E220007372635C636C69656E745F68616E646C65
:10E23000696E672E63000000F0B585B004460F4696
:10E24000002001906020005D2E21484305195F20C9
:10E25000005D0C214843A91D401802905F20005D1D
:10E26000401C2979884207D103AB0022204602993D
:10E2700001F0ADFA019029E05F20065D21E02879E8
:10E28000401EB04202D10020009005E0701C0C211D
:10E290004843A91D4018009003AB2046009A0299FC
:10E2A00001F095FA002802D0012001900CE00098BE
:10E2B00002905F20005D401CC1B25F200155701CC0
:10E2C000C6B22879B042DADC00BF00BF019800284E
:10E2D00004D101203870002005B0F0BD0020387056
:10E2E0005C21085B03A993DFF6E70000FEB5044656
:10E2F0000E46A1786A46284801F090FF0546002D99
:10E3000049D160780C21484324494018807A402143
:10E310000840402801D0022E01D1214F04E0012EF7
:10E3200001D1204F00E0204FA078182250431F4A0F
:10E330008118002318226846B8470546002D1AD1D7
:10E34000022E18D060780C21484314494018807A76
:10E350004021884361780C225143104A8918887201
:10E3600060781C225043124A811818231C226846E8
:10E37000B847054600BF022E0DD020780C21484337
:10E380000C494018807A80000B490A58214668469B
:10E390009047054600BFFEBD38280020582C0020BD
:10E3A000D9080200AD060200B9100200582B002067
:10E3B000002C0020702C002088160200F8B50546BD
:10E3C0000E461B4F00242EE01820604319494018C8
:10E3D000C07DFF2826D13078022814D01820604351
:10E3E0004018C07D0221884318216143114A8918D1
:10E3F000C875182161438918084610300722314634
:10E40000FEF733FF0BE0182060430A494018C07D37
:10E410004108490018206043064A8018C1752C70D5
:10E42000002702E0641C072CCED300BF3846F8BD9D
:10E4300043800000582B0020F8B505460E460527FE
:10E4400000240FE018216143094A8918084610305A
:10E4500007222946FEF7DCFE002802D1346000279F
:10E4600002E0641C072CEDD300BF3846F8BD000065
:10E47000582B0020F7B50E4615463078152873D076
:10E4800008DC11280DD012283CD0132859D01428AC
:10E4900068D168E0212868D0222873D02328F7D1DA
:10E4A0007CE004224E480099FEF7DFFE4D480078DC
:10E4B000002804D10121122002F032FC03E00121E6
:10E4C000132002F02DFC70680188464802780098FD
:10E4D000FFF792FB044600BF2746002F05D000BF80
:10E4E00041A2AC213846FFF75FF900BF41480078F0
:10E4F000401C4049087008460078022801DA02F002
:10E50000E7FA58E062213C48FEF70CFF0098FFF75D
:10E51000ABFB044600BF2746002F05D000BF32A248
:10E52000BB213846FFF740F900BF32480078022887
:10E5300001D102F0CDFA2F480078401E2D49087015
:10E5400039E0274800F0E0FD044600BF2746002FD1
:10E5500005D000BF24A2CA213846FFF725F900BF25
:10E5600029E001E026E026E025E000BF2F46002F4D
:10E5700005D000BF1CA2D6213846FFF715F900BF11
:10E5800019E0FFE700BF2F46002F05D000BF16A2FD
:10E59000DA213846FFF708F900BF0CE000BF2F462C
:10E5A000002F05D000BF10A2DE213846FFF7FCF88F
:10E5B00000BF00E000BF00BF2A4631460098FFF7C9
:10E5C0006FFB044600BF2746002F05D000BF06A200
:10E5D000E7213846FFF7E8F800BF0020FEBD000045
:10E5E0000F2800200D2800207372635C6D61696E36
:10E5F0002E63000013280020E62800207FB501F0DC
:10E60000ADFE044600BF2546002D06D000BF2FA258
:10E61000FF2177312846FFF7C7F800BF012000909F
:10E62000684600F0B9FB044600BF2546002D06D021
:10E6300000BF26A2FF217D312846FFF7B5F800BFB5
:10E64000052102A80130FEF76DFE2348019002214A
:10E6500068460172407A41084900491C6846417287
:10E66000407A02218843014668464172407A1C2163
:10E67000884301460C3168464172407A2021884324
:10E6800069464872072101A881711021C171007A81
:10E6900040084000401C01A9087201A8007A02212C
:10E6A0008843801C01A908720C4800F0F3FC044662
:10E6B00000BF2546002D06D000BF04A2FF219331E4
:10E6C0002846FFF771F800BF7FBD00007372635CDE
:10E6D0006D61696E2E63000075E401000E28002054
:10E6E000F8B504460D466020005D2E214843071909
:10E6F000384602F05BF90646002E3CD01E48006802
:10E70000022838D25C20015B1B4800683822504345
:10E710001A4A80184180002D12D000211648006846
:10E7200038225043154A115413490968382251437D
:10E73000124A8918081D2E223946FEF796FD06E07A
:10E7400002210D480068382250430C4A11540A48EF
:10E750000068382148430949401846630648006864
:10E76000401C054908600846006805490968884258
:10E7700001D101F021FDF8BD1C280020842A0020D1
:10E7800020280020F8B504460D466020005D2E21AB
:10E7900048430719384602F009F90646002E2ED0E4
:10E7A0001748006802282AD25C20015B14480068E0
:10E7B00038225043134A80184180012110480068D4
:10E7C000382250430F4A11540D48006838214843FD
:10E7D0001146401845600A480068382148431146F0
:10E7E0004018466306480068401C05490860084612
:10E7F000006805490968884201D101F0DDFCF8BDD7
:10E800001C280020842A002020280020F0B591B088
:10E810000546002600200E9000BFFE480078002824
:10E8200001D111B0F0BD00BF00BFFB480068002857
:10E8300000D1F6E700BF0DA800F0A0FA044600BF23
:10E840002746002F06D000BFF44AF5493846FEF7A8
:10E85000ABFF00BF00BF002009900024281D0B90D3
:10E860002A2168460186FF2108A8817500210175CB
:10E87000002010902888102813D0A88810AA022100
:10E88000FFF736FC0446002C0BD10C2110984843AE
:10E89000E4494018C17A08A881751098C1B208A847
:10E8A0004175288817287DD006DC10280BD0112848
:10E8B00079D0132878D1D2E0182876D01C2875D0CA
:10E8C0005228F7D1F9E110AF3A460121D648FFF7B7
:10E8D0000FFC02900298002807D102210C22386810
:10E8E0005043D04A8018817201E0042002900298BF
:10E8F0000446002C62D10126112108A8017210984B
:10E90000C1B208A84175A9880C2210985043C54A85
:10E910008018018102210C2210985043C14A8018AE
:10E9200081720C2210995143BE4A88180722A91DF2
:10E93000FEF79BFC0FA9A81DFFF77EFD0446002CE7
:10E940003CD10F98C1B20C2210985043B54A8018A0
:10E95000C1720C211098484311464018807A082152
:10E9600008430C2210995143AE4A8918887208A9AD
:10E970000F9888750F9881B201AAAC4801F04EFC3F
:10E980000446002C19D11C2210995143A84A88181A
:10E9900018231C2201A901F053FD9F48807A8000B2
:10E9A000A44904E08EE00AE095E109E18EE10A580D
:10E9B0000DA901A89047044600BF00BF8CE10C21BF
:10E9C0001098484397494018807A022188430C22C6
:10E9D00010995143934A891888720C211098484322
:10E9E00011464018807A0821084008280ED10C21D1
:10E9F0001098484311464018807A802108408028AA
:10EA00000FD100210DA8FFF771FC0AE008A8807D56
:10EA1000FF2806D008A9887D01F0AAFBFF2008A9DD
:10EA200088750C21109848437E494018807A04214B
:10EA30000840042807D101200E907748407A40080A
:10EA400040007549487210210C2210985043754AB5
:10EA5000801881720126122008A908723CE1002664
:10EA60000020069074490791002108911C211098FC
:10EA700048436F49401803900C2110984843694956
:10EA80004018C07A182148436C494018049000206F
:10EA90000590A88803AB002211467FDF0446002CB6
:10EAA00001D009940DE00C21109848435D494018AD
:10EAB000807A042108430C2210995143594A89183D
:10EAC000887209E15448407A40084000524948722F
:10EAD0000C211098484353494018807A04218843F8
:10EAE0000C22109951434F4A89188872142008A9A2
:10EAF0000872012601200E90A879002802D0A8797A
:10EB000009905CE0E8794007C00F002857D008A8BA
:10EB1000807DFF2853D00C2110984843414940186C
:10EB2000807A082108430C22109951433D4A8918E4
:10EB30008872A87A8007C00F00280DD0182110987D
:10EB400048433E494018C07D4108490018221098AA
:10EB500050433A4A8018C1750C21109848433149F6
:10EB60004018C07AFF282AD00C21109848432D491C
:10EB7000085C02281FD00C23109A5A430B46D11868
:10EB800008AA927D18235A432C4BD21810461030F5
:10EB90000722FEF76AFB08A8807D18214843274911
:10EBA0004018C07D0221884308A9897D182251435D
:10EBB000224A8918C87501210DA8FFF797FB8BE041
:10EBC000A8790009012857D1A8790007000F01286A
:10EBD00052D10C211098484312494018807A0821DC
:10EBE0000840082848D110990901154A8918081DBC
:10EBF0000A21FEF799FB162008A9087201200E9041
:10EC00000C211098484307494018807A2021084376
:10EC10000C2217E044280020702C0020BC160200B3
:10EC200088090000582C0020FFFF00003828002031
:10EC3000002C0020981602007C2C0020582B00206D
:10EC4000382C002010995143474A891888720C21AA
:10EC50001098484311464018807A402108430C22FE
:10EC600010995143404A891888724048407A0221DD
:10EC700008433E4948721CE00C21109848433A4929
:10EC80004018807A802108430C2210995143364A5B
:10EC900089188872152008A908723448807A800083
:10ECA000334A11580DA888470446002C01D031483A
:10ECB00009900020099001260EE02C48807A8000FF
:10ECC0002B4A11580DA88847099005E0132008A980
:10ECD0000872012600E000BF00BF002E16D00AA96E
:10ECE0000DA8099AFEF774FD08A8007A12280DD124
:10ECF00000BF0C21109848431B494018807A012816
:10ED000002D01098FFF718FA00BF00BF0E98002835
:10ED100027D01648407A02210840022821D107AAAC
:10ED200020211548FFF7E4F90446002C12D10021F8
:10ED300008A801700798C1B208A841700C21079873
:10ED4000484309494018C17A08A8817000F08EFC38
:10ED5000044605E00548407A022188430349487289
:10ED600000BF00BF5DE50000582C0020702C002083
:10ED7000A816020041800000FFFF000001460029A4
:10ED800001D104487047FF20087048708870C8702F
:10ED90000020F7E70E8000007FB50646002E02D166
:10EDA000354804B070BD00240FE000BF00210C20E6
:10EDB0006043324A11500C206043801841720C208D
:10EDC00060438018817200BF641C002CEDD00024C9
:10EDD00003E02046FFF7B0F9641C022CF9D3202190
:10EDE0002748FEF7A1FA002403E0204601F0C0F90D
:10EDF000641C072CF9D34821684681810721C18111
:10EE000020480290204902A801F090FB0546002D01
:10EE100030D101201D4908703078002821D100240C
:10EE20001CE0A1B26A46184801F0F8F90546002D29
:10EE30000FD118216143164A881800231822694609
:10EE400001F0FEFA0546002D07D000200F4908709A
:10EE500006E000200D49087002E0641C072CE0D396
:10EE600008E06A469089D289504381B2064801F091
:10EE70001DFA0546284694E70E800000702C0020FD
:10EE8000382C002095EE010038280020442800206E
:10EE9000582B0020FFB58FB00F461D4600BF7348AA
:10EEA0000068002801D113B0F0BD00BF18984828B1
:10EEB00000D9F8E7012006900BA8FFF75FFF064690
:10EEC00000BF0596059E002E06D000BF684A69491E
:10EED0000598FEF769FC00BF00BF002108A8017378
:10EEE00001740A95189809900020059017E005987C
:10EEF00081B207AA604801F091F90646002E0BD1B5
:10EF0000082207A90F98FEF783F9002804D1059875
:10EF1000C1B208A8817305E00598401C05900598CA
:10EF20000728E4D300BF08A8807BFF2874D0042FF3
:10EF30000AD11898482803D1202008A9087471E044
:10EF4000402008A908746DE04C49681A1821FEF7A2
:10EF5000EDF90446072C1DD209A80D901198002840
:10EF600010D108A9887B01218140454A12681140CF
:10EF7000002901D0012100E00021002902D1002058
:10EF800006904FE008A9887B02F03AFB202008A9F0
:10EF9000087447E03B49681A1C21FEF7C7F904468C
:10EFA000022C1AD209A80D90202108A801744473DC
:10EFB00000200390344904911C20604331494018DB
:10EFC000009008A8807B182148432C4940180190E4
:10EFD00068460A901820099024E02C48281A040951
:10EFE000022C1AD2302108A8017444730121C17384
:10EFF0000C20604326494018807A022108400228EC
:10F0000010D008A8407B0001204940180021016071
:10F0100041608160C16005E026E00020069040204C
:10F0200008A90874069801281ED1042F06D108A942
:10F03000087C0321084308A908740EE0032F06D1B9
:10F0400008A9087C0121084308A9087405E008A95B
:10F05000087C0221084308A9087409A80D900CA98E
:10F060000BA8119AFEF7B4FB00BF1CE7702C002020
:10F07000BC1602005B05000038280020582B002039
:10F0800040280020002C00207C2C0020382C002060
:10F09000582C002070B505460C4600BF1748007874
:10F0A000002801D1164870BD00BF002D02D11448C0
:10F0B000801DF8E7002C02D11148801DF3E720687D
:10F0C000002802D10E48801DEDE70E480068002898
:10F0D0000FD10C49206808600522611D0948001DF8
:10F0E000FEF7C3F8207907498872002028700026AF
:10F0F00001E0034E361F3046D5E7000044280020CB
:10F1000008800000702C0020F8B5044600BF50486D
:10F110000078002801D14F48F8BD00BF002C02D173
:10F120004C48801DF8E700BF2078012806DA2078D7
:10F130000C21484348490858002801D14548EBE7CD
:10F1400000BF00BF6078022807DA60780C214843CE
:10F1500042494018807A012802D13E480830DBE756
:10F1600000BF3C4D60780C2148433C494018807AF0
:10F1700002210840022868D1A078FF2807D16078D2
:10F180000C21484335494018C07AFF281BD06078CD
:10F190000C21484331494018C07AA07063781C267E
:10F1A00073432F4E9A1963781C2673432C4E9B1978
:10F1B0001946123163780C267343284E9B1918891F
:10F1C00081DF054641E060780C225043234A8118D4
:10F1D0006846FFF7F3F80546002D35D168460178FB
:10F1E00060780C2250431D4A8018C172684600782E
:10F1F000A07020780C21484317494018407AC00776
:10F20000C00F00281CD060780C21484311464018DC
:10F21000807A2021084361780C2251430F4A8918D3
:10F22000887220780C2148430B494018407A02210B
:10F23000084321780C225143074A8918487203E099
:10F24000204600F013FA054600BF284664E7000098
:10F250004428002008800000702C0020582C00203A
:10F26000002C0020F8B5044600BF3E480078002876
:10F2700001D13D48F8BD00BF002C02D13A48801DA5
:10F28000F8E7002902D13848801DF3E70868002814
:10F2900002D13548801DEDE78868002802D1324848
:10F2A000801DE7E700BF2078012806DA20780C25CA
:10F2B00068432E4D2858002801D12B48DAE700BFBB
:10F2C000002200230020009000BF45E000250095AB
:10F2D00000BF12E00C266E43254FF619F67A8642DF
:10F2E0000AD10C266E43F619B67A02273E40022E4A
:10F2F00002D10126009602E06D1C022DEAD300BF68
:10F30000009D002D27D10D7B9D420FD91825454327
:10F31000184EAD19ED7DED07ED0F002D06D1182526
:10F320004543AD199F008E68F5515B1C0D799542E0
:10F3300011D9182545430F4EAD19ED7D02263540F4
:10F34000002D08D1182545430A4EAD1910359700F8
:10F350000E68F551521C401C0728B7D30A710B7375
:10F36000002087E74428002008800000702C00203F
:10F37000582C0020582B0020014614480078144ACD
:10F38000127890421DD011480078401C0F4A10702E
:10F3900010460078022801D1002010700B48007838
:10F3A00080000C4A105808600B4A086812688018E0
:10F3B000094A1060104600680002000A106001202F
:10F3C00070470020086000BFFAE7000074280020A2
:10F3D000752800206C28002068280020F0B503461E
:10F3E000002426E0164E366824277E43154F3F68DA
:10F3F000F01946689E4203D94668F61A46601DE039
:10F4000046689B1B466834190026466006750C4EFC
:10F4100035680B4F066A3E600669002E08D00E194B
:10F420003602360A86600669C6601668066215608E
:10F4300000BF03480068401C0028D3D100BFF0BDC6
:10F44000642800205828002001460020704702460A
:10F45000002070470246002070470000F8B50446BF
:10F4600000260027607800011849085800281CD0A1
:10F4700060780C21484316494018807A8021084062
:10F48000802812D160780C21484311494018807AB5
:10F4900040210840402808D0607800010B494018FE
:10F4A000061D60780001085A87B261780C2251432A
:10F4B000074A8918088903233A463146A9DF0546D9
:10F4C000002D00D0034D2846F8BD0000382C002048
:10F4D000582C00204180000070B505460C4661782C
:10F4E00009010B4A881834231022294600F0A8FF8E
:10F4F0000646002E0AD16078000105490858401CD4
:10F50000002803D161780901014A5050304670BD8E
:10F51000382C0020F0B585B007460C460A20039031
:10F5200061780C225143264A89180889032303AACB
:10F530006946AADF0646002E3FD161780901214ABB
:10F540008918081D69468A89FDF762FE002813D1D3
:10F5500060780C2148431A494018807A02210840FB
:10F5600002282AD060780001164940180021016065
:10F5700041608160C16020E0607800011149085855
:10F58000002801D0104D00E0104D6946888961784F
:10F5900009010C4A5050617809018918081D694613
:10F5A0008A89FDF7EFFD60780001064A811834234F
:10F5B00010223846A847064600BF002005B0F0BD1F
:10F5C000582C0020382C0020D9080200AD0602007B
:10F5D00070B505462846FFF741FF0446002C02D1CE
:10F5E00000BF00BF0446204670BD70B505460E46FC
:10F5F00031462846FFF770FF0446002C02D100BFB9
:10F6000000BF0446204670BD70B505460E46314623
:10F610002846FFF77FFF0446002C02D100BF00BF41
:10F620000446204670BD10B5122000F09BFA13204E
:10F6300000F098FA122000F09FFA132000F09CFAD4
:10F6400010BD000000B585B0142206496846FDF7DC
:10F6500099FD054801F030FC684601F039FC05B021
:10F6600000BD000054160200050E020070B50446ED
:10F6700022780C235A431C4BD218111D62780C239C
:10F680005A431A4BD21810897EDF0546002D29D126
:10F6900020780C21484314494018407A012108433E
:10F6A00021780C225143104A8918487260780C2145
:10F6B00048430E494018807A0421084361780C229F
:10F6C00051430A4A8918887260780C2148431146D0
:10F6D0004018807A2021884361780C225143034AE4
:10F6E00089188872284670BD702C0020582C002084
:10F6F000F8B529480078002800D1F8BD27480068EF
:10F70000002801D1012000E00020054624480068BF
:10F71000002801D1012000E00020064600BF002D96
:10F7200014D1684651DF0446052C01D101250CE0B7
:10F73000002C06D000BF1B4A69212046FEF734F892
:10F7400003E0164900980968884700BF002E1AD1C7
:10F7500015480088009069461448006861DF044637
:10F76000052C01D101260DE0002C06D000BF0D4A6A
:10F7700080212046FEF718F804E00C48006808498C
:10F780000968884700BF002D02D0002E00D000E09D
:10F79000C5E700BF00BFB0E78A28002090280020FE
:10F7A0008C2800205C170200882800208428002074
:10F7B00010B502460B896020805C2E2460438018BF
:10F7C000808D834201DA012010BD0020FCE770B576
:10F7D0000446002A16D10D896020005D2E26704354
:10F7E0000019808D854201D1002070BD0889401C20
:10F7F00018806020005D2E2568430019808D588098
:10F800000120F2E70889401CD588A84201D10020D8
:10F81000EBE70889401C1880D088401E58800120E2
:10F82000E3E700000C48008CC0B2012812D10A485E
:10F83000808C0007000F00280CD10748806AF02157
:10F840000840402806D10448C06A0840002801D179
:10F85000012070470020FCE7C00F00F01948008C21
:10F86000C0B201282CD11748808C0007000F002857
:10F8700026D11448806AF0210840002806D111489A
:10F88000C06A0840002801D1012070470D48806AF5
:10F89000F0210840102806D10A48C06A0840002814
:10F8A00001D10120F1E70748806AF02108403028A3
:10F8B00006D10448C06A0840002801D10120E4E7CD
:10F8C0000020E2E7C00F00F001468807800F002803
:10F8D00001D1012070470020FCE70000FEB52B4855
:10F8E000006801902A480078009040E00098C0002D
:10F8F000284909684418257835E01820684361686C
:10F900000F18681CC5B2A078A84200D1002538782D
:10F91000022802D0032823D10EE02421786848432E
:10F920001D4909684618307D002804D0786801F028
:10F93000B9FD0020307514E00CE014490968242258
:10F940005143154A12688818002101750F4A016A4F
:10F95000116000BF0D480068401C0028EDD100E098
:10F9600000BF00BF00BF6078A842C6D100BF0098AA
:10F97000411EC9B200910028B8D10448016801981D
:10F98000814201D00120FEBD0020FCE76428002058
:10F990005C2800206028002058280020FEB507467B
:10F9A0004048006802904048007801906BE0019860
:10F9B000C0003E49096845185DE0781C002807D062
:10F9C0003E46242070433A4909684418276A23E0D8
:10F9D0002978182359436A6850182978491C2970D6
:10F9E0002978AA78914201D1002129704668242102
:10F9F00071432F4A12688C180178012902D1217DA8
:10FA0000002900D037E08168A160C168E160016928
:10FA100021614169E16100BF2649A0680968401A77
:10FA20000002000A2449884208D22249A0680968D5
:10FA300001F075FCE1684018606011E01D48A168A4
:10FA4000006801F06CFC0090E1680098814204D9E4
:10FA5000E1680098081A606001E00020606000BF63
:10FA60000020A060E06001202075801E20623046EA
:10FA700001F0AAFC00BF781C00289ED12878697884
:10FA800088429AD100BF0198411EC9B20191002855
:10FA90008DD1044801680298814201D00120FEBD49
:10FAA0000020FCE7642800205C280020602800205B
:10FAB0005828002068280020FFFF7F00FFF7B3FDD3
:10FAC000FFF7C0FD01F0A6FDFDF796FFFEF700F978
:10FAD000FEF794FD00F0FCFF00BFFEE701460020AA
:10FAE0007047024600207047024600207047000021
:10FAF0007FB5044602216720015501216846017047
:10FB000000214170012101716620015D0C204143FB
:10FB100020463430081841896846C180002101819F
:10FB20000221418103905C21085B01A997DF054612
:10FB300000BF2E46002E06D000BF04A28121304611
:10FB4000FDF732FE00BF00BF7FBD00007372635C33
:10FB5000636C69656E745F68616E646C696E672E54
:10FB60006300000003210522120707231B02D2189D
:10FB70008300D1507047000001218140014AD160CB
:10FB800070470000000500503FB501460C786846FC
:10FB900004714C7844710C7A04734C7A44738D78F8
:10FBA0008571CC78C4710C7904724C7944728D796A
:10FBB0008572CC79C472407B012801D1012400E018
:10FBC000002468464470007B012801D1012400E034
:10FBD000002468468470C088FF24D934A04217DA14
:10FBE000684600894524E400A04211DD6846C088CB
:10FBF00001246402201A83B268460089001B82B285
:10FC0000934201DD022000E000206C46207080E07D
:10FC10006846C0884524E400A04217DD6846008994
:10FC2000A04213DD6846C088FF38FF38023883B22F
:10FC300068460089FF38FF38023882B2934201DDFE
:10FC4000032000E000206C46207062E06846C08817
:10FC5000FF24D934A04215DA68460089A04211DA9F
:10FC60006846C08801246402201A83B2684600896D
:10FC7000201A82B2934201DD022000E001206C468E
:10FC8000207046E06846C0884524E400A04219DDA3
:10FC900068460089FF24D934A04213DA6846C08838
:10FCA000FF38FF38023883B26846008901246402B5
:10FCB000201A82B2934201DD032000E001206C464D
:10FCC000207026E0684600894524E400A04203DD58
:10FCD00000206C4620701CE068460089FF24D9345F
:10FCE000A04203DA01206C46207012E06846C0880A
:10FCF000FF24D934A04203DA02206C46207008E0C9
:10FD00006846C0884524E400A04202DD03206C461A
:10FD100020706C46248820466C46A4782404204336
:10FD200004B030BDF8B50446261D2088192827D018
:10FD30001B2802D01D2835D123E006221B49E01DD7
:10FD4000FDF766FA002809D187DF0546002018492B
:10FD50000870184A1849A01D88DF10E006221749CC
:10FD6000E01DFDF755FA002809D187DF054601207F
:10FD70000F4908700F4A1049A01D88DF054612E0A0
:10FD800011E03088B11C75DF054600BF2F46002FFB
:10FD900006D000BF0AA2FF2114313846FDF704FD4A
:10FDA00000BF00E000BF00BFF8BD00000128002038
:10FDB0000D2800204C1602004829002007280020AA
:10FDC0007372635C6D61696E2E630000F3B587B07A
:10FDD0000546002006906020405D2E2148434419CE
:10FDE00008984088002857D1089808300590207955
:10FDF000049005980078039003990498401803280C
:10FE000004DC217903980818207101E00320207197
:10FE1000049E0020029017E00A22029842430598AF
:10FE2000801C11180C207043A21D83180A2218464A
:10FE3000FDF71BFA00210C207043A21D80184181A0
:10FE4000761C0298401C02902079B042E4D8701EC3
:10FE50000C214843A11D4018019028460199FFF745
:10FE6000A7FC002802D02079032802D101200690A7
:10FE700011E021795F2041552846FDF713FE074622
:10FE8000002F08D000216120415539462846FEF751
:10FE900079FC09B0F0BD01E0012006900698002829
:10FEA0001DD000215F20415505A92846FEF7C4F961
:10FEB0000746002F07D000216120415539462846CA
:10FEC000FEF760FCE5E76846007D002806D00121CA
:10FED0002846FEF705FC284600F0F0F800BF00BFFA
:10FEE000D7E70000FEB504460D466020005D2E21D8
:10FEF000484307192E4608365F20005D0C21484311
:10FF0000B91D401802906888002816D100BF0FE084
:10FF100006214143B21C891849881F4A914206D1E3
:10FF200006214143B21C525A02994A8103E0401C07
:10FF300031888142ECD800BF00BF002001905F20D3
:10FF4000005D401C3979884202D10120019016E001
:10FF50005F20005D401CC1B25F20015501A9204611
:10FF6000FEF76AF900900098002807D00021612070
:10FF7000015520460099FEF705FCFEBD00BF68460E
:10FF80000079002806D001212046FEF7A9FB204673
:10FF900000F094F800BFF0E702290000F8B505462C
:10FFA0000C461646002C1AD06720005D032816D197
:10FFB000AA896620015D0C20414320463430081890
:10FFC000008982420BD1288A0A2808D1284612309B
:10FFD000FFF7DAFD0090009800F006FE00BFF8BDC4
:10FFE00070B505460C4600BF287B002801D10120D2
:10FFF00000E000200646002E06D100BF06A2FF2129
:020000040002F8
:100000005831FDF7D1FB00BF00BF002C02D0042106
:100010006720015570BD00007372635C636C696595
:100020006E745F68616E646C696E672E63000000B9
:1000300010B5002915D06722525C022A11D184899B
:100040006622535C0C2253430A4634329A18528972
:10005000944203D004236722535402E0032367220F
:10006000535410BDF8B504460D46688800281DD1CC
:100070006020005D2E21484307192E4608367188FE
:100080003980B0887880F2887A853189B9852046B0
:10009000FDF708FD00900098002806D0002161209F
:1000A000015520460099FEF76DFB06E00021204631
:1000B000FEF716FB204600F001F8F8BD70B50446C7
:1000C0001C480068401C1B490860084600681A4923
:1000D0000968884228D200215F2001556020005D18
:1000E000401CC1B260200155005D2E214843051916
:1000F0006020005DC00011494018018829804088B7
:100100006880002028715C21085B2A46012190DF6D
:100110000646002E07D000216120015531462046B9
:10012000FEF730FB70BD02E000216120015500BFE9
:10013000F8E700002428002020280020742A00204E
:1001400010B50446022C02D0032C0BD100E000BFF6
:1001500006480078002804D000200449087000F008
:10016000B7FC00E000BF00BF10BD00001528002054
:1001700010B50446182161430E4A8918084611300B
:100180000621FDF7CFF8182060430A4940180021E6
:10019000016041608160C160FF2118206043054A11
:1001A00080180174182060438018C175204601F042
:1001B00027FA10BD582B002010B5002409E0382282
:1001C0006243084BD01838226243D218516B8847DB
:1001D000641C054800688442F1D30020034908608C
:1001E00010BD0000842A0020202800201C280020A8
:1001F000014600BF07480078002801D10820704759
:1002000000BF002901D10E20F9E7034840780860BB
:100210000020F4E736280020F42A00203CB50346ED
:1002200000BF20480078002801D108203CBD00BF55
:10023000002B01D10E20F9E7002A01D10E20F5E7AD
:100240001868002805D118680001174C20580028AC
:1002500001D10720EAE75C68186801940090019CCE
:1002600018680001104D401900894843201801907A
:10027000009800012C4600194089009C2401641953
:1002800024896043009C2401641964680019019C5E
:10029000A04201D80720C9E7019C00985460106073
:1002A0000020C3E736280020482B0020F8B504467C
:1002B0000D4600BF27480078002801D10820F8BD6E
:1002C00000BF002C01D10E20F9E72068002805D1DD
:1002D0002068000120490858002801D10720EEE7D6
:1002E000206800011C4940184089216809011A4A08
:1002F0008918098948432168090189184968401803
:100300006168884201D80720D9E76068FFF7DCFA06
:10031000002801D11020D2E723681B010E4FDB1902
:1003200062685B68D01A226812013B46D2181189B4
:10033000FCF7FCFF002901D00720C0E700202B4676
:100340000246214600900420FDF72AFE064630466C
:10035000B5E7000036280020482B002070B5FDF7D7
:1003600065FE00202E4908802E484069401C002868
:1003700008D001221207126991B22A4A5069FCF78B
:10038000D5FF02E0012000074069801E0121090716
:10039000096989B24843244908600020234908803C
:1003A00000BF0DE000210201214B99500201D2183B
:1003B00011810201D21891810201D2185181401C91
:1003C0000028EFD008201B49087016484069401CDF
:1003D000002808D001221207126991B2114A50690F
:1003E000FCF7A4FF02E0012000074069401E012144
:1003F0000907096989B248430646012000070069D8
:1004000081B23046FCF792FF054628DF0446002CF7
:1004100004D101200849887008490870204670BD41
:100420002C28002000100010302800203428002044
:10043000482B002037280020F42A002036280020EE
:10044000FFB581B00C4615461E4600BF3548007802
:10045000002802D1082005B0F0BD00BF002C01D15A
:100460000E20F8E70198002801D10E20F3E720685C
:10047000002805D1206800012B490858002801D127
:100480000720E8E7206800012749401840892168D3
:100490000901254A891809894843216809018918F1
:1004A000496840186168884201D80720D3E7002DC9
:1004B00006D0206800011C4940180089A84201DAD2
:1004C0000720C8E7A81921680901174A891809896E
:1004D000884201DD0720BEE70198FFF7F5F9002803
:1004E00004D03046FFF7F0F9002801D11020B2E720
:1004F0006068FFF7E9F9002801D11020ABE76068D8
:1005000081192A460198FCF7B0FE00952068000189
:1005100005490F58002203212046019BB8470020BF
:1005200099E7000036280020482B0020F8B5044643
:100530000D4600BF58480078002801D10820F8BDBA
:1005400000BF002C01D10E20F9E7002D01D10E20B3
:10055000F5E72068002801D10E20F0E7A0880121EE
:100560000907096989B2884202DCA088102801DAEB
:100570000720E4E7E088002830D048484069401C64
:10058000002808D001221207126991B2434A50692B
:10059000FCF7CCFE02E0012000074069401E01216B
:1005A0000907096989B24843E188A28851433C4A56
:1005B00012688918884211D3E088A1884843012134
:1005C0000907096989B288420ADDA1880122120758
:1005D000126990B2FCF7B4FE002901D00720AEE703
:1005E00020798007800F002801D00720A7E72D4839
:1005F0000088012801D10420A1E72A48008828604A
:10060000274800686860274909880901264A89182F
:100610006868486023490988090120685050A0880B
:1006200020490988090189180881E0881D4909883D
:100630000901891848810027A688E1884E4300BF38
:10064000781C87B201200007006980B2B04205D251
:1006500001200007006980B2361A00E00026012060
:100660000007006980B20E49096840180C4908600B
:1006700001200007006980B2B042E1D90948008832
:10068000000109494018878106480088401C054937
:100690000880002053E700003628002000100010DA
:1006A000302800202C280020482B0020F8B50446D4
:1006B0000E4615461F4600BF2F480078002801D17E
:1006C0000820F8BD00BF002E01D10E20F9E7002C54
:1006D00001D10E20F5E72068002805D1206800012F
:1006E00026490858002801D10720EAE720680001C0
:1006F00022494018408921680901204A891809893E
:10070000484321680901891849684018616888428E
:1007100001D80720D5E7002D06D020680001174931
:1007200040180089A84201DA0720CAE7E8192168C1
:100730000901124A89180989884201DD0720C0E7AA
:100740003046FFF7C1F8002804D03846FFF7BCF860
:10075000002801D11020B4E76068FFF7B5F8002841
:1007600001D11020ADE72B463246214602200097EA
:10077000FDF716FCA5E7000036280020482B0020D6
:10078000FEB5054600265048807801287ED100201D
:100790004D4988704D480078082811D1022D03D1A9
:1007A00000204A49087002E0002049490870FDF71E
:1007B000C7FB0646002E02D03046FDF717F8FEBDF7
:1007C000022D02D0032D79D174E03F480078142126
:1007D00048433D49091D44183E480088401C3D4996
:1007E00008802078022807D10846008880026188A6
:1007F000884201DB012000E0002007462078052820
:1008000005D132480078072801D1012000E00020FE
:1008100002902078042805D12C480078072801D1BF
:10082000012000E000200190207804280BD1294805
:10083000008880026188884205DB2448007800280F
:1008400001D1012000E0002000900298002807D18B
:100850000198002804D10098002801D1002F1FD052
:1008600000201A4908703046FCF7C0FF1649087886
:10087000FDF778FB00201749088013484078401E98
:100880001149487008460078401C00E019E00870E3
:1008900008460078042803DB08460078001F08702B
:1008A000FDF74EFB0646002E02D03046FCF79EFFB9
:1008B00005E003E00D20FCF799FF00E000BF00BF5A
:1008C00000BF00BF7BE70000F42A0020372800208B
:1008D0003628002034280020F8B504460E46154678
:1008E0001F4600BF2F480078002801D10820F8BD1E
:1008F00000BF002E01D10E20F9E7002C01D10E20FF
:10090000F5E72068002805D120680001264908582D
:10091000002801D10720EAE7206800012249401899
:10092000408921680901204A8918098948432168BA
:1009300009018918496840186168884201D8072070
:10094000D5E7002D06D0206800011749401800891E
:10095000A84201DA0720CAE7E81921680901124A0A
:1009600089180989884201DD0720C0E73046FEF773
:10097000ABFF002804D03846FEF7A6FF002801D1BF
:100980001020B4E76068FEF79FFF002801D1102017
:10099000ADE72B463246214605200097FDF700FBC8
:1009A000A5E7000036280020482B00200246002141
:1009B00012E0C8000B4BC0188078937898420AD197
:1009C000C800084B185A1388984204D1C800054B38
:1009D000C01840687047491C034800688142E8D34A
:1009E0000020F7E7742A00202028002002460E4845
:1009F0000068022815D20C480068C0000B4BC018D4
:100A0000138803805388438007480068C000074B61
:100A1000C018416004480068401C034B1860002067
:100A200070470420FCE7000020280020742A0020E2
:100A300001484068704700000015014010B50120D2
:100A400000040A4948600949403948601120FCF710
:100A5000A9FD1120FCF7B0FD0120054908602F20F9
:100A6000FCF780FB01200349087010BD40130140D2
:100A7000001001407C28002010B511200121814088
:100A80000E4A116000BF012000040D4988600C4926
:100A90004039886001200B4948602F20FCF762FB39
:100AA0000120084988600020074908602F20FCF7D2
:100AB00059FB00200549087010BD000080E100E0EE
:100AC0004013014000100140682800207C280020CD
:100AD00030B595B06846FFF78BFB044600BF25464E
:100AE000002D06D000BF39A2FF21AD312846FCF70A
:100AF0005BFE00BF0098002804D001203649087032
:100B000015B030BD082110A801720021017409A898
:100B1000119001A8139011A93048FEF7A3FB0446D9
:100B200000BF2546002D06D000BF28A2FF21BD3101
:100B30002846FCF739FE00BF10A8007A002803D130
:100B400010A8007C002803D025480078012813D085
:100B50002448007840084000224908700846007880
:100B6000022188431F490870A02008815020488135
:100B700000204860888117E01A480078400840004B
:100B8000184908700846007802218843801C1549DE
:100B90000870A02008815020488111A848601E20BC
:100BA000888101200E4908700E4886DF044600BF88
:100BB0002546002D06D000BF04A2FF21D9312846CA
:100BC000FCF7F2FD00BF00BF9AE700007372635CA0
:100BD0006D61696E2E630000152800200E2800202C
:100BE000142800204829002011B59FB000201C9037
:100BF0001D901E90FCF792FF04466A206043154A40
:100C000081186A226846FCF730FB18A8C0790028D2
:100C100001D120B010BD18A8017F0173417F41733D
:100C2000817F81730121017480790C21484301A9DE
:100C300002314018018910A84186002181860321D4
:100C4000C1861BA81E9010A9888B1CA997DF00BF26
:100C5000DFE70000A0290020F0B502460C46002086
:100C600037E001238340194623460B40002B2FD049
:100C7000D5680D40002D05D101235B04D5680D43D7
:100C8000D56004E003231B04D5688D43D56005259A
:100C90002D0707263602AD198600AD590326360406
:100CA000B5430526360707273F02F6198700F55199
:100CB00005252D0707263602AD198600AD591D43BF
:100CC0000526360707273F02F6198700F55100BFB2
:100CD000401C2028C5D3F0BD70B504460121672013
:100CE00001555C20015B2046FCF730FE054600BF45
:100CF0002E46002E06D000BF03A267213046FCF727
:100D000053FD00BF00BF70BD7372635C636C6965A7
:100D10006E745F68616E646C696E672E63000000BC
:100D200070B504460D46002D06D000BF0120A0403E
:100D30000349886000BF02E02046FEF71DFF70BD3A
:100D40000005005010B504460248047000F05AF93E
:100D500010BD0000AC28002070B506460C461546B4
:100D600029462046FCF778FD70BD000001460029A9
:100D700001D10E207047024801600020FAE7000010
:100D80008C280020FFB581B00C4616461F46002C6B
:100D900002D1072005B0F0BD20468107890F002948
:100DA00001D1012100E00021002901D10720F1E754
:100DB0000948046009480680094807600949019804
:100DC00010DF0546002D01D02846E3E70120064943
:100DD000087016202EDFDDE78428002088280020F8
:100DE00080280020590D02008A2800200146002991
:100DF00001D10E207047024801600020FAE7000090
:100E00009028002007B568460078002802D0012805
:100E10000FD100E00DE008480078002808D0042237
:100E200006A10848FCF7F4F9002801D1024908702E
:100E300000BF00BF0EBD000000280020494E4954ED
:100E400000000000B8280020FFB581B005460E461E
:100E50001746002D01D0002E02D10E2005B0F0BDA6
:100E600010480078002806D0012814D0022804D0A9
:100E7000032812D100E000BF00BF0B4805600B48FB
:100E800006600B4807600B490498086000240120A5
:100E9000FFF758FF03E0082401E0032400BF00BF70
:100EA0002046DBE7AC2800209C280020A02800205A
:100EB000A4280020A82800200146044801600068FA
:100EC000002801D0002070470E20FCE7B028002049
:100ED00070B50446002C01D10E2070BD404800685A
:100EE00000020521090707221202891822689200D0
:100EF000885000210520000707221202801862682E
:100F0000920081500020052109070722120289184A
:100F1000A26892008850401E32494861A0688860EB
:100F2000606808612068C860002088632D494031EE
:100F3000886000250026207C002806D0012806D0E5
:100F4000022806D0032808D105E0002507E0022585
:100F500005E0042503E0062501E0072600BF00BFE9
:100F6000002E01D03046B8E7607C00280BD101206C
:100F700028431C4940314861A07CC861E07C194984
:100F8000C03108600AE0174840304561A07C15492F
:100F90004031C861E07C1349C0310860002012492B
:100FA00048608862042011490860002010490870D8
:100FB00003210420FCF714FB0420012181400D4A89
:100FC000116000BF0C480D49486004200121814098
:100FD0000B4A116000BF02200249086030467CE7DE
:100FE0009828002000450040004100400042004099
:100FF000AC28002080E200E0020400000043004032
:1010000000E100E03EB527480078012804D002281E
:1010100006D0032843D120E00120234948623FE065
:101020000020694608700190029000BF1F480068C8
:10103000002801D0012000E000200446002C05D14A
:1010400000BF1B4ACB21FCF7AFFB00BF00BF174B13
:10105000684607C81B68984722E001206946087067
:101060001448C06B019013484030C068029000BF24
:101070000E480068002801D0012000E0002004464E
:10108000002C05D100BF0A4AD421FCF78DFB00BF1C
:1010900000BF064B684607C81B68984700E000BFC2
:1010A00000BF3EBDAC28002000400040B02800201A
:1010B000A81702000045004010B50446002010BDEE
:1010C000FFB583B004460F46154603268D480078C9
:1010D00000280BD1002D06D10698002803D102204C
:1010E0008849087002E00120864908708548007828
:1010F0000300FCF74BFB07FD05314E84BAD7FD001A
:1011000081484069401C002808D00122120712695A
:1011100091B27D4A5069FCF709F902E0012000070D
:101120004069401E01210907096989B248430290BC
:101130000120000700690004820C012000070069FB
:1011400080B278430146029829DF0646002E02D17C
:1011500002206C490870D0E0384628DF0646002E91
:1011600016D1002D11D1069800280AD12078042824
:1011700003D10720634908700AE00520614908701F
:1011800006E004205F49087002E003205D49087012
:10119000B3E05D484069401C002808D001221207D6
:1011A000126991B2584A5069FCF7C0F802E0012078
:1011B00000074069401E01210907096989B24843B7
:1011C000012109070290096989B2794308462A4634
:1011D000029929DF0646002E10D1069800280AD170
:1011E0002078042803D106204649087006E005202F
:1011F0004449087002E00420424908707DE04248FA
:101200004069401C002808D001221207126991B2DF
:101210003D4A5069FCF78AF802E001200007406966
:10122000401E01210907096989B24843A9004018F5
:1012300061884018012109070290096989B2794340
:10124000AA00891862888818069A029929DF06463A
:10125000002E09D12078042803D1062029490870DE
:1012600002E005202749087047E0012000070069D7
:1012700080B27843AB00C018029060888208216970
:10128000029829DF0646002E0BD1002D06D10698C4
:10129000002803D107201B49087002E006201949E5
:1012A00008702AE018484069401C002808D0012234
:1012B0001207126991B2144A5069FCF737F802E03C
:1012C000012000074069401E01210907096989B210
:1012D0004843019001200007006981B20198FCF7A2
:1012E00025F8029028DF0646002E04D1072000E0F2
:1012F00002E00449087000E000BF00BF304607B0BC
:10130000F0BD0000372800200010001010B5044682
:101310002046FFF735FA2046FEF712FF10BD0246C1
:10132000501A0002000A704770B504460D48006864
:10133000002813D00B4AE169A0691268904705465E
:1013400000BF2E46002E07D000BF074AFF216431A0
:101350003046FCF729FA00BF00BF02E0A169E0694E
:10136000884770BD7828002018170200FEB50020BD
:10137000C04301900F4804680F4807686846FDF7AE
:10138000FBFF0546FEF7AAFA0646002D05D001AA86
:1013900021460098FEF722F801260198FEF7FEFA92
:1013A000002800D00126002E02D03846FCF758FE57
:1013B000FEBD0000682800206428002010B514201D
:1013C000FCF704F910BD0000F0B50246242050439C
:1013D000324B1B68C11832480068401C002802D1FB
:1013E0002F48026059E02E484B680068242460436F
:1013F0002A4C246800194068834217D8284800689E
:1014000024235843254B1B68C01840684B68C31AF7
:101410002348006824246043204C2468001943605A
:101420001F48006808621E48026036E04B681C4D89
:101430002C6828680DE024254543184E3668AD1900
:101440006D685B1B044624254543144E3668AD1970
:10145000286A451C002D07D0242545430F4E3668C9
:10146000AD196D689D42E6D3451C002D0CD0242596
:1014700045430A4E3668AD196D68EE1A242545437A
:10148000064F3F68ED196E604B6008622425654386
:10149000024E3668AD192A6200BFF0BD5828002000
:1014A00064280020F8B50646294805682C4609E05E
:1014B000B44200D109E0254624206043254909684B
:1014C0004018046A601C0028F2D100BF601C00288C
:1014D00000D1F8BDA54210D11D4800682421484321
:1014E0001C4909684018006A1949086008460068E4
:1014F000401C002801D1FFF7BFFA242060431549A2
:101500000968401847682420604312490968401858
:10151000016A242068430F4A12688018016224205F
:1015200068430C4909684018046A601C00280CD004
:10153000242060430749096840184068C1192420E5
:101540006043044A12688018416000BFC1E7000090
:101550006428002058280020F8B520480068401C66
:1015600000283AD00027FFF763FA04461C480168B8
:101570002046FFF7D4FE06461848056811E02420EF
:1015800068431849096844186068B04200D90BE004
:101590006068361A6068C719256A2046FFF7C4FEDE
:1015A00000BF681C0028EAD100BF0F4800780F492F
:1015B0000978884209D10D480078401CC0B20B4917
:1015C0000870022801D100200870084800788000C7
:1015D00007490F50FFF7F2FE00BFF8BD6428002056
:1015E0006828002058280020742800207528002032
:1015F0006C28002010B51120FBF7E8FF10BD00009B
:1016000001218140024A12688A4301490A607047F9
:101610004028002010B5042207A10948FBF725FE49
:1016200004231A4607490648FFF70EFC00BF064888
:1016300000780028FBD110BD474F4F440000000048
:10164000CF280020B828002000280020060018001D
:1016500000009001010000000200000003000000F3
:101660000400000000000000B3680650F6B511E465
:10167000B9B21697F925EC7BB4479EFAF69C11E4B3
:10168000B9B21697F925EC7BE9FA010015F50100CE
:1016900055F4010009F60100E3FA0100D9F4010054
:1016A0004FF40100EBF50100DDFA01005DF40100EB
:1016B00049F40100D1F50100FFFFFFFF433A5C4B05
:1016C00065696C5F76355C41524D5C446576696353
:1016D000655C4E6F726469635C6E72663531383278
:1016E000325C536F757263655C626C655C646576D1
:1016F0006963655F6D616E616765725C646576697B
:1017000063655F6D616E616765725F63656E74725C
:10171000616C2E6300000000433A5C4B65696C5FAE
:1017200076355C41524D5C4465766963655C4E6F0D
:10173000726469635C6E726635313832325C536F45
:10174000757263655C6170705F636F6D6D6F6E5C09
:101750006170705F74696D65722E6300433A5C4B13
:1017600065696C5F76355C41524D5C4465766963B2
:10177000655C4E6F726469635C6E726635313832D7
:10178000325C536F757263655C73645F636F6D6D1C
:101790006F6E5C736F66746465766963655F6861BC
:1017A0006E646C65722E6300433A5C5573657273A8
:1017B0005C746E65736865696D5C446F63756D65B7
:1017C0006E74735C4769744875625C477261644FFC
:1017D000535F46696E616C50726F6A6563745C77C3
:1017E0006974685F72696F745C6E6F6465735C6264
:1017F0006C655F6E6F6465735C4D61737465724E8A
:101800006F64655C7372635C7370695F736C61763F
:10181000652E63003418020000280020B800000084
:1018200004D10100EC180200B82800204014000088
:1018300020D101000183E3A2F511FE7F4093201B1C
:10184000CE000000000000000000000000000000CA
:101850000000000000000000000000000000000088
:101860000000000000000000000000000000000078
:101870000000000000000000000000000000000068
:101880000000000000000000000000000000000058
:101890000000000000000000000000000000000048
:1018A0000000000000000000000000000000000038
:1018B0000000000000000000000000000000000028
:1018C0000000000000000000000000000000000018
:1018D0000000000000000000000000000000000008
:0C18E00000000000000000000024F400E4
:040000050001D0C165
:00000001FF
