:020000040001F9
:10D00000283D0020BDD10100D7D10100D9D10100B8
:10D010000000000000000000000000000000000010
:10D02000000000000000000000000000DBD1010053
:10D030000000000000000000DDD10100DFD1010090
:10D04000E1D10100E1D10100E1D10100E1D1010014
:10D0500081D6010000000000F1D40100E1D10100FF
:10D06000E1D10100E1D10100E1D10100E1D10100F4
:10D07000E1D10100E1D10100E1D10100E1D10100E4
:10D08000E1D1010059D60100E1D10100E1D1010057
:10D0900011D70100E1D1010019D70100E1D1010050
:10D0A000E1D10100E1D1010000000000000000001A
:10D0B0000000000000000000000000000000000070
:10D0C00000F002F800F03EF80CA030C80838241830
:10D0D0002D18A246671EAB4654465D46AC4201D1B0
:10D0E00000F030F87E460F3E0FCCB64601263342A4
:10D0F00000D0FB1AA246AB4633431847F445000064
:10D1000014460000103A02D378C878C1FAD8520702
:10D1100001D330C830C101D504680C6070470000ED
:10D120000023002400250026103A01D378C1FBD843
:10D13000520700D330C100D50B6070471FB51FBD2B
:10D1400010B510BD00F0A2F91146FFF7F7FF02F08D
:10D150000FFD00F0BAF903B4FFF7F2FF03BC00F0D3
:10D16000BFF90000401E00BF00BF00BF00BF00BFEE
:10D1700000BF00BF00BF00BF00BF00BF00BFF1D1B4
:10D180007047000070B505460C46164602E00FCC0D
:10D190000FC5103E102EFAD2082E02D303CC03C5C1
:10D1A000083E042E07D301CC01C5361F03E02178C9
:10D1B0002970641C6D1C761EF9D270BD03210C48C9
:10D1C00002680A4302600B4802680A4302600A4888
:10D1D00080470A480047FEE7FEE7FEE7FEE7FEE776
:10D1E000FEE7000006480749074A084B7047000061
:10D1F000240500405405004055D70100C1D001006E
:10D20000282D0020283D002028350020283500202A
:10D21000034610B50B439B070FD1042A0DD308C852
:10D2200010C9121FA342F8D018BA21BA884201D9F6
:10D23000012010BD0020C04310BD002A03D0D30739
:10D2400003D0521C07E0002010BD03780C78401C6E
:10D25000491C1B1B07D103780C78401C491C1B1B65
:10D2600001D1921EF1D1184610BDF8B5042A2CD375
:10D27000830712D00B78491C0370401C521E830791
:10D280000BD00B78491C0370401C521E830704D03E
:10D290000B78491C0370401C521E8B079B0F05D056
:10D2A000C91ADF002023DE1B08C90AE0FFF76AFF66
:10D2B000F8BD1D4608C9FD401C46B4402C4310C0B3
:10D2C000121F042AF5D2F308C91A521EF0D40B78A3
:10D2D000491C0370401C521EEAD40B78491C037091
:10D2E000401C012AE4D409780170F8BD01E004C0B3
:10D2F000091F0429FBD28B0701D50280801CC907B6
:10D3000000D00270704700290BD0C30702D0027012
:10D31000401C491E022904D3830702D50280801CC9
:10D32000891EE3E70022EEE70022DFE7002203097F
:10D330008B422CD3030A8B4211D300239C464EE030
:10D3400003460B433CD4002243088B4231D30309EC
:10D350008B421CD3030A8B4201D394463FE0C3099E
:10D360008B4201D3CB01C01A524183098B4201D3B6
:10D370008B01C01A524143098B4201D34B01C01AA1
:10D38000524103098B4201D30B01C01A5241C30819
:10D390008B4201D3CB00C01A524183088B4201D388
:10D3A0008B00C01A524143088B4201D34B00C01A74
:10D3B0005241411A00D201465241104670475DE089
:10D3C000CA0F00D04942031000D34042534000220C
:10D3D0009C4603098B422DD3030A8B4212D3FC22B5
:10D3E000890112BA030A8B420CD3890192118B4234
:10D3F00008D3890192118B4204D389013AD092114A
:10D4000000E08909C3098B4201D3CB01C01A524104
:10D4100083098B4201D38B01C01A524143098B42CD
:10D4200001D34B01C01A524103098B4201D30B01B6
:10D43000C01A5241C3088B4201D3CB00C01A5241DB
:10D4400083088B4201D38B00C01A5241D9D24308C2
:10D450008B4201D34B00C01A5241411A00D20146FF
:10D46000634652415B10104601D34042002B00D569
:10D470004942704763465B1000D3404201B500202B
:10D48000C046C04602BD704770477047754600F001
:10D4900023F8AE46050069465346C008C0008546DD
:10D4A00018B020B5FFF79EFE60BC00274908B646BD
:10D4B0000026C0C5C0C5C0C5C0C5C0C5C0C5C0C5A3
:10D4C000C0C5403D49008D4670470446C046C04631
:10D4D0002046FFF740FE000000487047C42C0020A3
:10D4E00001491820ABBEFEE726000200704700008D
:10D4F000F0B585B02648056900202649C863002696
:10D500003FE0142070432449096844180120B040CA
:10D51000224909680840002831D0E068C0436840CB
:10D520002168084007463946204603F019FB184891
:10D53000006968400390039800280ED003980543C3
:10D54000E068C04368402168084000902046009988
:10D5500003F006FB0098074300BFA068A8433840CB
:10D560000190606828403840029001990298084371
:10D57000002803D0226901990298904700BF701CCF
:10D58000C6B2074800788642BBDB05B0F0BD00009C
:10D5900000050050406100404C2800204428002035
:10D5A00049280020C206D20E01219140014A116093
:10D5B0007047000080E200E0C206D20E01219140D7
:10D5C000014A11607047000000E100E0C206D20E7F
:10D5D00001219140014A11607047000000E200E023
:10D5E00010B5002819DA1A4A03071B0F083B9B08DD
:10D5F0009B00D2588307DC0EFF23A3409A438B077E
:10D600001B0E8407E40EA3401A43114B0407240F9A
:10D61000083CA408A4001A5118E00E4A03231B0278
:10D62000D21883089B00D2588307DC0EFF23A34047
:10D630009A438B071B0E8407E40EA3401A43054B45
:10D64000032424021B198408A4001A5110BD0000F1
:10D650001CED00E000E100E010B500200749086083
:10D660000021064841608160C160002003494039C3
:10D670000860486003F008FF10BD00004011014041
:10D6800010B51B48806A00281FD000201849886206
:10D6900018480078012816D11748006817494860D3
:10D6A0001748006815494039486316480068886380
:10D6B00015480068114988600120144988620220D9
:10D6C00003F0C4FA00E000BF00BF0948406800282A
:10D6D0000CD000200649486006480078022803D193
:10D6E000032003F0B3FA00E000BF00BF10BD00004C
:10D6F00000410040A8280020982800204045004014
:10D700009C280020A4280020A028002000400040E1
:10D7100010B503F0C3FD10BD70B50C4800680028BB
:10D7200011D00A4800688047044600BF2546002DF6
:10D7300007D000BF064AFF213331284600F034F8F5
:10D7400000BF00BF01E002F02DF870BD7C28002072
:10D750006016020010B502F0DBF8002805D007487B
:10D7600007494860C8130749886102F0B5F80028E6
:10D7700002D001200449886010BD0000DFFF07C00F
:10D7800000050040006C00400006004030B47446C4
:10D79000641E2578641CAB4204D3635D5B00E31810
:10D7A00030BC18471D46F8E70121122003F03CFA6F
:10D7B00000BFBFF34F8F04480449C860BFF34F8FC9
:10D7C00000BF00BFFEE700000400FA0500ED00E026
:10D7D000F8B504460D461646034807683246294602
:10D7E0002046B847F8BD0000A02C0020F8B504463C
:10D7F00017480078142148431549091D0E5C081F7D
:10D800000078142148431249091D4018806800011E
:10D8100010490D580E480078142148430C49091D41
:10D8200040184088091F0090097814225143084A83
:10D83000121D89180B69111F097814225143044ADB
:10D84000121D89180846083022463146A847F8BDFF
:10D85000242B0020782B002004460D462A46214622
:10D860000148FFF7A1FF0000EFBEADDE70B5044632
:10D870000D46002C01D0002D01D10E2070BD0848AE
:10D880000078002801D10820F8E70648006802283F
:10D8900001D10620F2E72946204603F031F8EDE7F2
:10D8A000242800201C2800200020054908600120B1
:10D8B0000449087000200449086004490860704762
:10D8C0001C280020242800202028002018280020C0
:10D8D00070B505460C46002D01D0002C00D170BD5E
:10D8E00019480078002800D1F9E72088302817D09F
:10D8F00004DC102807D0112821D108E0322814D0E8
:10D9000033281CD116E0A1885C20415318E0622125
:10D910002846FFF707FD0021C9435C2041530FE073
:10D92000211D284602F027FB0AE0211D284602F0AF
:10D93000CDF905E0211D284602F054FA00E000BFB1
:10D9400000BF00BFCBE7000024280020F8B5044644
:10D950000F46002C01D10E20F8BD1C48007800288D
:10D9600001D10820F8E71A480068002801D10820F2
:10D97000F2E76120005D002801D01120ECE70020D3
:10D9800014490860144908600021602001555C209A
:10D9900007536020005D2E21484305196020005D7B
:10D9A000C0000E49401801882980408868805C21A9
:10D9B000085B2A46012190DF0646002E01D0304642
:10D9C000CAE70121612001550020C5E72428002075
:10D9D0001C2800202028002018280020A42A00202D
:10D9E00010B50446204600F0EDFE204600F0B6F8E3
:10D9F000204602F021F910BDF8B500BF00234822EF
:10DA00002249082003F042F9054600BF2E46002EA9
:10DA100006D000BF1EA2FF2147313046FFF7C4FEEB
:10DA200000BF00BF0221684601700121417060DF24
:10DA3000044600BF2546002D06D000BF14A2FF21DA
:10DA40004D312846FFF7B0FE00BF144803F012F92D
:10DA5000044600BF2546002D06D000BF0CA2FF21C2
:10DA600051312846FFF7A0FE00BF0D4803F042F9F0
:10DA7000044600BF2546002D06D000BF04A2FF21AA
:10DA800055312846FFF790FE00BFF8BD5829002009
:10DA90007372635C6D61696E2E630000E1D90100F1
:10DAA0003D12020038B504466020005D2E21484337
:10DAB00005195F20005D002811D05F22125D521E03
:10DAC000D1B26022125D2E235A4315190C224A430B
:10DAD000AB1DD0180289521C6B461A8002E0688D7B
:10DAE00069460880A88D694648805C21085B6946C4
:10DAF00092DF38BD024600210AE082204843064BEF
:10DB0000C0184030808B904201D108467047491CB4
:10DB10000229F2D30220F9E7A02900207CB50546AE
:10DB2000002415E0822161430B4A891808466230BF
:10DB3000694601F08BF9297868468079814206D1DF
:10DB4000697868464079814201D120467CBD641CD9
:10DB5000022CE7D30220F9E7A0290020F0B585B018
:10DB600004460025A088FFF7C5FF0746022F03D013
:10DB70008220784329494518208830282AD0372820
:10DB800004D0382835D039283ED138E0E088FF214C
:10DB90000631884204D0E088FF211031884214D138
:10DBA0002846623001F0EEFA019000BF0198009023
:10DBB0000098002807D000BF19A2FF21403100982B
:10DBC000FFF7F2FD00BF00BF00BF2946204602F06C
:10DBD000ADF91AE0002608E0F20020460E301118D8
:10DBE000082202A8FFF741FB761CA089B042F3DCB3
:10DBF00000BF3A462946204602F050F905E0294682
:10DC0000204602F06BF900E000BF00BF002D03D0FA
:10DC100021462846FFF75CFE05B0F0BDA029002094
:10DC20007372635C636C69656E745F68616E646C6B
:10DC3000696E672E6300000070B504460D46012131
:10DC4000607882225043124A8018603001726078F6
:10DC50008221484311464018403085830D480078A2
:10DC6000401C0C490870617882225143084A891887
:10DC70000846623004222146FFF7F7FA61788222D3
:10DC80005143034A881802F0ABFF002070BD00002A
:10DC9000A02900201528002010B5014600204B784F
:10DCA00082246343084C1A1968239B5C002B08D01C
:10DCB000064B1B785B1E054C2370002468239C5484
:10DCC00000E0082010BD0000A02900201528002039
:10DCD000F8B504460D461646607882214843074948
:10DCE00047182878152805D1002E02D1384601F0B2
:10DCF00057FF00E000BF00BF0020F8BDA0290020B2
:10DD000070B586B01F4B0FCB02AC0FC41E4902A8E2
:10DD100063DF044600BF2646002E07D000BF1BA2CB
:10DD2000FF2175313046FFF73FFD00BF00BF0025E2
:10DD300007E00021822068431A4A8018603001728F
:10DD40006D1C022DF5D300201749087000F046FA2B
:10DD50000D4801786846817114498180144901A8F1
:10DD6000FFF784FD044600BF2646002E07D000BF03
:10DD700006A2FF2189313046FFF716FD00BF00BF24
:10DD800006B070BD7C150200162800207372635C1B
:10DD9000636C69656E745F68616E646C696E672E32
:10DDA00063000000A0290020152800200C2000009E
:10DDB00059E10100F0B585B00F27584800781421CB
:10DDC00048435649091D4418E5682078022804D0C4
:10DDD000042823D005286FD16FE0206903905048B4
:10DDE000008886026088801B049003988019039045
:10DDF000A08880194519012189020498884206D219
:10DE0000049882082846039929DF074605E0FF2287
:10DE100001322846039929DF074676E0A068000111
:10DE20004049401800890490A068000140184089CA
:10DE30000390A06800014018406802900298A84230
:10DE400005D10399049848436188884202D0A068AC
:10DE500002280DD101200007006981B22846FFF792
:10DE600065FA2F4909884618304628DF074622E020
:10DE700001200007006981B22846FFF757FA0646DD
:10DE800001200007006980B27043281A80080190C1
:10DE900001200007006980B2711C4843618849195C
:10DEA000401A8008009031462046009B019A03F0FA
:10DEB0009FF8074600BF28E026E001200007006920
:10DEC00081B22846FFF732FA0646A08841190120A0
:10DED0000007006980B27043081A80080490A08887
:10DEE00040196188421801200007006980B2711C46
:10DEF0004843801A8008039031462046039B049AC9
:10DF000003F076F8074600E000BF00BF002F02D103
:10DF1000012002498870384605B0F0BD242B00204E
:10DF200030280020782B002010B5002406484078C7
:10DF3000002807DDFFF73EFF0446002C02D0112C1D
:10DF400000D10024204610BD242B002000231421E2
:10DF500041430C4A53541421414389184B800123F7
:10DF60001421414389188B600023142141438918EF
:10DF7000CB601421414389180B6114214143891856
:10DF80008B807047282B0020FFB581B006461746CE
:10DF900000241F484078042836D01D4800781C49CA
:10DFA00049784018C4B2042C01DB201FC4B21420ED
:10DFB00060431749091D0E5414206043401807613F
:10DFC000142060434118029805C8CA608860142074
:10DFD00060430F4A121D8018049941801420604349
:10DFE00080180A9981800025101F8078002805D1AB
:10DFF000FFF7E0FE0546112D00D1002504484078CA
:10E00000401C0349487000E00425284605B0F0BDD7
:10E01000242B002010B5002008490880084908700A
:10E020000849087048708870002403E02046FFF714
:10E030008DFF641C042CF9D310BD00003028002093
:10E0400033280020242B0020FEB51E480068401C09
:10E05000002834D01B480068242148431A49096825
:10E060004018456802F06EFC01901848046821468B
:10E07000019803F0ECF8C61C15480078002801D17F
:10E0800002F066FCAE4201D2284600E03046041998
:10E090002402240A20460F49086000BF02F052FC07
:10E0A00000900199009803F0D2F8C71C204601990E
:10E0B00003F0CDF8874201D903F034FA01E002F011
:10E0C00065FCFEBD60280020542800206428002044
:10E0D000782800204015014070B503460C46082002
:10E0E000002115E00C254D430B4EAD19AD7A2540AE
:10E0F000002D0CD0094DAB4205D00C254D43AD1978
:10E100002D899D4202D11160002003E00520491CA9
:10E110000229E7D300BF70BD882C0020FFFF00005C
:10E1200010B5044601210C2060430A4A8018817210
:10E13000891E0C20604380180181FF210C20604360
:10E140008018C1720C21614388180721FFF7EAF893
:10E1500010BD0000882C0020F8B504460027608818
:10E16000FFF7C8FC064682207043194945182078FD
:10E17000002826D100BF20E00C220346534322464C
:10E180000A3299180A88134B9A4207D18A78124B9F
:10E190001B789A4202D1662250550CE00A880D4B3A
:10E1A0005B1C9A4207D18A780B4B1B789A4202D1AA
:10E1B000672250550127411CC8B2217A8142DBDC1D
:10E1C00000BF002F02D0284601F0EAFCF8BD000095
:10E1D000A02900200D2000001628002070B5FFF7B0
:10E1E00063FB044600BF2546002D07D000BF04A2F4
:10E1F000FF2166312846FFF7D7FA00BF00BF70BD88
:10E200007372635C636C69656E745F68616E646C85
:10E21000696E672E63000000F0B585B004460F46B6
:10E22000002001906020005D2E21484305195F20E9
:10E23000005D0C214843A91D401802905F20005D3D
:10E24000401C2979884207D103AB0022204602995D
:10E2500001F017FB019029E05F20065D21E028799D
:10E26000401EB04202D10020009005E0701C0C213D
:10E270004843A91D4018009003AB2046009A02991C
:10E2800001F0FFFA002802D0012001900CE0009874
:10E2900002905F20005D401CC1B25F200155701CE0
:10E2A000C6B22879B042DADC00BF00BF019800286E
:10E2B00004D101203870002005B0F0BD0020387076
:10E2C0005C21085B03A993DFF6E70000FEB5044676
:10E2D0000E46A1786A46284801F02AFF0546002D1F
:10E2E00049D160780C21484324494018807A402164
:10E2F0000840402801D0022E01D1214F04E0012E18
:10E3000001D1204F00E0204FA078182250431F4A2F
:10E310008118002318226846B8470546002D1AD1F7
:10E32000022E18D060780C21484314494018807A96
:10E330004021884361780C225143104A8918887221
:10E3400060781C225043124A811818231C22684608
:10E35000B847054600BF022E0DD020780C21484357
:10E360000C494018807A80000B490A5821466846BB
:10E370009047054600BFFEBD34280020882C0020B1
:10E38000ED070200C1050200E90F0200882B002002
:10E39000302C0020A02C00208C150200F8B505467A
:10E3A0000E461B4F00242EE01820604319494018E8
:10E3B000C07DFF2826D13078022814D01820604371
:10E3C0004018C07D0221884318216143114A8918F1
:10E3D000C875182161438918084610300722314654
:10E3E000FEF743FF0BE0182060430A494018C07D48
:10E3F0004108490018206043064A8018C1752C70F6
:10E40000002702E0641C072CCED300BF3846F8BDBD
:10E4100043800000882B0020F8B505460E460527EE
:10E4200000240FE018216143094A8918084610307A
:10E4300007222946FEF7ECFE002802D134600027AF
:10E4400002E0641C072CEDD300BF3846F8BD000085
:10E45000882B0020F7B50E4615463078152862D077
:10E4600008DC11280DD012282DD013284AD01428EA
:10E470007FD157E0212857D0222861D0232878D196
:10E480006BE0042245480099FEF7EFFE70680188B2
:10E490000098FFF7D1FB044600BF2746002F05D0A8
:10E4A00000BF3FA2A2213846FFF77EF900BF3F48D8
:10E4B0000078401C3D49087008460078022801DABF
:10E4C00002F0C2FA56E062213948FEF72BFF0098AD
:10E4D000FFF7E2FB044600BF2746002F05D000BF30
:10E4E0002FA2B1213846FFF75FF900BF2F4800780F
:10E4F000022801D102F0A8FA2C480078401E2B49CE
:10E50000087037E0254800F03DFE044600BF27466E
:10E51000002F05D000BF22A2C0213846FFF744F9E2
:10E5200000BF27E026E025E000BF2F46002F05D0E2
:10E5300000BF1BA2CC213846FFF736F900BF19E017
:10E5400000BF2F46002F05D000BF15A2D0213846AE
:10E55000FFF72AF900BF0DE00BE000BF2F46002FA8
:10E5600005D000BF0EA2D4213846FFF71DF900BF29
:10E5700000E000BF00BF2A4631460098FFF7A8FB25
:10E58000044600BF2746002F05D000BF04A2DD21AE
:10E590003846FFF709F900BF0020FEBD0E28002015
:10E5A0007372635C6D61696E2E6300001228002037
:10E5B000E62800207FB501F05BFE044600BF25463B
:10E5C000002D06D000BF2FA2FF2165312846FFF79E
:10E5D000EBF800BF01200090684600F0B9FB04464C
:10E5E00000BF2546002D06D000BF26A2FF216B31BB
:10E5F0002846FFF7D9F800BF052102A80130FEF731
:10E6000091FE23480190022168460172407A410838
:10E610004900491C68464172407A022188430146FC
:10E6200068464172407A1C21884301460C31684695
:10E630004172407A2021884369464872072101A827
:10E6400081711021C171007A40084000401C01A96D
:10E65000087201A8007A02218843801C01A908726F
:10E660000C4800F055FD044600BF2546002D06D09D
:10E6700000BF04A2FF2181312846FFF795F800BFB3
:10E680007FBD00007372635C6D61696E2E63000074
:10E6900055E401000D280020F8B504460D46602021
:10E6A000005D2E2148430719384602F009F9064655
:10E6B000002E3CD01E480068022838D25C20015B46
:10E6C0001B480068382250431A4A80184180002DA8
:10E6D00012D000211648006838225043154A1154C0
:10E6E0001349096838225143124A8918081D2E22FD
:10E6F0003946FEF7BAFD06E002210D4800683822CF
:10E7000050430C4A11540A480068382148430949CB
:10E710004018466306480068401C054908600846E2
:10E72000006805490968884201D101F0CFFCF8BDB5
:10E7300018280020B42A00201C280020F8B5044620
:10E740000D466020005D2E2148430719384602F02F
:10E75000B7F80646002E2ED01748006802282AD2A5
:10E760005C20015B1448006838225043134A80182B
:10E770004180012110480068382250430F4A11544B
:10E780000D480068382148431146401845600A4842
:10E79000006838214843114640184663064800681F
:10E7A000401C054908600846006805490968884218
:10E7B00001D101F08BFCF8BD18280020B42A0020FC
:10E7C0001C280020F0B591B00546002600200E90D0
:10E7D00000BFFE480078002801D111B0F0BD00BF95
:10E7E00000BFFB480068002800D1F6E700BF0DA875
:10E7F00000F0A0FA044600BF2746002F06D000BF55
:10E80000F44AF5493846FEF7CFFF00BF00BF0020AD
:10E8100009900024281D0B902A2168460186FF21BB
:10E8200008A8817500210175002010902888102803
:10E8300013D0A88810AA0221FFF74EFC0446002C32
:10E840000BD10C2110984843E4494018C17A08A81C
:10E8500081751098C1B208A84175288817287DD005
:10E8600006DC10280BD0112879D0132878D1D2E0FB
:10E87000182876D01C2875D05228F7D1F9E110AFAE
:10E880003A460121D648FFF727FC0290029800285B
:10E8900007D102210C2238685043D04A8018817277
:10E8A00001E00420029002980446002C62D1012667
:10E8B000112108A801721098C1B208A84175A98851
:10E8C0000C2210985043C54A8018018102210C2265
:10E8D00010985043C14A801881720C2210995143FC
:10E8E000BE4A88180722A91DFEF7BFFC0FA9A81D64
:10E8F000FFF792FD0446002C3CD10F98C1B20C22C8
:10E9000010985043B54A8018C1720C2110984843A2
:10E9100011464018807A082108430C22109951436F
:10E92000AE4A8918887208A90F9888750F9881B225
:10E9300001AAAC4801F0FCFB0446002C19D11C22B2
:10E9400010995143A84A881818231C2201A901F0E4
:10E9500001FD9F48807A8000A44904E08EE00AE02F
:10E9600095E109E18EE10A580DA901A890470446F6
:10E9700000BF00BF8CE10C21109848439749401814
:10E98000807A022188430C2210995143934A8918B6
:10E9900088720C211098484311464018807A08214B
:10E9A000084008280ED10C21109848431146401801
:10E9B000807A8021084080280FD100210DA8FFF720
:10E9C00085FC0AE008A8807DFF2806D008A9887D7C
:10E9D00001F058FBFF2008A988750C2110984843C6
:10E9E0007E494018807A04210840042807D101207C
:10E9F0000E907748407A40084000754948721021CF
:10EA00000C2210985043754A8018817201261220FA
:10EA100008A908723CE1002600200690744907917D
:10EA2000002108911C21109848436F494018039019
:10EA30000C211098484369494018C07A182148436E
:10EA40006C494018049000200590A88803AB002270
:10EA500011467FDF0446002C01D009940DE00C2103
:10EA6000109848435D494018807A042108430C22DD
:10EA700010995143594A8918887209E15448407ADB
:10EA800040084000524948720C21109848435349AD
:10EA90004018807A042188430C22109951434F4A30
:10EAA00089188872142008A90872012601200E9086
:10EAB000A879002802D0A87909905CE0E87940079D
:10EAC000C00F002857D008A8807DFF2853D00C2104
:10EAD0001098484341494018807A082108430C2285
:10EAE000109951433D4A89188872A87A8007C00F4F
:10EAF00000280DD01821109848433E494018C07D89
:10EB0000410849001822109850433A4A8018C175AC
:10EB10000C211098484331494018C07AFF282AD068
:10EB20000C21109848432D49085C02281FD00C2363
:10EB3000109A5A430B46D11808AA927D18235A43BB
:10EB40002C4BD218104610300722FEF78EFB08A877
:10EB5000807D1821484327494018C07D0221884301
:10EB600008A9897D18225143224A8918C8750121B4
:10EB70000DA8FFF7ABFB8BE0A8790009012857D15E
:10EB8000A8790007000F012852D10C2110984843A2
:10EB900012494018807A08210840082848D1109965
:10EBA0000901154A8918081D0A21FEF7BDFB162028
:10EBB00008A9087201200E900C21109848430749BB
:10EBC0004018807A202108430C2217E040280020BA
:10EBD000A02C0020C015020088090000882C00200D
:10EBE000FFFF000034280020302C00209C1502007C
:10EBF000AC2C0020882B0020682C00201099514359
:10EC0000474A891888720C211098484311464018C9
:10EC1000807A402108430C2210995143404A8918B8
:10EC200088724048407A022108433E4948721CE0FD
:10EC30000C21109848433A494018807A80210843B3
:10EC40000C2210995143364A89188872152008A958
:10EC500008723448807A8000334A11580DA88847DA
:10EC60000446002C01D0314809900020099001266B
:10EC70000EE02C48807A80002B4A11580DA8884756
:10EC8000099005E0132008A90872012600E000BFE2
:10EC900000BF002E16D00AA90DA8099AFEF798FD0C
:10ECA00008A8007A12280DD100BF0C211098484303
:10ECB0001B494018807A012802D01098FFF730FADB
:10ECC00000BF00BF0E98002827D01648407A0221C6
:10ECD0000840022821D107AA20211548FFF7FCF996
:10ECE0000446002C12D1002108A801700798C1B277
:10ECF00008A841700C210798484309494018C17A77
:10ED000008A8817000F00CFD044605E00548407A33
:10ED1000022188430349487200BF00BF5DE500003F
:10ED2000882C0020A02C0020AC150200418000009F
:10ED3000FFFF00000146002901D104487047FF2071
:10ED4000087048708870C8700020F7E70E800000D7
:10ED50007FB50646002E02D1354804B070BD0024B0
:10ED60000FE000BF00210C206043324A11500C20FC
:10ED70006043801841720C2060438018817200BF8C
:10ED8000641C002CEDD0002403E02046FFF7C8F9F6
:10ED9000641C022CF9D320212748FEF7C5FA002471
:10EDA00003E0204601F06EF9641C072CF9D34821DA
:10EDB000684681810721C18120480290204902A82C
:10EDC00001F03EFB0546002D30D101201D490870A1
:10EDD0003078002821D100241CE0A1B26A461848EE
:10EDE00001F0A6F90546002D0FD118216143164AFE
:10EDF000881800231822694601F0ACFA0546002D58
:10EE000007D000200F49087006E000200D49087067
:10EE100002E0641C072CE0D308E06A469089D2899E
:10EE2000504381B2064801F0CBF90546284694E7E5
:10EE30000E800000A02C0020682C002011EF0100A3
:10EE40003428002040280020882B002070B504467C
:10EE50000E4600BF29480078002801D1284870BD1F
:10EE600000BF002C02D12648801DF8E7002E02D1F9
:10EE70002348801DF3E700BF2078012806DA2078B8
:10EE80000C2148431F490858002801D11C48E6E7D7
:10EE900000BF1B4DED1EA078FF2817D16078FF281A
:10EEA0002AD060780C21484317494018807A022103
:10EEB0000840022820D160780C225043124A811861
:10EEC00007223046FEF7D1F9002515E0A078182179
:10EED00048430E494018C07D0221084000280BD14C
:10EEE000A07818225043094A8018014610310722A1
:10EEF0003046FEF7BAF900252846B0E74028002042
:10EF000008800000A02C0020882C0020882B0020E6
:10EF1000FFB58FB00F461D4600BF7348006800283C
:10EF200001D113B0F0BD00BF1898482800D9F8E708
:10EF3000012006900BA8FFF7FDFE064600BF0596D0
:10EF4000059E002E06D000BF684A69490598FEF765
:10EF50002BFC00BF00BF002108A8017301740A95B3
:10EF6000189809900020059017E0059881B207AA2B
:10EF7000604801F0DDF80646002E0BD1082207A9F3
:10EF80000F98FEF745F9002804D10598C1B208A8EA
:10EF9000817305E00598401C059005980728E4D387
:10EFA00000BF08A8807BFF2874D0042F0AD11898CE
:10EFB000482803D1202008A9087471E0402008A93E
:10EFC00008746DE04C49681A1821FEF7AFF9044641
:10EFD000072C1DD209A80D901198002810D108A95E
:10EFE000887B01218140454A12681140002901D0E7
:10EFF000012100E00021002902D1002006904FE00D
:10F0000008A9887B02F0ACFA202008A9087447E020
:10F010003B49681A1C21FEF789F90446022C1AD2D2
:10F0200009A80D90202108A80174447300200390C2
:10F03000344904911C20604331494018009008A8CD
:10F04000807B182148432C494018019068460A905B
:10F050001820099024E02C48281A0409022C1AD2FE
:10F06000302108A8017444730121C1730C2060434E
:10F0700026494018807A02210840022810D008A8AA
:10F08000407B0001204940180021016041608160FF
:10F09000C16005E026E000200690402008A9087421
:10F0A000069801281ED1042F06D108A9087C032147
:10F0B000084308A908740EE0032F06D108A9087CAC
:10F0C0000121084308A9087405E008A9087C022169
:10F0D000084308A9087409A80D900CA90BA8119A57
:10F0E000FEF776FB00BF1CE7A02C0020C015020035
:10F0F0005B05000034280020882B00203C280020DD
:10F10000302C0020AC2C0020682C0020882C002003
:10F1100070B505460C4600BF17480078002801D19D
:10F12000164870BD00BF002D02D11448801DF8E7BD
:10F13000002C02D11148801DF3E72068002802D17D
:10F140000E48801DEDE70E48006800280FD10C49DD
:10F15000206808600522611D0948001DFEF785F83A
:10F1600020790749887200202870002601E0034EAC
:10F17000361F3046D5E700004028002008800000F8
:10F18000A02C0020F8B5044600BF504800780028A5
:10F1900001D14F48F8BD00BF002C02D14C48801D62
:10F1A000F8E700BF2078012806DA20780C214843D0
:10F1B00048490858002801D14548EBE700BF00BF87
:10F1C0006078022807DA60780C21484342494018E9
:10F1D000807A012802D13E480830DBE700BF3C4D71
:10F1E00060780C2148433C494018807A022108404D
:10F1F000022868D1A078FF2807D160780C21484305
:10F2000035494018C07AFF281BD060780C2148434C
:10F2100031494018C07AA07063781C2673432F4E82
:10F220009A1963781C2673432C4E9B191946123188
:10F2300063780C267343284E9B19188981DF054695
:10F2400041E060780C225043234A81186846FFF75A
:10F25000A5F80546002D35D16846017860780C2266
:10F2600050431D4A8018C17268460078A07020780B
:10F270000C21484317494018407AC007C00F0028A6
:10F280001CD060780C21484311464018807A202118
:10F29000084361780C2251430F4A891888722078FC
:10F2A0000C2148430B494018407A02210843217839
:10F2B0000C225143074A8918487203E0204600F0A7
:10F2C0002FFA054600BF284664E7000040280020CA
:10F2D00008800000A02C0020882C0020302C00206A
:10F2E000F8B5044600BF3E480078002801D13D48EB
:10F2F000F8BD00BF002C02D13A48801DF8E7002974
:10F3000002D13848801DF3E70868002802D135484B
:10F31000801DEDE78868002802D13248801DE7E7AC
:10F3200000BF2078012806DA20780C2568432E4D8E
:10F330002858002801D12B48DAE700BF002200231B
:10F340000020009000BF45E00025009500BF12E0BE
:10F350000C266E43254FF619F67A86420AD10C2602
:10F360006E43F619B67A02273E40022E02D10126DC
:10F37000009602E06D1C022DEAD300BF009D002D17
:10F3800027D10D7B9D420FD918254543184EAD1945
:10F39000ED7DED07ED0F002D06D118254543AD1984
:10F3A0009F008E68F5515B1C0D79954211D9182587
:10F3B00045430F4EAD19ED7D02263540002D08D195
:10F3C000182545430A4EAD19103597000E68F551C2
:10F3D000521C401C0728B7D30A710B73002087E723
:10F3E0004028002008800000A02C0020882C00204D
:10F3F000882B0020014614480078144A1278904265
:10F400001DD011480078401C0F4A1070104600783B
:10F41000022801D1002010700B48007880000C4AAF
:10F42000105808600B4A086812688018094A106072
:10F43000104600680002000A10600120704700209A
:10F44000086000BFFAE70000702800207128002043
:10F450006828002064280020F0B50346002426E038
:10F46000164E366824277E43154F3F68F0194668CC
:10F470009E4203D94668F61A46601DE046689B1B0B
:10F48000466834190026466006750C4E35680B4FE9
:10F49000066A3E600669002E08D00E193602360A4A
:10F4A00086600669C66016680662156000BF03487C
:10F4B0000068401C0028D3D100BFF0BD60280020A8
:10F4C0005428002001460020704702460020704763
:10F4D0000246002070470000F8B5044600260027C9
:10F4E000607800011849085800281CD060780C2169
:10F4F000484316494018807A80210840802812D15C
:10F5000060780C21484311494018807A4021084016
:10F51000402808D0607800010B494018061D60782B
:10F520000001085A87B261780C225143074A8918B2
:10F53000088903233A463146A9DF0546002D00D04D
:10F54000034D2846F8BD0000682C0020882C0020C0
:10F550004180000070B505460C46617809010B4AF0
:10F56000881834231022294600F0F4FE0646002EA7
:10F570000AD16078000105490858401C002803D1D1
:10F5800061780901014A5050304670BD682C002056
:10F59000F0B585B007460C460A20039061780C222E
:10F5A0005143264A89180889032303AA6946AADF1A
:10F5B0000646002E3FD161780901214A8918081DAD
:10F5C00069468A89FDF724FE002813D160780C2152
:10F5D00048431A494018807A0221084002282AD05C
:10F5E0006078000116494018002101604160816087
:10F5F000C16020E06078000111490858002801D05E
:10F60000104D00E0104D69468889617809010C4A67
:10F610005050617809018918081D69468A89FDF7EB
:10F62000B1FD60780001064A811834231022384663
:10F63000A847064600BF002005B0F0BD882C00207A
:10F64000682C0020ED070200C105020070B50546D8
:10F650002846FFF741FF0446002C02D100BF00BF3F
:10F660000446204670BD70B505460E463146284614
:10F67000FFF770FF0446002C02D100BF00BF044614
:10F68000204670BD70B505460E4631462846FFF748
:10F690007FFF0446002C02D100BF00BF0446204675
:10F6A00070BD10B5122000F0B5FA132000F0B2FAC8
:10F6B000122000F0B9FA132000F0B6FA10BD0000D5
:10F6C00030B585B001200090022001900320029007
:10F6D0000420039000216846017401214174302107
:10F6E0008174C1740A4801F071FB044600BF2546CD
:10F6F000002D06D000BF07A2FF21FC312846FEF7EF
:10F7000053F800BF684601F06DFB05B030BD000046
:10F710000D0D02007372635C6D61696E2E630000F3
:10F7200070B5044622780C235A431C4BD218111D85
:10F7300062780C235A431A4BD21810897EDF054693
:10F74000002D29D120780C21484314494018407AD3
:10F750000121084321780C225143104A891848722C
:10F7600060780C2148430E494018807A04210843F0
:10F7700061780C2251430A4A8918887260780C21FA
:10F78000484311464018807A2021884361780C2232
:10F790005143034A89188872284670BDA02C002066
:10F7A000882C0020F8B529480078002800D1F8BD41
:10F7B00027480068002801D1012000E0002005460C
:10F7C00024480068002801D1012000E000200646FE
:10F7D00000BF002D14D1684651DF0446052C01D12D
:10F7E00001250CE0002C06D000BF1B4A69212046F1
:10F7F000FDF7DAFF03E0164900980968884700BF63
:10F80000002E1AD1154800880090694614480068F7
:10F8100061DF0446052C01D101260DE0002C06D045
:10F8200000BF0D4A80212046FDF7BEFF04E00C48D2
:10F83000006808490968884700BF002D02D0002EE3
:10F8400000D000E0C5E700BF00BFB0E78628002079
:10F850008C280020882800206016020084280020C0
:10F860008028002010B502460B896020805C2E2481
:10F8700060438018808D834201DA012010BD002092
:10F88000FCE770B50446002A16D10D896020005DA2
:10F890002E2670430019808D854201D1002070BD55
:10F8A0000889401C18806020005D2E2568430019DF
:10F8B000808D58800120F2E70889401CD588A84235
:10F8C00001D10020EBE70889401C1880D088401E39
:10F8D00058800120E3E700000C48008CC0B20128EA
:10F8E00012D10A48808C0007000F00280CD107486D
:10F8F000806AF0210840402806D10448C06A0840C8
:10F90000002801D1012070470020FCE7C00F00F063
:10F910001948008CC0B201282CD11748808C0007F0
:10F92000000F002826D11448806AF02108400028E2
:10F9300006D11148C06A0840002801D10120704753
:10F940000D48806AF0210840102806D10A48C06A94
:10F950000840002801D10120F1E70748806AF02122
:10F960000840302806D10448C06A0840002801D168
:10F970000120E4E70020E2E7C00F00F0014688071D
:10F98000800F002801D1012070470020FCE7000013
:10F99000FEB52B48006801902A480078009040E0AE
:10F9A0000098C000284909684418257835E01820D7
:10F9B000684361680F18681CC5B2A078A84200D1DE
:10F9C00000253878022802D0032823D10EE0242114
:10F9D000786848431D4909684618307D002804D0DE
:10F9E000786801F0F7FC0020307514E00CE0144951
:10F9F000096824225143154A1268881800210175AC
:10FA00000F4A016A116000BF0D480068401C0028C1
:10FA1000EDD100E000BF00BF00BF6078A842C6D1B2
:10FA200000BF0098411EC9B200910028B8D1044817
:10FA300001680198814201D00120FEBD0020FCE751
:10FA400060280020582800205C280020542800202E
:10FA5000FEB5074640480068029040480078019093
:10FA60006BE00198C0003E49096845185DE0781CCC
:10FA7000002807D03E46242070433A4909684418BC
:10FA8000276A23E02978182359436A68501829788F
:10FA9000491C29702978AA78914201D10021297046
:10FAA0004668242171432F4A12688C180178012975
:10FAB00002D1217D002900D037E08168A160C168B2
:10FAC000E160016921614169E16100BF2649A068E7
:10FAD0000968401A0002000A2449884208D22249D3
:10FAE000A068096801F0B3FBE1684018606011E0AC
:10FAF0001D48A168006801F0AAFB0090E168009829
:10FB0000814204D9E1680098081A606001E0002091
:10FB1000606000BF0020A060E06001202075801EB2
:10FB20002062304601F0E8FB00BF781C00289ED11F
:10FB30002878697888429AD100BF0198411EC9B2DD
:10FB4000019100288DD1044801680298814201D0BA
:10FB50000120FEBD0020FCE760280020582800207E
:10FB60005C2800205428002064280020FFFF7F002C
:10FB7000FFF797FDFFF7A4FDFDF73EFFFEF7C0F886
:10FB8000FEF718FD00F060FF00BFFEE70146002011
:10FB90007047024600207047024600207047000070
:10FBA0007FB5044602216820015501216846017095
:10FBB00000214170012101716720015D0C2041434A
:10FBC00020463430081841896846C18000210181EF
:10FBD0000221418103905C21085B01A997DF054662
:10FBE00000BF2E46002E06D000BF04A27F21304663
:10FBF000FDF7DAFD00BF00BF7FBD00007372635CDC
:10FC0000636C69656E745F68616E646C696E672EA3
:10FC10006300000003210522120707231B02D218EC
:10FC20008300D1507047000001218140014AD1601A
:10FC30007047000000050050F0B58FB00446261D47
:10FC4000208819281AD01B2802D01D2828D116E098
:10FC50002822A11D05A8FDF708FB13A30FCB01AFB8
:10FC60000FC7102208A9023101A8FDF7D1FA002818
:10FC700003D1114A1149A01D88DF12E011E030883C
:10FC8000B11C75DF054600BF2F46002F06D000BF10
:10FC90000BA2FF2102313846FDF786FD00BF00E0D0
:10FCA00000BF00BF0FB0F0BD2CCC009C192D4CA0A4
:10FCB000BC5A223F0C2023B37415020048290020AF
:10FCC0007372635C6D61696E2E630000F3B587B07B
:10FCD0000546002006906020405D2E2148434419CF
:10FCE00008984088002857D1089808300590207956
:10FCF000049005980078039003990498401803280D
:10FD000004DC217903980818207101E00320207198
:10FD1000049E0020029017E00A22029842430598B0
:10FD2000801C11180C207043A21D83180A2218464B
:10FD3000FDF79BFA00210C207043A21D8018418121
:10FD4000761C0298401C02902079B042E4D8701EC4
:10FD50000C214843A11D4018019028460199FFF746
:10FD600081FD002802D02079032802D101200690CD
:10FD700011E021795F2041552846FDF793FE0746A3
:10FD8000002F08D000216120415539462846FEF752
:10FD9000D5FC09B0F0BD01E00120069006980028CE
:10FDA0001DD000215F20415505A92846FEF734FAF1
:10FDB0000746002F07D000216120415539462846CB
:10FDC000FEF7BCFCE5E76846007D002806D001216F
:10FDD0002846FEF761FC284600F0FAF800BF00BF95
:10FDE000D7E70000FEB504460D466020005D2E21D9
:10FDF000484307192E4608365F20005D0C21484312
:10FE0000B91D401802906888002816D100BF0FE085
:10FE100006214143B21C891849881F4A914206D1E4
:10FE200006214143B21C525A02994A8103E0401C08
:10FE300031888142ECD800BF00BF002001905F20D4
:10FE4000005D401C3979884202D10120019016E002
:10FE50005F20005D401CC1B25F20015501A9204612
:10FE6000FEF7DAF900900098002807D00021612001
:10FE7000015520460099FEF761FCFEBD00BF6846B3
:10FE80000079002806D001212046FEF705FC204617
:10FE900000F09EF800BFF0E70229000070B50546AB
:10FEA0000C461646002C18D06820005D032814D19B
:10FEB000AA896720015D0C20414320463430081890
:10FEC0000089824209D1288A192806D11922294697
:10FED000123120466930FDF7C8F970BD70B505468E
:10FEE0000C4600BF287B002801D1012000E0002043
:10FEF0000646002E06D100BF06A2FF210E31FDF7F7
:10FF000053FC00BF00BF002C02D004216820015523
:10FF100070BD00007372635C636C69656E745F68CA
:10FF2000616E646C696E672E6300000010B5002975
:10FF300020D06822525C022A1CD184896722535C3B
:10FF40000C2253430A4634329A18528994420ED0F6
:10FF500084896622535C0C2253430A4634329A1831
:10FF60005289944203D004236822535402E00323AD
:10FF70006822535410BDF8B504460D466888002821
:10FF80001DD16020005D2E21484307192E460836FA
:10FF900071883980B0887880F2887A853189B9850E
:10FFA0002046FDF77FFD00900098002806D0002134
:10FFB0006120015520460099FEF7C0FB06E00021B4
:10FFC0002046FEF769FB204600F002F8F8BD00006D
:10FFD00070B504461C480068401C1B490860084670
:10FFE00000681A490968884228D200215F2001551B
:10FFF0006020005D401CC1B260200155005D2E21D3
:020000040002F8
:10000000484305196020005DC0001149401801886F
:10001000298040886880002028715C21085B2A467E
:10002000012190DF0646002E07D0002161200155F6
:1000300031462046FEF782FB70BD02E000216120C0
:10004000015500BFF8E70000202800201C280020F0
:10005000A42A002010B50446022C02D0032C0BD198
:1000600000E000BF06480078002804D000200449C2
:10007000087000F0E9FC00E000BF00BF10BD000008
:100080001428002010B50446182161430E4A89182F
:10009000084611300621FDF745F9182060430A494A
:1000A00040180021016041608160C160FF2118207B
:1000B0006043054A80180174182060438018C17598
:1000C000204601F04DFA10BD882B002010B5002409
:1000D00009E038226243084BD01838226243D21814
:1000E000516B8847641C054800688442F1D30020A6
:1000F0000349086010BD0000B42A00201C2800201D
:1001000018280020014600BF07480078002801D1C8
:100110000820704700BF002901D10E20F9E70348ED
:10012000407808600020F4E732280020242B0020CB
:100130003CB5034600BF20480078002801D10820C4
:100140003CBD00BF002B01D10E20F9E7002A01D1F0
:100150000E20F5E71868002805D118680001174C33
:100160002058002801D10720EAE75C68186801944C
:100170000090019C18680001104D40190089484307
:1001800020180190009800012C4600194089009C1D
:100190002401641924896043009C24016419646863
:1001A0000019019CA04201D80720C9E7019C0098D2
:1001B000546010600020C3E732280020782B002014
:1001C000F8B504460D4600BF27480078002801D145
:1001D0000820F8BD00BF002C01D10E20F9E72068EF
:1001E000002805D12068000120490858002801D1C5
:1001F0000720EEE7206800011C494018408921686B
:1002000009011A4A8918098948432168090189188E
:10021000496840186168884201D80720D9E76068BA
:10022000FFF7ACFB002801D11020D2E723681B01A7
:100230000E4FDB1962685B68D01A226812013B46D8
:10024000D2181189FDF772F8002901D00720C0E704
:1002500000202B460246214600900420FDF794FE24
:1002600006463046B5E7000032280020782B0020F3
:1002700070B5FDF7CFFE00202E4908802E4840695A
:10028000401C002808D001221207126991B22A4AA4
:100290005069FDF74BF802E0012000074069801E1D
:1002A00001210907096989B24843244908600020EF
:1002B0002349088000BF0DE000210201214B995025
:1002C0000201D21811810201D21891810201D218C3
:1002D0005181401C0028EFD008201B4908701648A7
:1002E0004069401C002808D001221207126991B20F
:1002F000114A5069FDF71AF802E001200007406931
:10030000401E01210907096989B2484306460120B8
:100310000007006981B23046FDF708F8054628DF7E
:100320000446002C04D1012008498870084908704F
:10033000204670BD28280020001000102C28002026
:1003400030280020782B002033280020242B002088
:1003500032280020FFB581B00C4615461E4600BF6E
:1003600035480078002802D1082005B0F0BD00BF54
:10037000002C01D10E20F8E70198002801D10E20B1
:10038000F3E72068002805D1206800012B490858B0
:10039000002801D10720E8E720680001274940181C
:1003A000408921680901254A89180989484321683B
:1003B00009018918496840186168884201D80720F6
:1003C000D3E7002D06D0206800011C4940180089A1
:1003D000A84201DA0720C8E7A81921680901174ACD
:1003E00089180989884201DD0720BEE70198FFF7D7
:1003F000C5FA002804D03046FFF7C0FA002801D122
:100400001020B2E76068FFF7B9FA002801D1102088
:10041000ABE7606881192A460198FCF726FF009532
:100420002068000105490F58002203212046019B46
:10043000B847002099E7000032280020782B0020E0
:10044000F8B504460D4600BF58480078002801D191
:100450000820F8BD00BF002C01D10E20F9E7002DC7
:1004600001D10E20F5E72068002801D10E20F0E729
:10047000A08801210907096989B2884202DCA088A5
:10048000102801DA0720E4E7E088002830D0484847
:100490004069401C002808D001221207126991B25D
:1004A000434A5069FCF742FF02E00120000740691F
:1004B000401E01210907096989B24843E188A288E1
:1004C00051433C4A12688918884211D3E088A188B8
:1004D000484301210907096989B288420ADDA188D8
:1004E00001221207126990B2FCF72AFF002901D0FD
:1004F0000720AEE720798007800F002801D0072071
:10050000A7E72D480088012801D10420A1E72A4847
:100510000088286027480068686027490988090121
:10052000264A8918686848602349098809012068B3
:100530005050A08820490988090189180881E0885D
:100540001D4909880901891848810027A688E18882
:100550004E4300BF781C87B201200007006980B2BB
:10056000B04205D201200007006980B2361A00E0CF
:10057000002601200007006980B20E490968401872
:100580000C49086001200007006980B2B042E1D93F
:1005900009480088000109494018878106480088F9
:1005A000401C05490880002053E700003228002045
:1005B000001000102C28002028280020782B002074
:1005C000F8B504460E4615461F4600BF2F48007872
:1005D000002801D10820F8BD00BF002E01D10E2057
:1005E000F9E7002C01D10E20F5E72068002805D19D
:1005F0002068000126490858002801D10720EAE7B1
:100600002068000122494018408921680901204AD8
:1006100089180989484321680901891849684018DF
:100620006168884201D80720D5E7002D06D02068F0
:100630000001174940180089A84201DA0720CAE7DB
:10064000E81921680901124A89180989884201DDDF
:100650000720C0E73046FFF791F9002804D038465C
:10066000FFF78CF9002801D11020B4E76068FFF78C
:1006700085F9002801D11020ADE72B4632462146EE
:1006800002200097FDF780FCA5E70000322800203B
:10069000782B0020FEB505460026504880780128BA
:1006A0007ED100204D4988704D480078082811D12E
:1006B000022D03D100204A49087002E00020494978
:1006C0000870FDF731FC0646002E02D03046FDF7DB
:1006D0008DF8FEBD022D02D0032D79D174E03F4884
:1006E0000078142148433D49091D44183E480088BC
:1006F000401C3D4908802078022807D10846008820
:1007000080026188884201DB012000E0002007466A
:100710002078052805D132480078072801D101202A
:1007200000E0002002902078042805D12C480078B1
:10073000072801D1012000E0002001902078042842
:100740000BD12948008880026188884205DB244853
:100750000078002801D1012000E0002000900298DC
:10076000002807D10198002804D10098002801D161
:10077000002F1FD000201A4908703046FDF736F8C8
:1007800016490878FDF7E2FB002017490880134856
:100790004078401E1149487008460078401C00E02F
:1007A00019E0087008460078042803DB0846007842
:1007B000001F0870FDF7B8FB0646002E02D0304639
:1007C000FDF714F805E003E00D20FDF70FF800E059
:1007D00000BF00BF00BF00BF7BE70000242B00204C
:1007E000332800203228002030280020F8B50446A5
:1007F0000E4615461F4600BF2F480078002801D13D
:100800000820F8BD00BF002E01D10E20F9E7002C12
:1008100001D10E20F5E72068002805D120680001ED
:1008200026490858002801D10720EAE7206800017E
:1008300022494018408921680901204A89180989FC
:10084000484321680901891849684018616888424D
:1008500001D80720D5E7002D06D0206800011749F0
:1008600040180089A84201DA0720CAE7E819216880
:100870000901124A89180989884201DD0720C0E769
:100880003046FFF77BF8002804D03846FFF776F8AB
:10089000002801D11020B4E76068FFF76FF8002846
:1008A00001D11020ADE72B463246214605200097A6
:1008B000FDF76AFBA5E7000032280020782B002016
:1008C0000246002112E0C8000B4BC01880789378D4
:1008D00098420AD1C800084B185A1388984204D18C
:1008E000C800054BC01840687047491C03480068A1
:1008F0008142E8D30020F7E7A42A00201C2800202A
:1009000002460E480068022815D20C480068C00054
:100910000B4BC01813880380538843800748006836
:10092000C000074BC018416004480068401C034BDE
:100930001860002070470420FCE700001C280020FD
:10094000A42A0020014840687047000000150140BB
:1009500010B5012000040A4948600949403948603F
:100960001120FCF71FFE1120FCF726FE012005498F
:1009700008602F20FCF7F6FB01200349087010BD2A
:1009800040130140001001407828002010B51120CC
:10099000012181400E4A116000BF012000040D4971
:1009A00088600C494039886001200B4948602F203D
:1009B000FCF7D8FB0120084988600020074908603F
:1009C0002F20FCF7CFFB00200549087010BD000068
:1009D00080E100E040130140001001406428002045
:1009E000782800203EB50546002000900190029036
:1009F000E81CFDF793F80446022C00D13EBD01210E
:100A000068460170822060430E494018801D822193
:100A100061430C4A8918603189790C22514340188E
:100A2000018968464180002181801921C180029599
:100A300082216143034A89184031888B694697DFD8
:100A400000BFDBE7A029002030B595B06846FFF76E
:100A500059FB044600BF2546002D06D000BF39A231
:100A6000FF2191312846FCF79FFE00BF0098002827
:100A700004D001203649087015B030BD082110A8F7
:100A800001720021017409A8119001A8139011A905
:100A90003048FEF725FC044600BF2546002D06D051
:100AA00000BF28A2FF21A1312846FCF77DFE00BF30
:100AB00010A8007A002803D110A8007C002803D0D9
:100AC00025480078012813D02448007840084000C9
:100AD0002249087008460078022188431F4908709F
:100AE000A02008815020488100204860888117E0BC
:100AF0001A480078400840001849087008460078F5
:100B000002218843801C15490870A02008815020CC
:100B1000488111A848601E20888101200E49087074
:100B20000E4886DF044600BF2546002D06D000BFD4
:100B300004A2FF21BD312846FCF736FE00BF00BFEE
:100B40009AE700007372635C6D61696E2E6300004A
:100B5000142800200D2800201328002048290020F8
:100B6000F0B502460C46002037E0012383401946C9
:100B700023460B40002B2FD0D5680D40002D05D10A
:100B800001235B04D5680D43D56004E003231B04F7
:100B9000D5688D43D56005252D0707263602AD198A
:100BA0008600AD5903263604B543052636070727C8
:100BB0003F02F6198700F55105252D070726360255
:100BC000AD198600AD591D430526360707273F029C
:100BD000F6198700F55100BF401C2028C5D3F0BD91
:100BE00070B504460121682001555C20015B204658
:100BF000FCF7ACFE054600BF2E46002E06D000BF17
:100C000003A265213046FCF7CFFD00BF00BF70BDD9
:100C10007372635C636C69656E745F68616E646C4B
:100C2000696E672E6300000070B504460D46002D06
:100C300006D000BF0120A0400349886000BF02E049
:100C40002046FEF7F1FF70BD0005005010B50446C8
:100C50000248047000F06EF910BD0000A8280020C2
:100C600070B506460C46154629462046FCF7F4FDAD
:100C700070BD00000146002901D10E2070470248D6
:100C800001600020FAE7000088280020FFB581B04D
:100C90000C4616461F46002C02D1072005B0F0BDB9
:100CA00020468107890F002901D1012100E00021A0
:100CB000002901D10720F1E70948046009480680AE
:100CC000094807600949019810DF0546002D01D049
:100CD0002846E3E701200649087016202EDFDDE7ED
:100CE00080280020842800207C280020610C02003D
:100CF000862800200146002901D10E2070470248B5
:100D000001600020FAE700008C28002007B5684643
:100D10000078002802D0012819D100E017E00D4822
:100D2000007806280BD10C490A48401C00F000FC52
:100D300019231A460749084800F010F806E005484C
:100D40000078082802D10348FFF74CFE00BF00BF1F
:100D50000EBD0000B4280020CD280020FFB581B0D2
:100D600005460E461746002D01D0002E02D10E205A
:100D700005B0F0BD10480078002806D0012814D036
:100D8000022804D0032812D100E000BF00BF0B48A6
:100D900005600B4806600B4807600B490498086023
:100DA00000240120FFF752FF03E0082401E00324A0
:100DB00000BF00BF2046DBE7A828002098280020BD
:100DC0009C280020A0280020A428002001460448D8
:100DD00001600068002801D0002070470E20FCE769
:100DE000AC28002070B50446002C01D10E2070BD47
:100DF00046480068000205210907072212028918E7
:100E00002268920088504248006880000521090746
:100E1000072212028918E2689200885000200521FA
:100E2000090707221202891862689200885000217F
:100E300005200007072212028018A2689200815044
:100E40003449E0684861A06888606068086120688B
:100E5000C860002088632F49403188600025002643
:100E6000207C002806D0012806D0022806D00328BE
:100E700008D105E0002507E0022505E0042503E090
:100E8000062501E0072600BF00BF002E01D0304636
:100E9000ADE7607C00280BD1012028431D4940317B
:100EA0004861A07CC861E07C1A49C03108600AE052
:100EB000184840304561A07C16494031C861E07C4B
:100EC0001449C0310860002013494860886204203A
:100ED0001249086000201249087003210420FCF721
:100EE0007FFB0420012181400E4A116000BF0E48A3
:100EF0000E4948600420012181400D4A116000BF65
:100F0000022004490860304671E700009428002060
:100F10009028002000450040004100400042004071
:100F2000A828002080E200E0020400000043004006
:100F300000E100E03EB527480078012804D00228EF
:100F400006D0032843D120E00120234948623FE036
:100F50000020694608700190029000BF1F48006899
:100F6000002801D0012000E000200446002C05D11B
:100F700000BF1B4ACA21FCF717FC00BF00BF174B7C
:100F8000684607C81B68984722E001206946087038
:100F90001448C06B019013484030C068029000BFF5
:100FA0000E480068002801D0012000E0002004461F
:100FB000002C05D100BF0A4AD321FCF7F5FB00BF86
:100FC00000BF064B684607C81B68984700E000BF93
:100FD00000BF3EBDA828002000400040AC280020F3
:100FE000AC1602000045004010B50446002010BDBC
:100FF000FFB583B004460F46154603268D4800789A
:1010000000280BD1002D06D10698002803D102201C
:101010008849087002E001208649087085480078F8
:101020000300FCF7B3FB07FD05314E84BAD7FD0082
:1010300081484069401C002808D00122120712692B
:1010400091B27D4A5069FCF771F902E00120000776
:101050004069401E01210907096989B2484302908D
:101060000120000700690004820C012000070069CC
:1010700080B278430146029829DF0646002E02D14D
:1010800002206C490870D0E0384628DF0646002E62
:1010900016D1002D11D1069800280AD120780428F5
:1010A00003D10720634908700AE0052061490870F0
:1010B00006E004205F49087002E003205D490870E3
:1010C000B3E05D484069401C002808D001221207A7
:1010D000126991B2584A5069FCF728F902E00120E0
:1010E00000074069401E01210907096989B2484388
:1010F000012109070290096989B2794308462A4605
:10110000029929DF0646002E10D1069800280AD140
:101110002078042803D106204649087006E00520FF
:101120004449087002E00420424908707DE04248CA
:101130004069401C002808D001221207126991B2B0
:101140003D4A5069FCF7F2F802E0012000074069CF
:10115000401E01210907096989B24843A9004018C6
:1011600061884018012109070290096989B2794311
:10117000AA00891862888818069A029929DF06460B
:10118000002E09D12078042803D1062029490870AF
:1011900002E005202749087047E0012000070069A8
:1011A00080B27843AB00C018029060888208216941
:1011B000029829DF0646002E0BD1002D06D1069895
:1011C000002803D107201B49087002E006201949B6
:1011D00008702AE018484069401C002808D0012205
:1011E0001207126991B2144A5069FCF79FF802E0A5
:1011F000012000074069401E01210907096989B2E1
:101200004843019001200007006981B20198FCF772
:101210008DF8029028DF0646002E04D1072000E05A
:1012200002E00449087000E000BF00BF304607B08C
:10123000F0BD0000332800200010001010B5044657
:101240002046FFF727FA2046FEF704FF10BD0246AE
:10125000501A0002000A704770B504460D48006835
:10126000002813D00B4AE169A0691268904705462F
:1012700000BF2E46002E07D000BF074AFF21643171
:101280003046FCF791FA00BF00BF02E0A169E069B7
:10129000884770BD742800201C160200FEB500208F
:1012A000C04301900F4804680F4807686846FEF77E
:1012B000A1F80546FEF76CFB0646002D05D001AAF5
:1012C00021460098FEF7C8F801260198FEF7C0FBFA
:1012D000002800D00126002E02D03846FCF7B4FECC
:1012E000FEBD0000642800206028002010B51420F6
:1012F000FCF76CF910BD0000F0B502462420504305
:10130000324B1B68C11832480068401C002802D1CB
:101310002F48026059E02E484B680068242460433F
:101320002A4C246800194068834217D8284800686E
:1013300024235843254B1B68C01840684B68C31AC8
:101340002348006824246043204C2468001943602B
:101350001F48006808621E48026036E04B681C4D5A
:101360002C6828680DE024254543184E3668AD19D1
:101370006D685B1B044624254543144E3668AD1941
:10138000286A451C002D07D0242545430F4E36689A
:10139000AD196D689D42E6D3451C002D0CD0242567
:1013A00045430A4E3668AD196D68EE1A242545434B
:1013B000064F3F68ED196E604B6008622425654357
:1013C000024E3668AD192A6200BFF0BD54280020D5
:1013D00060280020F8B50646294805682C4609E033
:1013E000B44200D109E0254624206043254909681C
:1013F0004018046A601C0028F2D100BF601C00285D
:1014000000D1F8BDA54210D11D48006824214843F1
:101410001C4909684018006A1949086008460068B4
:10142000401C002801D1FFF7B1FA24206043154980
:101430000968401847682420604312490968401829
:10144000016A242068430F4A126880180162242030
:1014500068430C4909684018046A601C00280CD0D5
:10146000242060430749096840184068C1192420B6
:101470006043044A12688018416000BFC1E7000061
:101480006028002054280020F8B520480068401C3F
:1014900000283AD00027FFF755FA04461C48016897
:1014A0002046FFF7D4FE06461848056811E02420C0
:1014B00068431849096844186068B04200D90BE0D5
:1014C0006068361A6068C719256A2046FFF7C4FEAF
:1014D00000BF681C0028EAD100BF0F4800780F4900
:1014E0000978884209D10D480078401CC0B20B49E8
:1014F0000870022801D10020087008480078800098
:1015000007490F50FFF7F2FE00BFF8BD602800202A
:101510006428002054280020702800207128002012
:101520006828002010B51120FCF750F810BD00000D
:1015300070B506460C463046FCF7F0FA0546022D1B
:1015400000D170BD82206843044A80180146693189
:1015500019222046FBF789FE00BFF2E7A0290020F0
:1015600001218140024A12688A4301490A6070479A
:101570003C28002006001800000090012CCC009CA4
:10158000192D4CA0BC5A223FCF0423B399FB010074
:1015900091F50100D1F4010085F6010093FB0100F3
:1015A00055F50100CBF4010067F601008DFB010049
:1015B000D9F40100C5F401004DF60100FFFFFFFF63
:1015C000433A5C4B65696C5F76355C41524D5C44D7
:1015D00065766963655C4E6F726469635C6E7266A2
:1015E00035313832325C536F757263655C626C659D
:1015F0005C6465766963655F6D616E616765725C89
:101600006465766963655F6D616E616765725F636E
:10161000656E7472616C2E6300000000433A5C4B8F
:1016200065696C5F76355C41524D5C4465766963F3
:10163000655C4E6F726469635C6E72663531383218
:10164000325C536F757263655C6170705F636F6D60
:101650006D6F6E5C6170705F74696D65722E630092
:10166000433A5C4B65696C5F76355C41524D5C4436
:1016700065766963655C4E6F726469635C6E726601
:1016800035313832325C536F757263655C73645FF9
:10169000636F6D6D6F6E5C736F667464657669639E
:1016A000655F68616E646C65722E6300433A5C4BE3
:1016B00065696C5F76355C41524D5C446576696363
:1016C000655C4E6F726469635C6E7266353134328C
:1016D000325C536F757263655C7370695F736C61C4
:1016E00076655C7370695F736C6176652E6300006C
:1016F0001017020000280020B400000004D10100EF
:10170000C4170200B42800207414000020D1010086
:101710000183E3A2F511FE7F4093201BCE00000061
:1017200000000000000000000000000000000000B9
:1017300000000000000000000000000000000000A9
:101740000000000000000000000000000000000099
:101750000000000000000000000000000000000089
:101760000000000000000000000000000000000079
:101770000000000000000000000000000000000069
:101780000000000000000000000000000000000059
:101790000000000000000000000000000000000049
:1017A0000000000000000000000000000000000039
:1017B0000000000000000000000000000000000029
:0417C0000024F4000D
:040000050001D0C165
:00000001FF
