:020000040000FA
:1000000000120020310900004B0900004D090000DA
:1000100000000000000000000000000000000000E0
:100020000000000000000000000000004F09000078
:10003000000000000000000051090000530900000A
:100040005509000055090000550900005509000038
:100050005509000000000000550900005509000086
:100060001D08000055090000550900005509000051
:100070005509000055090000550900005509000008
:1000800055090000550900005509000055090000F8
:1000900055090000550900005509000055090000E8
:1000A0005509000055090000000000000000000094
:1000B0000000000000000000000000000000000040
:1000C00000F002F800F046F80CA030C808382418F8
:1000D0002D18A246671EAB4654465D46AC4201D180
:1000E00000F038F87E460F3E0FCCB646012633426C
:1000F00000D0FB1AA246AB463343184768150000F0
:1001000088150000103A02D378C878C1FAD852078F
:1001100001D330C830C101D504680C6070470000BD
:100120000023002400250026103A01D378C1FBD813
:10013000520700D330C100D50B60704710B5752948
:1001400002D100F0E5FF10BD002010BD1FB51FBD9E
:1001500010B510BD01F0FDF81146FFF7F7FF00F0F4
:100160008DFB01F015F903B4FFF7F2FF03BC01F0BA
:1001700019F90000401E00BF00BF00BF00BF00BF54
:1001800000BF00BF00BF00BF00BF00BF00BFF1D174
:1001900070470000401E00BF00BF00BF00BF00BF8F
:1001A00000BF00BF00BF00BF00BF00BF00BFF1D154
:1001B00070470000082003210522120707231B02B5
:1001C000D2188300D15000BF00BF01218140FB4AFB
:1001D000D16000BF70470120F94908600020F9494B
:1001E000086001208107086000BFF6480068002809
:1001F000FBD0082001218140F34A116000BF62B6A4
:100200007047082001218140EC4A916000BF00BF87
:10021000FEE70121ED4A5160ED4A11600021ED4AEF
:10022000516002219160042111618903EA4A516001
:100230007D21C9004143E74A403211600121E34A70
:100240001160704770B505460C46E4480570002003
:10025000E34908702046FFF7DCFF70BD0020E1494C
:100260000860E1490861E14908600120E04908614E
:1002700000BFDD4800690028FBD00020DA49086192
:10028000704710B50446FFF7E9FF0120D549086023
:10029000D648403884600120D549486010BD10B56B
:1002A0000120CA494860FFF7D9FF10BD70B5054667
:1002B0000C46CA4805700120C94908702046FFF75E
:1002C000A8FF70BD0020CB49086000BFC948006886
:1002D0000028FBD0C8488068704770B5002400250E
:1002E00005E02402FFF7EEFF0443681CC5B2042DAD
:1002F000F7DB204670BD10B5FFF7E4FFBB4940397E
:100300004862FFF7EAFFB9494039C86108204861EF
:10031000BA48886100204863FE20B949087000246B
:1003200006E0FFF7CFFFC1B2B54A601C1154C4B25A
:10033000FE2CF6DBB248AD494039486010BD70B5BF
:1003400006460C461546FFF789FFFFF7D4FF072046
:10035000A4490860A5484038C66004618560012052
:10036000A349086070BD70B506460C461546FFF7F8
:1003700075FF01209B4908609C484038C6600461B5
:10038000856003209949086001209949086070BD83
:1003900070B5002400259B480078002862D19A4857
:1003A0000078030001F005F80B07084E09500B54C4
:1003B0002056585A5C0000BF00BF2C4651E09348BD
:1003C0000078002803D10220914908700AE08F4884
:1003D0000078012803D100208D49087002E0012037
:1003E0008B4908702C463CE08A480078030000F0F6
:1003F000E0FF0805090D1115191D22210420864969
:1004000008701CE000208449087018E0FC20824934
:10041000087014E0F8208049087010E0F4207E494C
:1004200008700CE0F0207C49087008E0EC207A4964
:10043000087004E000BFD8207749087000BF00BFF3
:100440002C460EE001240CE0FFF729FF002508E010
:10045000022406E0052404E0032402E0042400E072
:1004600000BF00BF230000F0A4FF065504182C387D
:1004700048546A480078002804D0FFF710FF002095
:1004800066490870664802786148017862480078D9
:10049000FFF769FF254600243DE06048007800280A
:1004A00004D0FFF7FCFE00205C4908705C4802782D
:1004B0005748017858480078FFF741FF2546002447
:1004C00029E05848017856480078FFF7EFFE0120F0
:1004D00052490870254600241DE050480078002845
:1004E00004D0FFF7DCFE00204C4908704C4800782F
:1004F000FFF7C7FE254600240DE04A48017848482A
:100500000078FFF79FFE012044490870254600242B
:1005100001E000BF00BF00BF70BD10B508E0FFF7ED
:1005200037FF414800F021FC002801D1FFF769FEA8
:100530003D4800783D4909788842F0D03A48007833
:100540003A49087010BD00B52F4909780B0000F03A
:1005500030FF08051DBA71BB89BCA1B9002809D1BB
:100560002F490978002905DD2D490978491E2C4AB3
:1005700011700AE0012808D129490978502904DAC4
:1005800027490978491C264A11709FE0002809D1A3
:1005900027490978002905DD25490978491E244A9B
:1005A00011700AE0012808D121490978502904DA9C
:1005B0001F490978491C1E4A117087E00005005048
:1005C00000D000400001004000E100E00080004059
:1005D00000820040008500400083004004000020AD
:1005E0000A000020001200400011004040150040A9
:1005F0000010004000D1004000D50040FF0004037F
:10060000800000200B0000200C00002002000020D1
:1006100001000020030000200E0000200000002048
:10062000050000200700002009000020080000202D
:1006300006000020002809D1A1490978012905DD1B
:100640009F490978491E9E4A11700AE0012808D185
:100650009B490978632904DA99490978491C984A21
:10066000117033E0002809D196490978002905DD89
:1006700094490978491E934A11700AE0012808D16B
:1006800090490978022904DA8E490978491C8D4A73
:1006900011701BE0002809D18B490978002905DD7C
:1006A00089490978491E884A11700AE0012808D151
:1006B00085490978072904DA83490978491C824A5F
:1006C000117003E000BF00BF00BF00BF00BF00BD4E
:1006D00010B5FFF722FF7D48007804283AD006DCE9
:1006E00000285AD0012807D0022855D128E0082830
:1006F00041D0102850D111E075480078002809D069
:1007000074480078002805DD72480078401E714961
:10071000087002E00020FFF716FF3FE06C48007809
:10072000002809D06B4800782B2805D2694800784A
:10073000401C6849087002E00120FFF704FF2DE02B
:1007400063480078012148406149087000206149F0
:10075000087023E05E48007800280BD05E480078DF
:100760000A2807D25C480078401C5B4908700020CA
:100770005849087012E05648007800280BD05648B7
:100780000078002807DD54480078401E5249087060
:1007900000205049087001E000BF00BF00BF10BD3D
:1007A00008B500F073F9002801D1FFF72AFD484889
:1007B0000078002810D0484909788900474A5158E4
:1007C000444A1278881800231A46102100F053FA80
:1007D00000281CD1FFF715FD3F48007880004049F4
:1007E0000858002813D03C48007880000858027848
:1007F0003CA1684600F078FC0723002203216846EC
:1008000000F039FA002801D1FFF7FBFC00BF08BD5A
:1008100003E0FFF7C5FFFFF75BFFFAE710B53248CB
:100820000068002829D031484068012109040843A4
:10083000002822D02E480078002808D02D480278C1
:100840002D4801782D480078FFF78DFD03E02948F9
:100850000078FFF716FD27480078401C25490870EE
:100860000846007826490978884203DD2548007843
:100870002049087000201C49086010BDFFF79AFC51
:1008800000F0BCF9002801D1FFF7BBFC00231A4699
:1008900010211DA000F0EFF9002801D1FFF7B1FCF5
:1008A0000023402210211DA000F0E5F9002801D10D
:1008B000FFF7A7FCFFF78FFCFFF72FFEFFF7A8FF5E
:1008C0000700002002000020030000200900002093
:1008D0000B0000200D0000200C0000203C00002038
:1008E00010000020256C750040810040008300400E
:1008F0000A00002004000020010000200E0000205B
:100900000600002005000020202020205246205410
:100910004553542020202020000000002020205398
:1009200043524F4C4C20444F574E202000000000B3
:1009300003210C4802680A4302600B4802680A431C
:1009400002600A4880470A480047FEE7FEE7FEE7E4
:10095000FEE7FEE7FEE7000006480749074A084BA6
:10096000704700002405004054050040290A00009B
:10097000C10000000002002000120020000A002038
:10098000000A002032483349086070473248008C22
:10099000C0B2012812D13048808C0007000F002817
:1009A0000CD12D48806AF0210840402806D12A4801
:1009B000C06A0840002801D1012070470020FCE7F0
:1009C0002548008CC0B201282CD12348808C000718
:1009D000000F002826D12048806AF0210840002816
:1009E00006D11D48C06A0840002801D10120704787
:1009F0001948806AF0210840102806D11648C06ABC
:100A00000840002801D10120F1E71348806AF02155
:100A10000840302806D11048C06A0840002801D19B
:100A20000120E4E70020E2E710B5FFF7C9FF002846
:100A300005D00A480A494860C8130A498861FFF787
:100A4000A5FF002802D001200749886010BD0000E2
:100A50000024F40068000020C00F00F0DFFF07C092
:100A600000050040006C00400006004010B5044640
:100A7000C948FFF77FFB0020C8490870084644704A
:100A8000012302227C2000F0F9FA10BD10B5C24803
:100A9000FFF770FB0020C1490870802048700123D7
:100AA00002227C2000F0EAFA002800D110BD0123C8
:100AB0001222BB497C2000F0E1FA002800D1F5E7C2
:100AC000C020B6494870012302227C2000F0D6FAEB
:100AD000002800D1EAE701231222B1497C2000F06E
:100AE000CDFA002800D1E1E70120DFE710B5044688
:100AF000A948FFF73FFB0020A84908707020204359
:100B00004870012302227C2000F0B8FA10BD10B515
:100B1000A148FFF72FFB0020A04908700C20487067
:100B2000012302227C2000F0A9FA10BD10B59A48DA
:100B3000FFF720FB00209949087008204870012326
:100B400002227C2000F09AFA10BD30B50346954C85
:100B5000002901D1002030BD1878934DE8615B1C5D
:100B60000120924DA86022E000BF9148C069002892
:100B700002D1601E0400F8D1002C0CD100208C4D55
:100B800068600120894D686100BF8948406800287D
:100B9000FBD00020DFE70020854DE861481EC0B291
:100BA000010000D104E018787F4DE8615B1CDBE7B1
:100BB00000BF002A0AD000207D4D686001207B4DD7
:100BC000686100BF7A4840680028FBD00120C2E776
:100BD000F8B57C2400200090042500260027601032
:100BE000714980318860324629466846FFF7ADFF7B
:100BF000074600206E4948623846F8BD10B500F03F
:100C000047F9002800D110BDFFF7E2FF3820FFF7B9
:100C10002DFF002800D1F6E73920FFF727FF002835
:100C200000D1F0E71420FFF721FF002800D1EAE708
:100C30000820FFF75BFF002800D1E4E75F20FFF703
:100C400015FF002800D1DEE76A20FFF70FFF00281C
:100C500000D1D8E75748FFF78DFAFFF758FF002873
:100C600000D1D0E7FFF712FF002800D1CBE7062024
:100C7000FFF7FCFEC7E7FFB581B0064617461D46E5
:100C8000002046490870E81980304870012302228C
:100C90007C2000F0F3F9002801D105B0F0BD12204E
:100CA000401BC2B201233E497C2000F0E7F9002836
:100CB00000D1F2E7002039490870E8198030487007
:100CC000012302227C2000F0D9F9002800D1E4E7BA
:100CD000402032490870002408E0102C00D108E0C0
:100CE00031782E4A601C1154761CC4B2029884429A
:100CF000F3DB00BF601CC2B2012328497C2000F056
:100D0000BDF9CAE770B5044601231A4623497F207E
:100D100000F0B4F9002800D170BD204801781D25ED
:100D20008D43E807C00F002803D00020C043207087
:100D300008E010202840002802D00120207001E0A7
:100D40000020207004202840002802D0012060707C
:100D500009E008202840002803D00020C04360702C
:100D600001E0002060700120D6E738B50446012379
:100D70001A4669467F2000F081F9002800D138BD6D
:100D800068460078C043C1B2009168460078C0064A
:100D9000C00E20700120F2E7102700008001002023
:100DA0006C000020204E0000004500400040004044
:100DB00000410040400D0300F8B5C248056800201E
:100DC000C04908600805072109024018066EBE48A0
:100DD0000521090707221202891808660520000765
:100DE00011464018406E0090B74805210907891840
:100DF000486600BF01204006B449886000BF00BFBC
:100E00004010886000BF0420FFF7C4F9AF480069B4
:100E10008001C00F002807D0AC480069C001C00F96
:100E2000002801D0012422E00024122719E000BF8D
:100E300001200006A549C86000BF0420FFF7AAF9F9
:100E400000BF01200006A149886000BF0420FFF711
:100E5000A1F99E4800698001C00F002801D001243B
:100E600003E038467F1E0028E1D100BF00BF052007
:100E70000007072109024018066605210907072215
:100E800012028918009848668E4805602046F8BD11
:100E900010B58D48401E0521090707221202891846
:100EA0000866052109078918486600208849886076
:100EB000C8611820834988601920C8603320C004A5
:100EC000486283483830834908618148E438824960
:100ED000512212018918486001207E49886005204E
:100EE00078490860FFF768FF10BDF8B504460D4665
:100EF00016467A4F002D01D10020F8BD20787149A7
:100F0000C861641C01207649886031E000BF7048E8
:100F1000C069002806D16E48406A002802D1781EB8
:100F20000700F4D1002F03D06948406A002813D08D
:100F3000002067494862634908606A49C863052020
:100F4000FFF728F901206749C86305205D4908605B
:100F5000FFF79EFF0020D0E700205D49C861681EB2
:100F6000C0B2050000D104E020785649C861641C75
:100F7000CCE700BF002E0AD0002055494860012070
:100F80005749486100BF524840680028FBD0012003
:100F9000B3E7F8B505460C461746504E002C01D174
:100FA0000020F8BD012C07D14D4814304A49512288
:100FB00012018918486006E049481C304649512210
:100FC00012018918486001204249486000204049C8
:100FD000886001204249086041E000BF3C488068C9
:100FE000002806D13A48406A002802D1701E060047
:100FF000F4D1002036498860002E03D00846406AAC
:10100000002813D00020324948622E490860354933
:10101000C8630520FFF7BEF801203249C8630520E8
:1010200028490860FFF734FF0020BAE725488069A7
:1010300028706D1C601EC0B20446012806D12848E5
:10104000143025495122120189184860002C00D122
:1010500006E01420FFF79EF8012021490862BCE752
:1010600000BF00BF1A4840680028FBD00020184984
:10107000486001201749886000BF92E7F8B5044630
:101080000E4615461F4600200090002D18DDFFF784
:1010900093FE002814D060100A4980318860E00770
:1010A000C00F002806D03A4629463046FFF771FFA8
:1010B000009005E03A4629463046FFF716FF0090BB
:1010C0000098F8BD004500400D06000000050050E6
:1010D0000041004000F5014000F00140204E0000BA
:1010E00000400040C04F00400FB41CB5074B06AA9B
:1010F0007B4469460090059800F0FFF8002069469F
:1011000000F00EF91CBC08BC04B018472D0200000A
:10111000F7B5002575291068009914A611D0C046AE
:10112000C046002802DA404211A608E0009909688A
:101130008A0701D50FA602E0490704D50EA60125AE
:1011400001E0C046C046009F0024243704E000F0C0
:10115000ECF830313955641C0028F8D12B46324662
:101160002146009800F06CF8FEBD00000000000071
:101170002D0000002B00000020000000F8B50F46F5
:101180000546002028622846E9688847002852D092
:10119000252802D06A68A96849E0E968284600263F
:1011A00088476C2804460AD0682C08D04C2C37D0CD
:1011B0006A2C33D0742C33D07A2C31D015E0E96806
:1011C000064628468847B042044608D16C2E25D0F2
:1011D0000126B6022846E9688847044605E06C2ED9
:1011E00002D0FF26013600E04026002C23D0204606
:1011F0004138192803D80120C002064320343A465A
:1012000028462E602146FEF799FF00280CD00128C1
:1012100008D0FF1DFF08FF000837B4E78026D9E794
:101220000026D7E73F1DAEE76A682046A9689047C9
:10123000286A401CA6E7286AF8BD704770477047C7
:10124000FFB504460D4681B0243000902168880621
:1012500004D51022E0699143216000E00120A842FA
:1012600001DD471B00E000270498A1697A191018D6
:10127000081AA0612078C00602D42046C046C046A5
:10128000002608E003986268A168805D9047206AA4
:10129000401C761C206204988642F3DB2078C0064E
:1012A0000AD52046C046C04606E06268A1683020E4
:1012B0009047206A401C206238467F1E0028F4DCDC
:1012C00007E000986268A168405D9047206A401C72
:1012D000206228466D1E0028F3DC2046C046C0462A
:1012E0002078000602D5022005B0F0BD0120FBE702
:1012F00001694A1C02610878704700B58FB00291FD
:101300000021059105490193794403911146049008
:101310006846FFF733FF0FB000BD0000E5FFFFFF99
:101320000A681070521C0A60704701468008081A4B
:1013300002091018020A1018020C1018C0088200C6
:1013400012185200891A01E0401C0A390A29FBD2FE
:101350007047754600F022F8AE46050069465346D0
:10136000C008C000854618B020B5FFF7F5FA60BC8C
:1013700000274908B6460026C0C5C0C5C0C5C0C5BF
:10138000C0C5C0C5C0C5C0C5403D49008D467047F9
:101390000446C046C0462046FEF7E5FE00487047BA
:1013A000A001002001491820ABBEFEE72600020084
:1013B000704730B47446641E2578641CAB4204D375
:1013C000635D5B00E31830BC18471D46F8E700007A
:1013D00053746172742052582073776565702020B1
:1013E00020202020202020202020202020202020FD
:1013F00020202020202020202020202020202020ED
:101400002020202020202020202000005374617202
:101410007420545820737765657020202020202088
:1014200020202020202020202020202020202020BC
:1014300020202020202020202020202020202020AC
:101440002020202020200000537461727420525804
:101450002063617272696572202020202020202084
:10146000202020202020202020202020202020207C
:10147000202020202020202020202020202020206C
:1014800020200000537461727420545820636172EC
:10149000726965722020202020202020202020201A
:1014A000202020202020202020202020202020203C
:1014B000202020202020202020202020202000006C
:1014C00043616E63656C2053776565702F4361726D
:1014D00072696572202020202020202020202020DA
:1014E00020202020202020202020202020202020FC
:1014F0002020202020202020202000005374617212
:1015000074206D6F64756C61746564205458206339
:101510006172726965722020202020202020202006
:1015200020202020202020202020202020202020BB
:101530002020202020200000456E74657220656EFA
:1015400064206368616E6E656C20666F72205377ED
:1015500065657020202020202020202020202020B1
:10156000202020202020202020202020202020207B
:1015700020200000456E7465722064656C617920DE
:101580006F6E2065616368206368616E6E656C20B4
:1015900028316D732D39396D7329202020202020AA
:1015A000202020202020202020202020202000007B
:1015B000456E74657220646174612072617465287F
:1015C0002730273D323530204B622F732C202731B6
:1015D000273D31204D622F7320616E642027322712
:1015E0003D32204D622F732920200000456E746526
:1015F00072206F757470757420506F77657228272C
:1016000030273D2B342064426D2C202731273D307C
:101610002064426D2C2E2E2E2C2737273D2D343062
:101620002064426D293A0000456E7465722073741F
:10163000617274206368616E6E656C20666F7220E3
:1016400053776565702F4368616E6E656C20666FB9
:101650007220636F6E7374616E742063617272695D
:101660006572000084160000000000208000000069
:101670000401000004170000800000208011000019
:1016800020010000000100000000500A00000001DD
:1016900000000000050000200600002000000000FF
:1016A00007000020000000000200002000000000F1
:1016B0000300002000000000000000000000000007
:1016C000281600003815000084140000741500006E
:1016D000C0140000B0150000FC140000EC15000060
:1016E000D01300000C140000481400000024F40083
:1016F00040202020202020202020202020202020CA
:0417000020200000A5
:04000005000000C136
:00000001FF
