:020000040000FA
:1000000068100020650100007F01000081010000F0
:1000100000000000000000000000000000000000E0
:10002000000000000000000000000000830100004C
:1000300000000000000000008501000087010000B2
:100040008901000089010000890100008901000088
:100050008901000000000000890100008901000002
:100060008901000089010000890100008901000068
:100070008901000089010000890100008901000058
:100080008901000089010000890100008901000048
:100090008901000089010000890100008901000038
:1000A000890100008901000000000000000000003C
:1000B0000000000000000000000000000000000040
:1000C00000F002F800F03EF80CA030C80838241800
:1000D0002D18A246671EAB4654465D46AC4201D180
:1000E00000F030F87E460F3E0FCCB6460126334274
:1000F00000D0FB1AA246AB46334318470404000065
:1001000024040000103A02D378C878C1FAD8520704
:1001100001D330C830C101D504680C6070470000BD
:100120000023002400250026103A01D378C1FBD813
:10013000520700D330C100D50B6070471FB51FBDFB
:1001400010B510BD00F07FF81146FFF7F7FF00F083
:1001500075F900F097F803B4FFF7F2FF03BC00F065
:100160009BF8000003210C4802680A4302600B4818
:1001700002680A4302600A4880470A480047FEE7CF
:10018000FEE7FEE7FEE7FEE7FEE700000648074958
:10019000074A084B70470000240500405405004002
:1001A000A9020000C10000006800002068100020C3
:1001B0006808002068080020024670B50A439207CC
:1001C0002AD11E4DEE0104C808C9541B9443344083
:1001D00017D0D0B2D9B2401A2106014310D190B243
:1001E00099B2401A210401430AD110021902000AEF
:1001F000090A401A2102014302D1100E190E401AB9
:1002000070BD9A42DFD010BA19BA884201D90120D4
:1002100070BD0020C04370BD02780B78401C491CA3
:10022000002A09D09A4207D102780B78401C491C59
:10023000002A01D09A42EFD0D01A70BD010101010D
:10024000704770477047754600F022F8AE460500CB
:1002500069465346C008C000854618B020B5FFF770
:1002600095FF60BC00274908B6460026C0C5C0C53A
:10027000C0C5C0C5C0C5C0C5C0C5C0C5403D49009A
:100280008D4670470446C046C0462046FFF763FFD0
:10029000004870470400002001491820ABBEFEE76B
:1002A000260002007047000010B500F091F8002809
:1002B00005D0074807494860C8130749886100F01E
:1002C0006BF8002802D001200449886010BD0000AE
:1002D000DFFF07C000050040006C00400006004042
:1002E00070B5044600BF00BF00F0FAF80546242DA3
:1002F000FAD10F21204600F029F812A12046FFF77D
:100300005BFF0028EFD10F21601800F01FF80F21CC
:1003100020461E3000F01AF8012120462D3000F052
:1003200015F80F2120462E3000F010F8012120464C
:100330003D3000F00BF8012120463E3000F006F879
:1003400070BD00004750474741000000F8B5054622
:100350000F46012F05D100F0C3F8287000F0C0F857
:10036000F8BD002409E000F0BBF806462C2E02D1AF
:100370000020285503E02E55641CBC42F3DB00BF6F
:1003800000BFEDE708B500200423024603210090DA
:1003900000F070F808BD00000C48008CC0B20128C5
:1003A00012D10A48808C0007000F00280CD10748A2
:1003B000806AF0210840402806D10448C06A0840FD
:1003C000002801D1012070470020FCE7C00F00F099
:1003D0001948008CC0B201282CD11748808C000726
:1003E000000F002826D11448806AF0210840002818
:1003F00006D11148C06A0840002801D10120704789
:100400000D48806AF0210840102806D10A48C06AC9
:100410000840002801D10120F1E70748806AF02157
:100420000840302806D10448C06A0840002801D19D
:100430000120E4E70020E2E7C00F00F090B0FFF7F2
:10044000A1FF00BF6846FFF74BFFFBE710B58A002E
:1004500005231B07072424021B1984001A5110BD11
:1004600003210522120707231B02D2188300D15053
:1004700070470000F8B507460C4615461E46204654
:10048000FFF7EEFF00213046FFF7E0FF1048C460A1
:100490004661069800280DD03846FFF7E1FF00219D
:1004A0002846FFF7D3FF0A48056187600120084905
:1004B0004031C862074806494862042008600120AC
:1004C000054988600860002004498860F8BD000084
:1004D0000025004000B01300002000400021004033
:1004E00000BF054880680128FBD1002002498860D0
:1004F00002488069C0B270470021004000250040DA
:10050000200500000000002004000000040100009D
:1005100024050000040000206410000020010000F9
:040520000024F400BF
:040000050000016591
:00000001FF
