:020000040000FA
:1000000068100020A5010000BF010000C101000030
:1000100000000000000000000000000000000000E0
:10002000000000000000000000000000C30100000C
:100030000000000000000000C5010000C701000032
:10004000C9010000C9010000C9010000C901000088
:10005000C901000000000000C9010000C901000042
:10006000C9010000C9010000C9010000C901000068
:10007000C9010000C9010000C9010000C901000058
:10008000C9010000C9010000C9010000C901000048
:10009000C9010000C9010000C9010000C901000038
:1000A000C9010000C90100000000000000000000BC
:1000B0000000000000000000000000000000000040
:1000C00000F002F800F03EF80CA030C80838241800
:1000D0002D18A246671EAB4654465D46AC4201D180
:1000E00000F030F87E460F3E0FCCB6460126334274
:1000F00000D0FB1AA246AB4633431847D80600008F
:10010000F8060000103A02D378C878C1FAD852072E
:1001100001D330C830C101D504680C6070470000BD
:100120000023002400250026103A01D378C1FBD813
:10013000520700D330C100D50B6070471FB51FBDFB
:1001400010B510BD00F05BF81146FFF7F7FF00F0A7
:100150001DF900F073F803B4FFF7F2FF03BC00F0E1
:1001600077F80000401E00BF00BF00BF00BF00BF07
:1001700000BF00BF00BF00BF00BF00BF00BFF1D184
:1001800070470000401E00BF00BF00BF00BF00BF9F
:1001900000BF00BF00BF00BF00BF00BF00BFF1D164
:1001A0007047000003210C4802680A4302600B48B4
:1001B00002680A4302600A4880470A480047FEE78F
:1001C000FEE7FEE7FEE7FEE7FEE700000648074918
:1001D000074A084B704700002405004054050040C2
:1001E00061020000C10000006800002068100020CB
:1001F00068080020680800207047704770477546FF
:1002000000F022F8AE46050069465346C008C0001B
:10021000854618B020B5FFF7D9FF60BC0027490814
:10022000B6460026C0C5C0C5C0C5C0C5C0C5C0C58E
:10023000C0C5C0C5403D49008D4670470446C04614
:10024000C0462046FFF787FF0048704704000020A3
:1002500001491820ABBEFEE72600020070470000EF
:1002600010B500F05DF8002805D007480749486040
:10027000C8130749886100F037F8002802D0012030
:100280000449886010BD0000DFFF07C00005004082
:10029000006C00400006004008B500F0DBF90028C3
:1002A00000D108BDF021684601705521417001233D
:1002B00002226946A42000F037FA002800D1F0E7B6
:1002C000012000F06BF8FB216846017000214170AD
:1002D000012302226946A42000F026FA002800D15A
:1002E000DFE70120DDE700000C48008CC0B20128E8
:1002F00012D10A48808C0007000F00280CD1074853
:10030000806AF0210840402806D10448C06A0840AD
:10031000002801D1012070470020FCE7C00F00F049
:100320001948008CC0B201282CD11748808C0007D6
:10033000000F002826D11448806AF02108400028C8
:1003400006D11148C06A0840002801D10120704739
:100350000D48806AF0210840102806D10A48C06A7A
:100360000840002801D10120F1E70748806AF02108
:100370000840302806D10448C06A0840002801D14E
:100380000120E4E70020E2E7C00F00F00EB5FFF720
:1003900083FF00BF684600F00DF8FBE770B5044628
:1003A000002504E07D20C000FFF7DCFE6D1CA542A7
:1003B000F8D370BD1CB504460120FFF7EFFF002005
:1003C0006946087001231A46A42000F0ADF9002800
:1003D00000D11CBD0120FFF7E1FF01230622694681
:1003E000A52000F0A1F9002800D1F2E768460078C6
:1003F0002070684640786070684680786080684603
:10040000C078A08068460079E08068464079022183
:1004100008404010207268464079C007C00F6072E3
:1004200060888004000C6080A0888004000CA0809C
:10043000E0888004000CE0806188684640790C22E6
:100440001040801001436180A188684640793022C5
:10045000104000110143A180E08869464979C0221B
:10046000114089110843E0800120B2E770B500BF58
:10047000012040032149886000BF00BF4010886010
:1004800000BF0420FFF77EFE1C4800698004C00FF7
:10049000002807D019480069C004C00F002801D007
:1004A000012428E015480069C004C00F002821D0AD
:1004B0000024122519E000BF012000030F49C86085
:1004C00000BF0420FFF75EFE00BF012000030B49C0
:1004D000886000BF0420FFF755FE084800698004CB
:1004E000C00F002801D0012403E028466D1E00281B
:1004F000E1D100E00024204670BD0000000500505E
:1005000070B50646012400BF60032949886100BF19
:1005100080251FE000BF012000032549C86000BFFF
:100520000420FFF72FFE30462840002805D000BFEA
:10053000012040031E49886005E000BF0120400300
:100540001B49C86000BF00F02FF9002801D100242A
:1005500002E06D08002DDDD100BF00BF01200003C7
:100560001349C86000BF0420FFF70CFE00BF012044
:1005700040030F49C86100BF0420FFF703FE00F0ED
:1005800013F904400A480069400B01214840044027
:1005900000BF08030649C86000BF0420FFF7F2FD52
:1005A00000BF012040030249886100BF204670BDA2
:1005B00000050050F8B505460E46002701200090C2
:1005C00000BF40032249C86100BF802418E000F04A
:1005D000EBF8002801D1009014E01D480069800468
:1005E000C00F002802D038462043074600BF012034
:1005F00000031749C86000BF0420FFF7C3FD64086B
:10060000002CE4D100BF00BF0120400310498861E5
:1006100000BF2F70002E02D000BFC86005E000BFF1
:10062000012040030A49886000BF0420FFF7AAFDAB
:1006300000F0BAF8002800D1009000BF01200003AC
:100640000349C86000BF0420FFF79CFD0098F8BD77
:100650000005005010B500BF10480521090707220A
:1006600012028918486300BF00BF052109078918D5
:10067000086300BF00BF012000030949886000BF74
:1006800000BF886100BF00BF4000886000BF00BF9E
:10069000886100BFFFF7EAFE10BD00000C060000F5
:1006A0000005005010B500BF012040030F498860CD
:1006B00000BF0420FFF766FD00F076F8002800D1A7
:1006C00010BD00BF012040030849C86000BF0420DE
:1006D000FFF758FD00BF012000030449C86000BFB8
:1006E0000420FFF74FFD0120EAE70000000500505D
:1006F00010B500BF012040030A49C86000BF0420B4
:10070000FFF740FD00F050F8002800D110BD00BFF9
:10071000012040030349886000BF0420FFF732FD39
:100720000120F3E700050050FFB581B007460D46F4
:1007300016460124FFF7B6FF04403846FFF7E0FEF7
:100740000440F807C00F002816D00DE0002E05D198
:1007500000212846FFF72EFF044004E0012128462F
:10076000FFF728FF04406D1C3046711ECEB20028F2
:100770000FD0002CEAD10CE004E02878FFF7C0FE8F
:1007800004406D1C3046711ECEB2002801D0002CF2
:10079000F3D10498002801D1002C02D1FFF7A8FF63
:1007A0000440204605B0F0BD10B500BF0120000395
:1007B0000749886000BF0420FFF7E4FC00BF04483D
:1007C0000069C004C00F0028F9D0012010BD00004E
:1007D00000050050F40700000000002004000000A5
:1007E00004010000F807000004000020641000006D
:0807F000200100000024F400C8
:04000005000000C136
:00000001FF
