:020000040000FA
:1000000068100020850100009F010000A101000090
:1000100000000000000000000000000000000000E0
:10002000000000000000000000000000A30100002C
:100030000000000000000000A5010000A701000072
:10004000A9010000A9010000A9010000A901000008
:10005000A901000000000000A9010000A9010000A2
:10006000A9010000A9010000A9010000A9010000E8
:10007000A9010000A9010000A9010000A9010000D8
:10008000A9010000A9010000A9010000A9010000C8
:10009000A9010000A9010000A9010000A9010000B8
:1000A000A9010000A90100000000000000000000FC
:1000B0000000000000000000000000000000000040
:1000C00000F002F800F03EF80CA030C80838241800
:1000D0002D18A246671EAB4654465D46AC4201D180
:1000E00000F030F87E460F3E0FCCB6460126334274
:1000F00000D0FB1AA246AB46334318470C0300005E
:100100002C030000103A02D378C878C1FAD85207FD
:1001100001D330C830C101D504680C6070470000BD
:100120000023002400250026103A01D378C1FBD813
:10013000520700D330C100D50B6070471FB51FBDFB
:1001400010B510BD00F04BF81146FFF7F7FF00F0B7
:10015000FBF800F063F803B4FFF7F2FF03BC00F014
:1001600067F80000401E00BF00BF00BF00BF00BF17
:1001700000BF00BF00BF00BF00BF00BF00BFF1D184
:100180007047000003210C4802680A4302600B48D4
:1001900002680A4302600A4880470A480047FEE7AF
:1001A000FEE7FEE7FEE7FEE7FEE700000648074938
:1001B000074A084B704700002405004054050040E2
:1001C00041020000C100000068000020681000200B
:1001D000680800206808002070477047704775461F
:1001E00000F022F8AE46050069465346C008C0003C
:1001F000854618B020B5FFF7D9FF60BC0027490835
:10020000B6460026C0C5C0C5C0C5C0C5C0C5C0C5AE
:10021000C0C5C0C5403D49008D4670470446C04634
:10022000C0462046FFF797FF0048704704000020B3
:1002300001491820ABBEFEE726000200704700000F
:1002400010B500F04BF8002805D007480749486072
:10025000C8130749886100F025F8002802D0012062
:100260000449886010BD0000DFFF07C000050040A2
:10027000006C00400006004010B51020152108E079
:10028000032205231B07072424021B1984001A518B
:10029000401C8842F4D900BFFF21022000F072F810
:1002A00010BD00000C48008CC0B2012812D10A48D1
:1002B000808C0007000F00280CD10748806AF021CD
:1002C0000840402806D10448C06A0840002801D1EF
:1002D000012070470020FCE7C00F00F01948008C97
:1002E000C0B201282CD11748808C0007000F0028CD
:1002F00026D11448806AF0210840002806D1114810
:10030000C06A0840002801D1012070470D48806A6A
:10031000F0210840102806D10A48C06A0840002889
:1003200001D10120F1E70748806AF0210840302818
:1003300006D10448C06A0840002801D10120E4E742
:100340000020E2E7C00F00F008B5FFF795FF00219D
:10035000684601700121817000214170009800F011
:100360001FF800BF002408E069460C70009800F0F8
:1003700017F80348FFF7F6FE641C052CF2DAF3E7E2
:1003800040420F0070B504460D462A4621460248F9
:1003900000F004F870BD000008050050425470479A
:1003A00031B50024FF210220FFF7ECFF68460078FA
:1003B000002806D0012807D0022808D003280CD135
:1003C00008E00820044308E00420044305E010206E
:1003D000044302E02020044300BF00BF6846407889
:1003E000002801D00120044368468078002801D00D
:1003F000022004430225224629460248FFF7CEFF89
:1004000000BF38BD0C05005028040000000000208B
:1004100004000000040100002C040000040000207F
:0C04200064100000200100000024F40023
:040000050000018571
:00000001FF
