:020000040001F9
:1060000048360020BD610100D7610100D96101005F
:106010000000000000000000000000000000000080
:10602000000000000000000000000000DB61010033
:106030000000000000000000DD610100DF610100E0
:10604000E1610100E1610100E1610100E161010044
:10605000E161010000000000F1640100E161010064
:10606000E1610100E1610100E1610100E161010024
:10607000E1610100E1610100E1610100E161010014
:10608000E161010059660100E1610100E161010087
:1060900081660100E161010089660100E1610100A2
:1060A000E1610100E161010000000000000000006A
:1060B00000000000000000000000000000000000E0
:1060C00000F002F800F03EF80CA030C808382418A0
:1060D0002D18A246671EAB4654465D46AC4201D120
:1060E00000F030F87E460F3E0FCCB6460126334214
:1060F00000D0FB1AA246AB4633431847E43E0000EB
:10610000043F0000103A02D378C878C1FAD8520789
:1061100001D330C830C101D504680C60704700005D
:106120000023002400250026103A01D378C1FBD8B3
:10613000520700D330C100D50B6070471FB51FBD9B
:1061400010B510BD00F0A2F91146FFF7F7FF02F0FD
:10615000E1FA00F0BAF903B4FFF7F2FF03BC00F074
:10616000BFF90000401E00BF00BF00BF00BF00BF5E
:1061700000BF00BF00BF00BF00BF00BF00BFF1D124
:106180007047000070B505460C46164602E00FCC7D
:106190000FC5103E102EFAD2082E02D303CC03C531
:1061A000083E042E07D301CC01C5361F03E0217839
:1061B0002970641C6D1C761EF9D270BD03210C4839
:1061C00002680A4302600B4802680A4302600A48F8
:1061D00080470A480047FEE7FEE7FEE7FEE7FEE7E6
:1061E000FEE7000006480749074A084B70470000D1
:1061F0002405004054050040C5660100C16001004F
:106200004826002048360020482E0020482E002036
:10621000034610B50B439B070FD1042A0DD308C8C2
:1062200010C9121FA342F8D018BA21BA884201D966
:10623000012010BD0020C04310BD002A03D0D307A9
:1062400003D0521C07E0002010BD03780C78401CDE
:10625000491C1B1B07D103780C78401C491C1B1BD5
:1062600001D1921EF1D1184610BDF8B5042A2CD3E5
:10627000830712D00B78491C0370401C521E830701
:106280000BD00B78491C0370401C521E830704D0AE
:106290000B78491C0370401C521E8B079B0F05D0C6
:1062A000C91ADF002023DE1B08C90AE0FFF76AFFD6
:1062B000F8BD1D4608C9FD401C46B4402C4310C023
:1062C000121F042AF5D2F308C91A521EF0D40B7813
:1062D000491C0370401C521EEAD40B78491C037001
:1062E000401C012AE4D409780170F8BD01E004C023
:1062F000091F0429FBD28B0701D50280801CC90726
:1063000000D00270704700290BD0C30702D0027082
:10631000401C491E022904D3830702D50280801C39
:10632000891EE3E70022EEE70022DFE700220309EF
:106330008B422CD3030A8B4211D300239C464EE0A0
:1063400003460B433CD4002243088B4231D303095C
:106350008B421CD3030A8B4201D394463FE0C3090E
:106360008B4201D3CB01C01A524183098B4201D326
:106370008B01C01A524143098B4201D34B01C01A11
:10638000524103098B4201D30B01C01A5241C30889
:106390008B4201D3CB00C01A524183088B4201D3F8
:1063A0008B00C01A524143088B4201D34B00C01AE4
:1063B0005241411A00D201465241104670475DE0F9
:1063C000CA0F00D04942031000D34042534000227C
:1063D0009C4603098B422DD3030A8B4212D3FC2225
:1063E000890112BA030A8B420CD3890192118B42A4
:1063F00008D3890192118B4204D389013AD09211BA
:1064000000E08909C3098B4201D3CB01C01A524174
:1064100083098B4201D38B01C01A524143098B423D
:1064200001D34B01C01A524103098B4201D30B0126
:10643000C01A5241C3088B4201D3CB00C01A52414B
:1064400083088B4201D38B00C01A5241D9D2430832
:106450008B4201D34B00C01A5241411A00D201466F
:10646000634652415B10104601D34042002B00D5D9
:106470004942704763465B1000D3404201B500209B
:10648000C046C04602BD704770477047754600F071
:1064900023F8AE46050069465346C008C00085464D
:1064A00018B020B5FFF79EFE60BC00274908B6462D
:1064B0000026C0C5C0C5C0C5C0C5C0C5C0C5C0C513
:1064C000C0C5403D49008D4670470446C046C046A1
:1064D0002046FFF740FE000000487047E4250020FA
:1064E00001491820ABBEFEE72600020070470000FD
:1064F000F0B585B02648056900202649C863002606
:106500003FE0142070432449096844180120B0403A
:10651000224909680840002831D0E068C04368403B
:106520002168084007463946204602F031FF1848E6
:10653000006968400390039800280ED00398054333
:10654000E068C043684021680840009020460099F8
:1065500002F01EFF0098074300BFA068A843384020
:1065600001906068284038400290019902980843E1
:10657000002803D0226901990298904700BF701C3F
:10658000C6B2074800788642BBDB05B0F0BD00000C
:1065900000050050406100403820002030200020DD
:1065A00035200020C206D20E01219140014A11601F
:1065B0007047000080E200E0C206D20E0121914047
:1065C000014A11607047000000E100E0C206D20EEF
:1065D00001219140014A11607047000000E200E093
:1065E00010B5002819DA1A4A03071B0F083B9B084D
:1065F0009B00D2588307DC0EFF23A3409A438B07EE
:106600001B0E8407E40EA3401A43114B0407240F0A
:10661000083CA408A4001A5118E00E4A03231B02E8
:10662000D21883089B00D2588307DC0EFF23A340B7
:106630009A438B071B0E8407E40EA3401A43054BB5
:10664000032424021B198408A4001A5110BD000061
:106650001CED00E000E100E010B5002007490860F3
:106660000021064841608160C16000200349403933
:106670000860486003F058FA10BD00004011014066
:1066800010B503F011F910BD70B50C480068002872
:1066900011D00A4800688047044600BF2546002DF7
:1066A00007D000BF064AFF213331284600F038F9F1
:1066B00000BF00BF01E001F06FFE70BD5820002058
:1066C000389F010010B501F0F5FE002805D00748FD
:1066D00007494860C8130749886101F0CFFE0028C8
:1066E00002D001200449886010BD0000DFFF07C010
:1066F00000050040006C00400006004030B47446C5
:10670000641E2578641CAB4204D3635D5B00E31810
:1067100030BC18471D46F8E7F8B504460F46164644
:106720000025002030702078002809D032463946F4
:10673000204602F0A9F80546002D01D02846F8BDF4
:10674000A078002808D03146384600F047FA0546C0
:10675000002D01D02846F2E7A08800280ADD334644
:106760003A460121201D03F074FA0546002D01D0A0
:106770002846E4E7E06800280BD00020E1680856CE
:106780003246394603F044FA0546002D01D028462A
:10679000D5E7208A00280CDD3B4606220221204650
:1067A0001030009603F0FFFA0546002D01D0284670
:1067B000C5E7208B00280CDD3B460722032120463D
:1067C0001830009603F0EFFA0546002D01D0284658
:1067D000B5E7208C00280CDD3B461522142120460D
:1067E0002030009603F0DFFA0546002D01D0284640
:1067F000A5E7A06A002809D032463946A06A00F011
:1068000035FD0546002D01D0284698E7E06A0028AE
:1068100009D032463946E06A01F090FF0546002D66
:1068200001D028468BE73420005D002809DD324680
:106830003946204602F0ECFD0546002D01D02846E1
:106840007DE728467BE701468888002808D08868CD
:10685000002805D08868007804221040002801D163
:10686000072070470020FCE710B590B00621019189
:10687000194800680090382102A8FFF755FD002153
:106880006846017201218172818101A9049101216F
:10689000018469460991002102A800F0CFF904465D
:1068A00000BF2346002B06D000BF0CA2FF212F31D2
:1068B000184600F035F800BF14210B48FFF734FDEF
:1068C0000020094908704860087228200882B42016
:1068D000488210B010BD0000AC9E01007372635C72
:1068E0006D61696E2E630000A420002010B5084879
:1068F00073DF044600BF2346002B06D000BF05A26D
:10690000FF216631184600F00BF800BF10BD0000F3
:10691000A42000207372635C6D61696E2E630000B9
:1069200000BFBFF34F8F04480449C860BFF34F8FC7
:1069300000BF00BFFEE700000400FA0500ED00E024
:10694000F8B504460D461646034807683246294600
:106950002046B847F8BD0000D8250020F8B5044609
:1069600017480078142148431549091D0E5C081F7B
:106970000078142148431249091D4018806800011D
:1069800010490D580E480078142148430C49091D40
:1069900040184088091F0090097814225143084A82
:1069A000121D89180B69111F097814225143044ADA
:1069B000121D89180846083022463146A847F8BDFE
:1069C000FC230020C824002070B503460C4619485B
:1069D0000068002801D1082070BD002A01D10720DD
:1069E000FAE7002B01D10720F6E700211CE0242064
:1069F0004843104D2D68285C002814D1012524201F
:106A000048430C4E3668355424204843094D2D68C0
:106A10004019447024204843064D2D684019826176
:106A200019600020D8E7491C034800788142DEDB6A
:106A30000420D1E70820002004200020FFB581B009
:106A40000E4617461C4620468107890F002901D1B2
:106A5000012100E00021002902D1072005B0F0BD8E
:106A6000002C01D10720F9E702F066FC26490A98BC
:106A70000860264806702648046000250CE00021C6
:106A800024206843224A1268115424206843204A73
:106A90001268801801756D1CB542F0DB242070432C
:106AA000041903201B4908701B4804601834002592
:106AB0000CE0E900184A1268881800210170417042
:106AC00087704460182179430C196D1C032DF0DB8D
:106AD0000020C04311490860002011490870114985
:106AE00008701420FFF75EFD03211420FFF778FDE6
:106AF0001420FFF761FD019802F0F4FB02F0ECFBBB
:106B0000094908600020A9E728200020042000206F
:106B1000082000200C20002010200020142000203D
:106B2000242000202520002018200020FEB5044647
:106B30000D46164616480068002801D10820FEBD03
:106B400014480078844201D2052D01D20720F6E7CF
:106B5000242060430E490968085C012801D0082000
:106B6000EDE7242060430A4909684018407801286D
:106B700001D1284600E00020074603F0EBF83B4631
:106B80002A4621460096019002F084FFD7E70000D4
:106B9000082000200420002070B504460D4800683D
:106BA000002801D1082070BD0B480078844201D331
:106BB0000720F8E72420604306490968085C01289B
:106BC00001D00820EFE703F0C5F80546214602F0A2
:106BD0008BFFE8E70820002004200020F8B50546D8
:106BE0000C462078001D1F2801DD0C20F8BD6846EA
:106BF00079DF0646002E01D03046F7E703212278E0
:106C0000501C2070A95419212278501C2070A954BE
:106C1000207841196846008803F012F8217840185E
:106C200020700020E2E7000003460C462246194689
:106C30000148FFF775FE0000EFBEADDEF3B593B07F
:106C40000D460021129111911398002814D0139829
:106C5000FFF7F9FD0446002C02D0204615B0F0BD28
:106C600012AA09A91398FFF757FD0446002C01D07A
:106C70002046F3E709AE00E00026002D13D0284699
:106C800002F0B0FC0446002C01D02046E6E711AA31
:106C900001A92846FFF740FD0446002C01D02046FC
:106CA000DCE701AF00E0002710A803793A46017A3B
:106CB000304672DFD2E7000070B505461C22294637
:106CC0001448FFF75FFA002013490870286800286D
:106CD0000BD0082211482968FFF7C7FA0F487ADF5E
:106CE0000446002C08D0204670BD0C487BDF0446CB
:106CF000002C01D02046F7E70020C0430849088057
:106D0000002008490870084A00210848FFF75CFE87
:106D1000EAE70000E0230020542000203C2000206F
:106D20004620002044200020B99C01005020002073
:106D300010B504462088102806D0112808D0122843
:106D40000ED0502810D107E0204601F023FE0CE0C1
:106D5000204601F03DFE08E0204601F09FFE04E0E1
:106D6000204601F00BFE00E000BF00BF10BD10B5D3
:106D70000446204600F0E8FC2046FFF7D9FF2046F5
:106D800001F0E4FD204601F045FE10BD30B585B0B0
:106D900004460020C043A081124B0FCB6D460FC5A7
:106DA00021460A31684663DF0546002D02D0284699
:106DB00005B030BDA17A684681740B490182224634
:106DC00004A90120A0DF0546002D01D02846EFE7E9
:106DD000204601F0E9FC0546002D01D02846E7E7F2
:106DE0000020E5E7B09E01000C20000038B500BF90
:106DF000002350222249082002F0B4FB054600BFC0
:106E00002B46002B06D000BF1EA2FF21A031184642
:106E1000FFF786FD00BF00BF00200090009068468D
:106E200060DF044600BF2346002B06D000BF15A23A
:106E3000FF21A7311846FFF773FD00BF144802F089
:106E400085FB044600BF2346002B06D000BF0DA2E1
:106E5000FF21AB311846FFF763FD00BF0D4802F07C
:106E6000B5FB044600BF2346002B06D000BF05A299
:106E7000FF21AF311846FFF753FD00BF38BD0000BA
:106E8000902300207372635C6D61696E2E63000055
:106E90006F6D0100499801007CB50446A1786A46EF
:106EA0000D4801F051FE0546002D13D161781822DE
:106EB00051430A4A88181C231822694601F056FFDC
:106EC0000748807A800007490A582146684690475B
:106ED000054600BF7CBD0000782000209C250020D6
:106EE000D8250020D09E0100F0B585B00F27584866
:106EF0000078142148435649091D4418E568207854
:106F0000022804D0042823D005286FD16FE020691F
:106F100003905048008886026088801B0490039884
:106F200080190390A08880194519012189020498CD
:106F3000884206D2049882082846039921DF074632
:106F400005E0FF2201322846039921DF074676E05B
:106F5000A06800014049401800890490A068000121
:106F6000401840890390A0680001401840680290D2
:106F70000298A84205D10399049848436188884241
:106F800002D0A06802280DD101200007006981B25B
:106F90002846FFF7CBF92F4909884618304620DFED
:106FA000074622E001200007006981B22846FFF76A
:106FB000BDF9064601200007006980B27043281A17
:106FC0008008019001200007006980B2711C4843CD
:106FD00061884919401A8008009031462046009B7C
:106FE000019A02F00BFB074600BF28E026E00120D3
:106FF0000007006981B22846FFF798F90646A08885
:10700000411901200007006980B27043081A800806
:107010000490A08840196188421801200007006987
:1070200080B2711C4843801A800803903146204684
:10703000039B049A02F0E2FA074600E000BF00BF9B
:10704000002F02D1012002498870384605B0F0BDFA
:10705000FC23002074200020C824002010B5002448
:1070600006484078002807DDFFF73EFF0446002C65
:1070700002D0112C00D10024204610BDFC2300209A
:107080000023142141430C4A5354142141438918CD
:107090004B8001231421414389188B600023142164
:1070A00041438918CB601421414389180B61142195
:1070B000414389188B80704700240020FFB581B0C0
:1070C000064617460024204840780A2837D01E4834
:1070D00000781D4949784018C4B20A2C02DB2046CA
:1070E0000A38C4B2142060431749091D0E541420F5
:1070F000604340180761142060434118029805C896
:10710000CA608860142060430F4A121D80180499D9
:1071100041801420604380180A9981800025101F47
:107120008078002805D1FFF7DFFE0546112D00D13C
:10713000002505484078401C0349487000E00425BC
:10714000284605B0F0BD0000FC23002010B500204B
:107150000849088008490870084908704870887014
:10716000002403E02046FFF78BFF641C0A2CF9D3B0
:1071700010BD00007420002077200020FC23002098
:10718000FEB51E480068401C002834D01B4800682B
:10719000242148431A4909684018456802F09CF8C0
:1071A0000190184804682146019802F056FBC61C5D
:1071B00015480078002801D102F0A0F8AE4201D2B3
:1071C000284600E0304604192402240A20460F49CC
:1071D000086000BF02F080F800900199009802F06A
:1071E0003CFBC71C2046019902F037FB874201D9BE
:1071F00002F0E8FC01E002F09FF8FEBD1420002040
:1072000008200020182000202C20002040150140DC
:1072100001460888062808DB08881922D201904216
:1072200005DD0888104A904201D007207047488841
:10723000062808DB48881922D201904205DD4888DB
:10724000094A904201D00720F0E70888064A904298
:1072500008D04888904205D008884A88904201DDCD
:107260000720E3E70020E1E7FFFF0000F8B506464E
:107270000D4614462078801D1F2801D90C20F8BD2A
:107280003046FFF7C5FF0746002F01D03846F6E726
:1072900005212278501C2070A95412212278501CFC
:1072A0002070A95422785119308802F0C9FC217845
:1072B0004018207022785119708802F0C1FC2178A2
:1072C000401820700020DAE710B588B01C2101A812
:1072D000FFF72AF8002001900520C00302900F203C
:1072E000000403900321684601740D48C188684674
:1072F00041820121017500200690079001A8FFF747
:10730000DBFC044600BF2346002B06D000BF05A2CD
:10731000FF215C311846FFF703FB00BF08B010BD2A
:10732000902000207372635C6D61696E2E630000B3
:1073300038B51F4801F090F8002829D11D48007881
:1073400000280AD01C484069002820D00020009066
:10735000194841696846884719E0184800780028AC
:1073600002D11548456801E0134885680022294686
:1073700013480068FFF7DAFB0446002C07D00E48DC
:107380008069002803D00C488169204688470AE0BC
:1073900009484069002806D001200090064841694C
:1073A0006846884700BF00200249087038BD0000C9
:1073B0004820002054200020E0230020442000200A
:1073C0005020002070B503460C460820002115E02F
:1073D0000C254D430B4EAD19AD7A2540002D0CD038
:1073E000094DAB4205D00C254D43AD192D899D4269
:1073F00002D11160002003E00520491C0029E7D0DC
:1074000000BF70BDCC250020FFFF000010B5044672
:1074100001210C2060430A4A80188172891E0C20C9
:10742000604380180181FF210C2060438018C172E5
:107430000C21614388180721FEF774FF10BD00007E
:10744000CC25002010B514484068C105C90D00299D
:1074500020D00A46103A50B200280DDA0E4B1C33E9
:107460000407240F083CA408A4001B598407E40E59
:10747000E3401B069B0F0BE0084B032424021B195F
:107480008408A4001B598407E40EE3401B069B0FED
:10749000D8B210BD0420FCE700ED00E000E100E000
:1074A000FEB504460E46A1786A46284801F04CFB1A
:1074B0000546002D49D160780C21484324494018E5
:1074C000807A20210840202801D0022E01D1214FAE
:1074D00004E0012E01D1204F00E0204FA0781C22B3
:1074E00050431F4A811800231C226846B8470546AE
:1074F000002D1AD1022E18D060780C21484314496F
:107500004018807A2021884361780C225143104A28
:1075100089188872607818225043124A81181C23F7
:1075200018226846B847054600BF022E0DD02078C5
:107530000C2148430C494018807A80000B490A58B6
:10754000214668469047054600BFFEBD78200020D2
:10755000CC25002005920100D98F0100F59501008E
:10756000D82400209C250020D8250020C09E0100A2
:10757000F8B505460E461B4F00242EE01C20604344
:1075800019494018807EFF2826D13078022814D06F
:107590001C2060434018807E022188431C216143E7
:1075A000114A891888761C216143891808461030D1
:1075B00007223146FEF759FE0BE01C2060430A49C2
:1075C0004018807E410849001C206043064A80180C
:1075D00081762C70002702E0641C072CCED300BFFC
:1075E0003846F8BD43800000D8240020F8B5054691
:1075F0000E4617460520009000241BE0002D06D102
:107600001C2060430E494018008BB8420DD0002D5D
:107610000FD01C2161430A4A8918084610300722FE
:107620002946FEF7F5FD002803D1346000200090C4
:1076300002E0641C072CE1D300BF0098F8BD0000F5
:10764000D824002070B505460E46134600BF1C46E0
:10765000002C06D000BF04A2FF2171312046FFF7A5
:107660005FF900BF002070BD7372635C6D61696E6D
:107670002E6300001FB501F007FB044600BF234640
:10768000002B06D000BF2BA2FF2180311846FFF748
:1076900047F900BF0120039003A800F0FBFA04465D
:1076A00000BF2346002B06D000BF22A2FF21853158
:1076B0001846FFF735F900BF062101A80230FEF792
:1076C00031FE1E216846C180007A40084000401CFF
:1076D000694608726846007A022188436946087242
:1076E0006846007A1C2188430C3069460872684657
:1076F000007A202188436946087207216846417252
:10770000102181720E48009001216846017169467E
:107710000C4800F035FC044600BF2346002B06D081
:1077200000BF04A2FF2194311846FFF7F9F800BF0B
:107730001FBD00007372635C6D61696E2E63000093
:107740004576010001200020F0B589B004460026EE
:10775000FF20029000BFFE480078002801D109B048
:10776000F0BD00BF00BFFB480068002800D1F6E76D
:1077700000BF06A800F080FA054600BF2F46002F84
:1077800006D000BFF44AF5493846FFF7C9F800BFF4
:1077900000BF0020019007900025201D0490342197
:1077A00068468182FF2181760021017600200890C1
:1077B0002088102813D0A08808AA0221FFF702FE13
:1077C0000546002D0BD10C2108984843E449401888
:1077D000C17A684681760898C1B2684641762088A9
:1077E000142879D006DC10280BD0112879D0132862
:1077F00074D1F5E0172872D0182871D05228F7D12B
:107800000AE208AF3A460121D648FFF7DBFD0090B7
:107810000098002807D102210C2238685043D04A32
:107820008018817201E00420009000980546002D28
:1078300051D101261121684601730898C1B26846EA
:107840004176A1880C2208985043C54A80180181CE
:1078500002210C2208985043C14A801881720C22E0
:1078600008995143BE4A88180722A11DFEF7FDFC66
:10787000607B304000280AD0607B4008BA49085C31
:10788000FF280AD0607B4008085C029005E0B54AFA
:1078900002A9A01DFFF7AAFE0546002D1BD10298E4
:1078A000C1B20C2208985043AD4A8018C1720C2115
:1078B0000898484311464018807A082108430C2252
:1078C00008995143A64A89188872694602988876B1
:1078D00006A8FFF7E1FAA9E141E002E0A5E1C0E076
:1078E00079E10C21089848439D494018807A02218B
:1078F00088430C2208995143994A891888720C21AF
:107900000898484311464018807A08210840082802
:107910000ED10C210898484311464018807A402126
:10792000084040280FD1002106A8FFF7B9FD0AE062
:107930006846807EFF2806D06946887E01F0DCF824
:10794000FF206946887610210C2208985043844A0B
:1079500080188172012612206946087366E10C21A5
:10796000089848437E494018C07AFF2823D1E2890D
:1079700002A90020FFF73AFE0546002D1BD1029810
:10798000C1B20C2208985043754A8018C1720C216C
:107990000898484311464018807A082108430C2271
:1079A000089951436E4A8918887269460298887608
:1079B00006A8FFF771FA0C21089848436849401857
:1079C000C07AFF2806D01821089848436749401814
:1079D000001D0190A0880022019981DF054625E164
:1079E000132069460873A0885A4A121D00217FDFC0
:1079F0000546002D02D00795002631E00C2108989D
:107A0000484357494018807A042108430C220899BA
:107A10005143534A8918887201260C21089848431B
:107A200011464018C07AFF281AD000BF16206946B8
:107A300008731822089951434D4A8918081D1421CA
:107A4000FEF772FC0C210898484345494018807A9B
:107A5000202108430C2208995143414A8918887211
:107A6000E4E00C21089848433D494018807A0421FD
:107A700088430C2208995143394A89188872142086
:107A8000694608730126A079002802D0A0790790E2
:107A9000A0E018210898484334494118E07A8870DA
:107AA00018210898484331494118A07A4870182293
:107AB000089951432D4A8918081D142221460C317A
:107AC000FEF7D3FB0C210898484325494018807ADB
:107AD0004021084040287DD10C2108984843204986
:107AE0004018807A082108430C22089951431C4A07
:107AF000891888720C210898484311464018C07AAA
:107B0000FF2855D10C22089850430A46811802A834
:107B1000FFF72EFD0546002D48D16946029888766C
:107B20000298C1B20C22089850430D4A8018C172C5
:107B3000A1891C22029850430E4A80180183E07AE2
:107B40004007C00F00282CD01C220899514313E095
:107B500084200020D8250020849F010037090000E0
:107B6000CC250020FFFF0000852000209C25002060
:107B7000B4250020D82400203A4A88181022214633
:107B80002031FEF772FB1C21089848433549401804
:107B9000807E410849001C2208985043314A8018D1
:107BA0008176012106A8FFF77BFC13E0079511E021
:107BB0000C21089848432C494018807A202108431A
:107BC0000C2208995143284A89188872002106A876
:107BD000FFF766FC2AE00C21089848432249401828
:107BE000807A402108430C22089951431E4A891883
:107BF00088721520694608730020079001261B48EB
:107C0000807A80001A4A115806A888470546002D38
:107C100001D01848079009E01448807A8000144A7F
:107C2000115806A88847079000E000BF00BF002E4B
:107C300016D003A906A8079AFEF782FE6846007BC5
:107C400012280DD100BF0C2108984843064940185E
:107C5000807A012802D00898FFF7D8FB00BF00BF48
:107C600000BF7CE5D8240020CC250020D8250020AA
:107C7000E09E0100418000000146002901D1044836
:107C80007047FF20087048708870C8700020F7E7C0
:107C90000E8000007FB50646002E02D1354804B0A4
:107CA00070BD00240BE000BF00210C206043324A6D
:107CB00011500C2060438018817200BF641C002C9E
:107CC000F1D0002403E02046FFF7A0FB641C002C49
:107CD000F9D018212948FEF727FB002406E02046AA
:107CE00000F00AFFFF2026490855641C072CF6D334
:107CF0005021684681810721C18122480290224992
:107D000002A801F0A9F80546002D30D101201F4935
:107D100008703078002821D100241CE0A1B26A4606
:107D2000194800F011FF0546002D0FD11C216143B9
:107D3000174A881800231C22694601F017F80546E7
:107D4000002D07D000201149087006E000200F49DF
:107D5000087002E0641C072CE0D308E06A469089B2
:107D6000D289504381B2084800F036FF05462846C4
:107D700095E700000E800000D8250020B4250020E3
:107D800085200020957D010078200020842000209F
:107D9000D8240020FFB58BB00F461D4600BF6F48AA
:107DA0000068002801D10FB0F0BD00BF1498502822
:107DB00000D9F8E70120029007A8FFF75DFF06460B
:107DC00000BF0196019E002E06D000BF644A65499F
:107DD0000198FEF7A5FD00BF00BF002168460177AE
:107DE00008A801700695149805900020019017E0EE
:107DF000019881B203AA5C4800F0A6FE0646002E58
:107E00000BD1082203A90B98FEF702FA002804D12F
:107E10000198C1B26846817705E00198401C019045
:107E200001980728E4D300BF6846807FFF287BD0F5
:107E3000042F0AD11498502803D1202008A90870D3
:107E400066E0402008A9087062E04849681A1C21D1
:107E5000FEF76CFA0446072C1DD205A809900D9870
:107E6000002810D16946887F01218140404A12686C
:107E70001140002901D0012100E00021002902D198
:107E80000020029044E06946887F01F00BFF20202B
:107E900008A908703CE03749681A1821FEF746FA2D
:107EA0000446002C0DD105A80990202108A80170D6
:107EB00068464477807F1C2148432C49401806902F
:107EC00026E02D49681A1821FEF730FA0446002CE6
:107ED00019D1302108A80170684644770121C17783
:107EE0000C20604325494018807A0221084002286E
:107EF0000ED06946497F182251431F4A881818211D
:107F0000FEF712FA04E000200290402008A9087051
:107F1000029801281FD1042F07D108A9087803214E
:107F2000084308A908700FE015E0032F06D108A93F
:107F300008780121084308A9087005E008A9087815
:107F40000221084308A9087005A8099008A907A8F4
:107F50000D9AFEF7F5FC00BF25E70000D8250020AC
:107F6000849F0100C304000078200020D824002052
:107F7000802000209C250020B4250020CC25002056
:107F800070B505460C4600BF17480078002801D19F
:107F9000164870BD00BF002D02D11448801DF8E7BF
:107FA000002C02D11148801DF3E72068002802D17F
:107FB0000E48801DEDE70E48006800280FD10C49DF
:107FC000206808600622A11D0948001DFEF74DF932
:107FD00020790749887200202870002601E0034EAE
:107FE000361F3046D5E700008420002008800000BE
:107FF000D8250020014614480078144A127890428F
:108000001DD011480078401C0F4A107010460078AF
:10801000022801D1002010700B48007880000C4A23
:10802000105808600B4A086812688018094A1060E6
:10803000104600680002000A10600120704700200E
:10804000086000BFFAE7000024200020252000205F
:108050001C20002018200020F0B50346002426E054
:10806000164E366824277E43154F3F68F019466840
:108070009E4203D94668F61A46601DE046689B1B7F
:10808000466834190026466006750C4E35680B4F5D
:10809000066A3E600669002E08D00E193602360ABE
:1080A00086600669C66016680662156000BF0348F0
:1080B0000068401C0028D3D100BFF0BD1420002070
:1080C000082000203EB500BF68460078010909017C
:1080D000491C009168460078F021884310300090D8
:1080E00000BF0D221DA168467CDF044600BF234669
:1080F000002B06D000BF1DA2FF2103311846FEF75A
:108100000FFC00BF002078DF044600BF2346002B91
:1081100006D000BF15A2FF2106311846FEF700FC6D
:1081200000BF002001900290082168468180502104
:10813000C18000210181FF219131418101A87ADFB5
:10814000044600BF2346002B06D000BF07A2FF2134
:1081500010311846FEF7E4FB00BF3EBD4D73506181
:10816000636D616E5F4E6F64650000007372635CE7
:108170006D61696E2E630000014600207047024663
:10818000002070470246002070470000F8B5044602
:10819000002600276078182148431949085800280C
:1081A0001FD060780C21484316494018807A40213E
:1081B0000840402815D160780C21484311494018E7
:1081C000807A2021084020280BD06078182148436D
:1081D0000B494018061D6078182148430849085A81
:1081E00087B261780C225143064A891808893A46B9
:1081F0003146A9DF0546002D00D0034D2846F8BDC5
:10820000B4250020CC2500204180000070B5054633
:108210000C466178182251430C4A881834231822DE
:10822000294600F0A3FD0646002E0DD160781821E6
:10823000484306490858401C002805D100216078B1
:1082400018225043014A1150304670BDB425002019
:10825000F0B587B007460C461420019061780C22D7
:108260005143294A8918088901AA02A9AADF0646AA
:10827000002E46D1617818225143244A8918081DDE
:1082800069468A8802A9FDF7C3FF002812D16078E9
:108290000C2148431C494018807A022108400228DA
:1082A0002FD0617818225143184A88181821FEF7F8
:1082B0003BF826E060781821484314490858002804
:1082C00001D0134D00E0134D69468988607818226B
:1082D00050430E4A11506178182251430B4A8918B5
:1082E000081D69468A8802A9FDF74CFF60781822AC
:1082F0005043064A8118342318223846A8470646B8
:1083000000BF002007B0F0BDCC250020B425002020
:1083100005920100D98F010070B505462846FFF788
:1083200035FF0446002C02D100BF00BF04462046A2
:1083300070BD70B505460E4631462846FFF766FF0C
:108340000446002C02D100BF00BF0446204670BD89
:1083500070B505460E4631462846FFF779FF0446BC
:10836000002C02D100BF00BF0446204670BD10B5EE
:108370001020152108E0032205231B0707242402EF
:108380001B1984001A51401C8842F4D900BFFF21F8
:10839000022000F0CDFA10BDF8B529480078002879
:1083A00000D1F8BD27480068002801D1012000E075
:1083B0000020054624480068002801D1012000E083
:1083C0000020064600BF002D14D1684651DF044648
:1083D000052C01D101250CE0002C06D000BF1B4A62
:1083E00069212046FEF79CFA03E0164900980968C7
:1083F000884700BF002E1AD11548008800906946B2
:108400001448006861DF0446052C01D101260DE007
:10841000002C06D000BF0D4A80212046FEF780FACE
:1084200004E00C48006808490968884700BF002D2F
:1084300002D0002E00D000E0C5E700BF00BFB0E7CB
:10844000622000206820002064200020389F010066
:10845000602000205C20002001464888064A1288DF
:10846000904206DB4888044A5288904201DC012091
:1084700070470020FCE700003C2000200C48008CE6
:10848000C0B2012812D10A48808C0007000F0028D2
:108490000CD10748806AF0210840402806D10448E2
:1084A000C06A0840002801D1012070470020FCE785
:1084B000C00F00F01948008CC0B201282CD1174819
:1084C000808C0007000F002826D11448806AF02114
:1084D0000840002806D11148C06A0840002801D190
:1084E000012070470D48806AF0210840102806D10D
:1084F0000A48C06A0840002801D10120F1E7074876
:10850000806AF0210840302806D10448C06A08403B
:10851000002801D10120E4E70020E2E7C00F00F0CD
:1085200001468807800F002801D1012070470020F4
:10853000FCE70000FEB52B48006801902A4800784F
:10854000009040E00098C000284909684418257848
:1085500035E01820684361680F18681CC5B2A07820
:10856000A84200D100253878022802D0032823D160
:108570000EE02421786848431D4909684618307D7B
:10858000002804D0786801F02BFA0020307514E040
:108590000CE01449096824225143154A12688818CE
:1085A000002101750F4A016A116000BF0D48006883
:1085B000401C0028EDD100E000BF00BF00BF607884
:1085C000A842C6D100BF0098411EC9B20091002840
:1085D000B8D1044801680198814201D00120FEBD54
:1085E0000020FCE7142000200C2000201020002098
:1085F00008200020FEB50746404800680290404829
:10860000007801906BE00198C0003E490968451868
:108610005DE0781C002807D03E46242070433A498C
:1086200009684418276A23E02978182359436A689F
:1086300050182978491C29702978AA78914201D1CB
:10864000002129704668242171432F4A12688C1832
:108650000178012902D1217D002900D037E081680D
:10866000A160C168E160016921614169E16100BF08
:108670002649A0680968401A0002000A2449884275
:1086800008D22249A068096801F0E7F8E1684018BB
:10869000606011E01D48A168006801F0DEF80090FC
:1086A000E1680098814204D9E1680098081A606086
:1086B00001E00020606000BF0020A060E0600120B9
:1086C0002075801E2062304601F01CF900BF781C26
:1086D00000289ED12878697888429AD100BF0198F5
:1086E000411EC9B2019100288DD104480168029849
:1086F000814201D00120FEBD0020FCE714200020B3
:108700000C2000201020002008200020182000202D
:10871000FFFF7F00FFF72BFE01F05AFAFEF766FB22
:10872000FEF7A8FFFFF7CEFC00F0B8FEFEF79CF8BE
:10873000FEF7CAFDFEF7DAF800BFFEE7F8B505461A
:108740000E4614462879801CC7B22078801CC019B8
:108750001F2801DD0C20F8BD781CC1B22278501C06
:108760002070B154FF212278501C2070B15422781F
:108770009119288801F064FA217840182070A8889F
:1087800000280EDDA868002801D10720E3E7AA88A9
:1087900023789819A968FDF768FD20782979401891
:1087A00020700020D7E7000010B58EB004461C21D1
:1087B00007A8FDF7B9FD6846007F02218843811CA8
:1087C00068460177007F0821884341186846017791
:1087D000002008900A900B900C900D90A17A6846AA
:1087E0008171284981800020009000BF6846007890
:1087F00001090901491C684601700078F02188438D
:1088000010306946087000BF00BF68464078010913
:108810000901491C684641704078F02188431030B6
:108820006946487000BF6846807806218843811CED
:1088300068468170807808218843014668468170C7
:10884000807810218843014668468170807841080D
:10885000490068468170142102A8FDF765FD01A852
:108860000290684603900321018200214182032186
:108870008182002006902088A31C02AA07A9A2DFFB
:108880000EB010BD0D200000F7B584B004460F46B1
:1088900006980678B01C1F2803DC6078801C1F280F
:1088A00002DD0C2007B0F0BD1F20801B801E85B2AA
:1088B0000295B11C781802A97DDF03900398002867
:1088C00001D00398EEE72078022808D16846008995
:1088D000A84204DC09200190684605890BE00820C5
:1088E00001906078002804D06078A84201DC6578A7
:1088F00001E068460589681CC2B23046711CCEB2E0
:108900003A543046721CD6B201993954069801780F
:10891000A81C0818C1B2069801700020C2E70146E1
:108920000020704702460020704702460020704732
:1089300070B504460D462A462146024800F004F868
:1089400070BD00000805005042547047018810298E
:1089500004D0112906D019290AD108E08188064AD5
:10896000918106E00021C943034A918101E000E0C2
:1089700000BF00BF704700009020002010B50446E3
:108980000822A11D0248FDF770FCFEF7D1FC10BDC6
:108990004820002010B50446A08809490880082214
:1089A00021460E310748FDF760FC0020064908709B
:1089B0000648C089002801D1FEF7BAFC10BD0000AE
:1089C000462000204820002044200020E0230020F2
:1089D00070B505460020C0430A49088000200A49B6
:1089E00008700A480068FEF7D7F80446002C07D044
:1089F00007488069002803D00548816920468847D8
:108A000070BD00004620002044200020502000209F
:108A1000E023002010B504462088502802D12046CB
:108A200000F002F810BD000038B50546AC1D2088E6
:108A30000F494988884219D1208B032816D1A07E7E
:108A400069460870E07E002801D0012000E0002087
:108A500069464870207F002801D0012000E00020F6
:108A600069468870009800F033FD00BF38BD0000F3
:108A700090200020022802D0032809D100E000BF86
:108A800005490978002902D00021034A117000E04D
:108A900000BF00BF704700000020002070B50546F1
:108AA000AC1D20881249C989884220D1208B022818
:108AB0001DD100BF00BFA17EE27E12021143084615
:108AC000C107C90F002902D0FEF732FC0FE00948A8
:108AD0000068FEF761F80646002E07D0044880695A
:108AE000002803D0024881693046884700BF70BD26
:108AF000E02300205020002010B504461C216143D3
:108B0000104A8918084611300621FDF70BFC1C217C
:108B100061430C4A88181021FDF704FCFF211C203A
:108B20006043084A801801741C20604380188176D5
:108B30000021C9431C20604380180183204601F0B6
:108B4000B1F810BDD82400203CB5034600BF204832
:108B50000078002801D108203CBD00BF002B01D1C6
:108B60000E20F9E7002A01D10E20F5E71868002849
:108B700005D118680001174C2058002801D10720A2
:108B8000EAE75C68186801940090019C186800018D
:108B9000104D4019008948432018019000980001A9
:108BA0002C4600194089009C2401641924896043E3
:108BB000009C2401641964680019019CA04201D83A
:108BC0000720C9E7019C0098546010600020C3E7AB
:108BD00076200020C8240020F8B504460D4600BFCA
:108BE00027480078002801D10820F8BD00BF002CDC
:108BF00001D10E20F9E72068002805D12068000186
:108C000020490858002801D10720EEE7206800011C
:108C10001C4940184089216809011A4A89180989A4
:108C200048432168090189184968401861688842E9
:108C300001D80720D9E76068FFF772FC002801D14E
:108C40001020D2E723681B010E4FDB1962685B68B6
:108C5000D01A226812013B46D2181189FDF766FB33
:108C6000002901D00720C0E700202B4602462146FC
:108C700000900420FEF722FA06463046B5E70000D1
:108C800076200020C824002070B5FEF75FFA00208F
:108C90002E4908802E484069401C002808D0012237
:108CA0001207126991B22A4A5069FDF73FFB02E0B0
:108CB000012000074069801E01210907096989B266
:108CC00048432449086000202349088000BF0DE084
:108CD00000210201214B99500201D2181181020199
:108CE000D21891810201D2185181401C0028EFD086
:108CF00008201B49087016484069401C002808D00D
:108D000001221207126991B2114A5069FDF70EFB58
:108D100002E0012000074069401E0121090709699E
:108D200089B24843064601200007006981B23046F7
:108D3000FDF7FCFA054620DF0446002C04D1012093
:108D40000849887008490870204670BD6C200020D2
:108D5000001000107020002074200020C824002083
:108D600077200020FC23002076200020FFB581B072
:108D70000C4615461E4600BF35480078002802D133
:108D8000082005B0F0BD00BF002C01D10E20F8E78F
:108D90000198002801D10E20F3E72068002805D1B2
:108DA000206800012B490858002801D10720E8E776
:108DB0002068000127494018408921680901254A97
:108DC00089180989484321680901891849684018A8
:108DD0006168884201D80720D3E7002D06D02068BB
:108DE00000011C4940180089A84201DA0720C8E7A1
:108DF000A81921680901174A89180989884201DDE3
:108E00000720BEE70198FFF78BFB002804D030460F
:108E1000FFF786FB002801D11020B2E76068FFF75A
:108E20007FFB002801D11020ABE7606881192A463A
:108E30000198FDF71AFA00952068000105490F58BE
:108E4000002203212046019BB847002099E700003B
:108E500076200020C8240020F8B504460D4600BF47
:108E600058480078002801D10820F8BD00BF002C28
:108E700001D10E20F9E7002D01D10E20F5E7206881
:108E8000002801D10E20F0E7A08801210907096917
:108E900089B2884202DCA088102801DA0720E4E7C2
:108EA000E088002830D048484069401C002808D09D
:108EB00001221207126991B2434A5069FDF736FA4E
:108EC00002E0012000074069401E012109070969ED
:108ED00089B24843E188A28851433C4A1268891804
:108EE000884211D3E088A188484301210907096914
:108EF00089B288420ADDA18801221207126990B264
:108F0000FDF71EFA002901D00720AEE7207980077F
:108F1000800F002801D00720A7E72D4800880128EE
:108F200001D10420A1E72A4800882860274800686A
:108F30006860274909880901264A891868684860D5
:108F400023490988090120685050A08820490988D0
:108F5000090189180881E0881D49098809018918D3
:108F600048810027A688E1884E4300BF781C87B25D
:108F700001200007006980B2B04205D2012000073D
:108F8000006980B2361A00E000260120000700695F
:108F900080B20E49096840180C490860012000079A
:108FA000006980B2B042E1D909480088000109494E
:108FB0004018878106480088401C05490880002029
:108FC00053E70000762000200010001070200020E1
:108FD0006C200020C8240020F8B504460E46154633
:108FE0001F4600BF2F480078002801D10820F8BD97
:108FF00000BF002E01D10E20F9E7002C01D10E2078
:10900000F5E72068002805D12068000126490858A6
:10901000002801D10720EAE7206800012249401812
:10902000408921680901204A891809894843216833
:1090300009018918496840186168884201D80720E9
:10904000D5E7002D06D02068000117494018008997
:10905000A84201DA0720CAE7E81921680901124A83
:1090600089180989884201DD0720C0E73046FFF7EB
:1090700057FA002804D03846FFF752FA002801D1E9
:109080001020B4E76068FFF74BFA002801D11020E8
:10909000ADE72B463246214602200097FEF70EF838
:1090A000A5E7000076200020C8240020FEB5054674
:1090B00000265048807801287ED100204D498870D4
:1090C0004D480078082811D1022D03D100204A49CB
:1090D000087002E0002049490870FDF7BFFF06460E
:1090E000002E02D03046FDF739FCFEBD022D02D025
:1090F000032D79D174E03F480078142148433D495D
:10910000091D44183E480088401C3D4908802078CD
:10911000022807D10846008880026188884201DB66
:10912000012000E0002007462078052805D13248BC
:109130000078072801D1012000E00020029020786B
:10914000042805D12C480078072801D1012000E02F
:1091500000200190207804280BD129480088800243
:109160006188884205DB24480078002801D101206D
:1091700000E0002000900298002807D10198002804
:1091800004D10098002801D1002F1FD000201A49D7
:1091900008703046FDF7E2FB16490878FDF770FFCE
:1091A00000201749088013484078401E1149487034
:1091B00008460078401C00E019E008700846007876
:1091C0000A2803DB084600780A380870FDF746FFD6
:1091D0000646002E02D03046FDF7C0FB05E003E056
:1091E0000D20FDF7BBFB00E000BF00BF00BF00BFCC
:1091F0007BE70000FC230020772000207620002061
:1092000074200020F8B504460E4615461F4600BFE0
:109210002F480078002801D10820F8BD00BF002E9B
:1092200001D10E20F9E7002C01D10E20F5E72068CE
:10923000002805D12068000126490858002801D1DE
:109240000720EAE720680001224940184089216888
:109250000901204A891809894843216809018918A8
:10926000496840186168884201D80720D5E7002D79
:1092700006D020680001174940180089A84201DA89
:109280000720CAE7E81921680901124A89180989E3
:10929000884201DD0720C0E73046FFF741F900288A
:1092A00004D03846FFF73CF9002801D11020B4E77C
:1092B0006068FFF735F9002801D11020ADE72B4693
:1092C0003246214605200097FDF7F8FEA5E700008D
:1092D00076200020C8240020014840687047000024
:1092E0000015014010B50446034884600321112095
:1092F000FDF776F910BD00000015014010B5012002
:1093000000040A4948600949403948601120FDF7C6
:1093100049F91120FDF750F90120054908602F2077
:10932000FCF720FF01200349087010BD40130140E5
:10933000001001402C20002010B511200121814097
:109340000E4A116000BF012000040D4988600C49DD
:109350004039886001200B4948602F20FCF702FF4C
:109360000120084988600020074908602F20FCF789
:10937000F9FE00200549087010BD000080E100E002
:109380004013014000100140182000202C20002034
:10939000F0B502460C46002037E001238340194611
:1093A00023460B40002B2FD0D5680D40002D05D152
:1093B00001235B04D5680D43D56004E003231B043F
:1093C000D5688D43D56005252D0707263602AD19D2
:1093D0008600AD5903263604B54305263607072710
:1093E0003F02F6198700F55105252D07072636029D
:1093F000AD198600AD591D430526360707273F02E4
:10940000F6198700F55100BF401C2028C5D3F0BDD8
:10941000FEB507460E461446386B002801D10720DA
:10942000FEBD0020019032E0396B0C2201985043C0
:109430000D182879801CC0B200900098401CC1B261
:109440002278501C2070B15416212278501C2070B4
:10945000B15422789119288800F0F2FB2178401845
:109460002070A88800280EDDA868002801D10720F8
:10947000D6E7AA8823789819A968FCF7F6FE207821
:109480002979401820700198401CC0B20190342006
:10949000C15D01988142C7DC0020C1E710B50848D2
:1094A000FDF774FC044600BF2346002B06D000BF26
:1094B00004A2FF2146311846FDF732FA00BF10BD65
:1094C000902000207372635C6D61696E2E630000F2
:1094D00031B50024FF210220FFF72AFA6846007800
:1094E000002806D0012807D0022808D003280CD174
:1094F00008E00820044308E00420044305E01020AD
:10950000044302E02020044300BF00BF68464078C7
:10951000002801D00120044368468078002801D04B
:10952000022004430225224629460248FFF70CFA8E
:1095300000BF38BD0C05005070B506460C461546F8
:1095400029462046FDF770FB70BD0000014600294A
:1095500001D10E207047024801600020FAE70000A8
:1095600064200020FFB581B00C4616461F46002C33
:1095700002D1072005B0F0BD20468107890F0029E0
:1095800001D1012100E00021002901D10720F1E7EC
:10959000094804600948068009480760094901989C
:1095A00010DF0546002D01D02846E3E701200649DB
:1095B0000870162026DFDDE75C20002060200020F8
:1095C0005820002039950100622000200146002922
:1095D00001D10E207047024801600020FAE7000028
:1095E0006820002001468888002801DD0720704798
:1095F0000020FCE710B50446002010BDFFB583B085
:1096000004460F46154603268D48007800280BD1E6
:10961000002D06D10698002803D102208849087041
:1096200002E0012086490870854800780300FDF7B4
:1096300065F807FD05314E84BAD7FD0081484069C1
:10964000401C002808D001221207126991B27D4AFD
:109650005069FCF76BFE02E0012000074069401EE4
:1096600001210907096989B24843029001200007D6
:1096700000690004820C01200007006980B2784371
:109680000146029821DF0646002E02D102206C49D5
:109690000870D0E0384620DF0646002E16D1002D97
:1096A00011D1069800280AD12078042803D1072078
:1096B000634908700AE005206149087006E004204B
:1096C0005F49087002E003205D490870B3E05D481F
:1096D0004069401C002808D001221207126991B28B
:1096E000584A5069FCF722FE02E001200007406959
:1096F000401E01210907096989B248430121090770
:109700000290096989B2794308462A46029921DF05
:109710000646002E10D1069800280AD12078042889
:1097200003D106204649087006E005204449087028
:1097300002E00420424908707DE042484069401C34
:10974000002808D001221207126991B23D4A5069DF
:10975000FCF7ECFD02E0012000074069401E0121FA
:109760000907096989B24843A9004018618840186F
:10977000012109070290096989B27943AA00891871
:1097800062888818069A029921DF0646002E09D1C0
:109790002078042803D106202949087002E005201A
:1097A0002749087047E001200007006980B278432C
:1097B000AB00C0180290608882082169029821DFFE
:1097C0000646002E0BD1002D06D10698002803D1A5
:1097D00007201B49087002E00620194908702AE09A
:1097E00018484069401C002808D00122120712695D
:1097F00091B2144A5069FCF799FD02E0012000077C
:109800004069401E01210907096989B24843019056
:1098100001200007006981B20198FCF787FD0290E2
:1098200020DF0646002E04D1072000E002E00449B4
:10983000087000E000BF00BF304607B0F0BD000078
:10984000772000200010001010B504462046FFF7D6
:109850002DFC2046FFF70EF910BD0246501A0002FB
:10986000000A704770B504460D480068002813D000
:109870000B4AE169A06912689047054600BF2E4671
:10988000002E07D000BF074AFF2164313046FDF7A4
:1098900047F800BF00BF02E0A169E069884770BDDA
:1098A00028200020F49E0100FEB50020C043019056
:1098B0000F4804680F4807686846FEF79BFB05469B
:1098C000FEF738FE0646002D05D001AA2146009875
:1098D000FEF7C2FB01260198FEF78CFE002800D09F
:1098E0000126002E02D03846FDF74AFCFEBD0000DE
:1098F000182000201420002010B51420FCF766FE6C
:1099000010BD0000F0B5024624205043324B1B68C6
:10991000C11832480068401C002802D12F4802605C
:1099200059E02E484B680068242460432A4C246880
:1099300000194068834217D82848006824235843F8
:10994000254B1B68C01840684B68C31A2348006841
:1099500024246043204C2468001943601F48006899
:1099600008621E48026036E04B681C4D2C6828686F
:109970000DE024254543184E3668AD196D685B1B14
:10998000044624254543144E3668AD19286A451C03
:10999000002D07D0242545430F4E3668AD196D685C
:1099A0009D42E6D3451C002D0CD0242545430A4E8C
:1099B0003668AD196D68EE1A24254543064F3F6899
:1099C000ED196E604B60086224256543024E3668CF
:1099D000AD192A6200BFF0BD08200020142000202D
:1099E000F8B50646294805682C4609E0B44200D17E
:1099F00009E0254624206043254909684018046A87
:109A0000601C0028F2D100BF601C002800D1F8BD06
:109A1000A54210D11D480068242148431C4909680B
:109A20004018006A1949086008460068401C002870
:109A300001D1FFF781FC24206043154909684018D3
:109A4000476824206043124909684018016A2420AD
:109A500068430F4A126880180162242068430C4949
:109A600009684018046A601C00280CD02420604358
:109A70000749096840184068C11924206043044A16
:109A800012688018416000BFC1E700001420002068
:109A900008200020FFB581B005460E461746E900B4
:109AA000104A12688818694600F065F90446002CCF
:109AB00002D1042005B0F0BD012020706660FFF7E0
:109AC0000BFCA060E760049820610A986061E900DF
:109AD000044A12688818009900F063F9FFF70CFF38
:109AE0000020E7E710200020F8B504460E46E1000C
:109AF0000C4A12688818694600F03DF90546002DA9
:109B000001D10420F8BD022028706E60E100054AF2
:109B100012688818009900F044F9FFF7EDFE002064
:109B2000F0E7000010200020F8B520480068401C35
:109B300000283AD00027FFF7CFFB04461C480168F5
:109B40002046FFF78AFE06461848056811E02420E3
:109B500068431849096844186068B04200D90BE0AE
:109B60006068361A6068C719256A2046FFF77AFED2
:109B700000BF681C0028EAD100BF0F4800780F49D9
:109B80000978884209D10D480078401CC0B20B49C1
:109B90000870022801D10020087008480078800071
:109BA00007490F50FFF7A8FE00BFF8BD14200020A2
:109BB000182000200820002024200020252000203C
:109BC0001C20002010B51120FCF700FD10BD000086
:109BD00038B500BF00200A4B062205210090FCF793
:109BE0002DFF044600BF2346002B05D000BF05A271
:109BF000EE211846FCF794FE00BF00BF38BD000000
:109C0000B82000207372635C6D61696E2E63000082
:109C100030B503461078C01C1F2801DD0C2030BD74
:109C200002241578681C10704C550A241578681C9D
:109C300010704C551578681C10704B550020EEE7DD
:109C400002460A70FF2000021040001248700220F5
:109C50007047F8B505460F4616461C46686800284A
:109C600001D10720F8BD2078801C298840181F28C2
:109C700001DD0C20F6E72878401CC1B22278501C88
:109C80002070B1542178481C207077542A8823789A
:109C900098196968FCF7E9FA20782978401820704B
:109CA0000020DFE701218140024A12688A4301490E
:109CB0000A6070478020002038B50546204800889B
:109CC000204988423BD020480078401C1E4908703B
:109CD0001E48007B097888420FDB1D491848008820
:109CE00075DF0446002C07D018488069002803D08F
:109CF000164881692046884721E0002012490870F3
:109D00001248007C00280FD03B210D48008876DFE8
:109D10000446002C07D00D488069002803D00B486A
:109D200081692046884700BF08484069002806D05E
:109D300000200090054841696846884700BF38BD4B
:109D400046200020FFFF000044200020E0230020E8
:109D50003C20002010B5FDF775FB012802D0032838
:109D600004D101E0002403E0012401E0022400BF4B
:109D700000BF204610BD70B502460B465078411C0E
:109D80009078884200D100211078884201D10020CB
:109D900070BD196050781826704355682C182046FD
:109DA000F6E741707047FFB581B0074615460A9E39
:109DB000009602223846049B029900F014F80446EB
:109DC000002C02D0204605B0F0BD00961022294696
:109DD0003846049B00F007F80446002C01D02046CA
:109DE000F1E70020EFE7FFB587B006461D46109C5F
:109DF0000020069020780590002747E0B9007068A1
:109E000041180A886846028149884181002203A9D5
:109E100002A865DF04900498002802D004980BB0D3
:109E2000F0BD6846017B099881422ED10698002832
:109E300001D0002000E00220019020786946097BD3
:109E40004118019808181F2801DD0C20E7E7069843
:109E5000002809D12078401C20702278511C0898D5
:109E60002170A854012006902078421903A902A865
:109E700065DF04900498002801D00498CFE720788B
:109E80006946097B4018207000BF7F1C3088B842AB
:109E9000B4DC0698002806D021780598401C081AE2
:109EA000C1B2059829540020B9E700000C20020037
:109EB000B3680650F6B511E4B9B21697F925EC7BF4
:109EC0002B8901005182010085810100518301002D
:109ED000258901000D8201007F810100338301008B
:109EE0001F8901008D810100798101001983010022
:109EF000FFFFFFFF433A5C4B65696C5F76355C4161
:109F0000524D5C4465766963655C4E6F726469634B
:109F10005C6E726635313832325C536F75726365D0
:109F20005C6170705F636F6D6D6F6E5C6170705FB0
:109F300074696D65722E6300433A5C4B65696C5FB2
:109F400076355C41524D5C4465766963655C4E6F65
:109F5000726469635C6E726635313832325C536F9D
:109F6000757263655C73645F636F6D6D6F6E5C7358
:109F70006F66746465766963655F68616E646C655D
:109F8000722E6300433A5C4B65696C5F76355C41C9
:109F9000524D5C4465766963655C4E6F72646963BB
:109FA0005C6E726635313832325C536F7572636540
:109FB0005C626C655C6465766963655F6D616E614A
:109FC0006765725C6465766963655F6D616E616724
:109FD00065725F7065726970686572616C2E63008E
:109FE00000A001000020002090000000046101009A
:109FF00090A0010090200020B81500002061010011
:10A000000000000000000000000000000000000050
:10A010000000000000000000000000000000000040
:10A020000000000000000000000000000000000030
:10A030000000000000000000000000000000000020
:10A040000000000000000000000000000000000010
:10A050000000000000000000000000000000000000
:10A0600000000000000000000000000000000000F0
:10A0700000000000000000000000000000000000E0
:10A080000000000000000000000000000024F400B8
:04000005000160C1D5
:00000001FF
